:020000040800F2
:1000000018090020F92C000801010008030100086C
:10001000070100080B0100080F01000800000000A4
:1000200000000000000000000000000013010008B4
:100030001501000800000000170100081901000860
:10004000132D0008132D0008132D0008132D000890
:10005000132D0008132D0008132D0008132D000880
:10006000132D0008132D0008132D0008132D000870
:10007000132D0008132D0008132D0008132D000860
:10008000132D0008132D0008132D0008132D000850
:10009000132D0008132D0008132D0008132D000840
:1000A000132D0008132D0008132D0008132D000830
:1000B000132D0008132D0008132D0008132D000820
:1000C000132D0008132D0008132D0008132D000810
:1000D000132D0008992E0008132D0008132D000879
:1000E0001B010008132D0008132D0008DFF80CD0A9
:1000F00002F02EFF004800474F02000818090020B8
:10010000704700BFFEE700BFFEE700BFFEE700BF8D
:10011000FEE7704770477047704710B54FF40060B6
:1001200001F04EF800283BD04FF40061224801F066
:1001300054F9A0B92148007801280CD100201F49AA
:1001400008701F4802F0BDFA1E49088000211C48B3
:1001500002F000F803E00021194801F0FBFF4FF422
:100160000061154801F039F990B101201349087078
:1001700000201449088014480088401C1249088057
:1001800000210F4802F07AFA01210D4801F0E2FF48
:100190004FF4006001F010F84FF4006001F021F816
:1001A00010BD10B50121064802F09DFA18B10121D9
:1001B000034802F0A9FA10BD000801400000002029
:1001C000000C0040BE030020C003002000B591B029
:1001D0000DA800F0C2FE9DF83B009DF83A109DF876
:1001E00039209DF83830CDE90232CDE904109DF870
:1001F00037009DF83610CDE900109DF835309DF898
:1002000034203DA10AA802F0F1FE9DF842109DF8AD
:1002100041209DF840009DF83F30CDE90030CDE908
:1002200002219DF83E309DF83D2038A107A802F03C
:10023000DDFE10230AAA0021084600F041FC10232D
:1002400007AA0221002000F03BFC11B000BD4FF4D2
:10025000165002F0CAFD00F090F8482002F05EFD52
:1002600000F01EFA00F048FD0A2002F073FD00F0D5
:100270001CFE00F0B5FC00F049FB28A002F0A6FE31
:1002800038E0FFF7A3FF00F035FA044614B3A520C9
:1002900002F0F7FD42F21070B4FBF0F100FB1144E4
:1002A000E0B202F0EEFDC4F3072002F0EAFDC4F371
:1002B000074002F0E6FD200E02F0E3FD04EB1421FE
:1002C00001EB144101EB1461C8B202F0DAFD5A20CF
:1002D00002F0D7FD1948008800F4004050B11748DB
:1002E000057800201649485516A002F06FFE002040
:1002F00012490880C5E7000025642564256425644B
:100300005C256425645C25642564200025642564DF
:100310003A256425643A2564256400000D0A204DC1
:10032000415833303130323D3D3D3D3D3D3D3D2036
:1003300020696E697420200D0A000000BC030020B3
:100340004C0400200D0A25640D0A0000002001E085
:10035000411CC8B21E28FBDB704710B580207449D1
:1003600008604020091F0860FFF7F0FF80207049F7
:10037000091F0860FFF7EAFF10BD08B5012108203A
:1003800001F054FA03208DF8020014208DF80300C8
:100390004020ADF8000069466548143800F08AFF37
:1003A0008020ADF8000069466148143800F082FFF3
:1003B000FFF7D3FF08BD10B580205D49091F086015
:1003C00040200860FFF7C2FF802059490860FFF70E
:1003D000BDFF402056490860FFF7B8FF10BD70B55B
:1003E0000446002520E004F0800020B18020504920
:1003F000091F086002E080204D490860FFF7A6FF52
:1004000040204B49091F0860FFF7A0FF40204849E2
:100410000860072D02D18020091F08606006040EC5
:10042000FFF794FF681CC5B2082DDCDB70BD70B50A
:100430000024002516E06006040E40203C49091FF8
:100440000860FFF783FF3A480C38006800F080002E
:1004500008B1601CC4B2402035490860FFF776FF40
:10046000681CC5B2082DE6DB204670BD10B58020A3
:100470002F49091F0860FFF769FF40202C49091F19
:100480000860FFF763FF2A480C38006800F080001E
:1004900008B1012400E00024402025490860FFF74E
:1004A00055FF204610BD10B5802021490860FFF798
:1004B0004DFF40201E49091F0860FFF747FF4020FD
:1004C0001B490860FFF742FF80201949091F086097
:1004D00010BD10B580201649091F0860FFF736FFD0
:1004E00040201349091F0860FFF730FF40201049E2
:1004F0000860FFF72BFF10BD70B504460C480C38A0
:10050000006800F0800088B109480C38006800F0ED
:10051000400058B1FFF74FFF2046FFF760FFFFF79D
:10052000A5FF0546FFF719FF284670BD0120FCE72F
:10053000140C014070B505460C46FFF73CFFAE2099
:10054000FFF74DFFFFF792FF00B111E02846FFF7DC
:1005500046FFFFF78BFF00B10AE02046FFF73FFFA1
:10056000FFF784FF00B103E0FFF7F7FE012070BD45
:10057000FFF7F3FE0020FAE770B50446FFF71BFF14
:10058000AE20FFF72CFFFFF771FF00B118E0204607
:10059000FFF725FFFFF76AFF00B111E0FFF70BFF40
:1005A000AF20FFF71CFFFFF761FF00B108E0FFF786
:1005B0003EFF0546FFF78DFFFFF7CFFE284670BDD3
:1005C000FFF7CBFE0020FAE72DE9F05F83460C46EB
:1005D000174600253E46FFF7EEFEAE20FFF7FFFE72
:1005E000FFF744FF00B157E05846FFF7F8FEFFF76A
:1005F0003DFF00B150E0FFF7DEFEAF20FFF7EFFE5A
:10060000FFF734FF00B147E041E0FFF710FF8046FD
:10061000FFF749FFFFF70BFF8146FFF744FFFFF7A6
:1006200006FF8246FFF73FFF4FF4403000EA0840E4
:100630004FF47F4101EA0921084340EA0A0044F8E7
:100640003500FFF7F4FE8046FFF72DFFFFF7EFFEC2
:100650008146FFF728FFFFF7EAFE8246012E02D10E
:10066000FFF737FF01E0FFF71EFF4FF4403000EACD
:1006700008404FF47F4101EA0921084340EA0A009B
:1006800004EBC5014860701EC6B2681CC5B2002EDE
:10069000BBD1FFF762FE00BFFFF75FFEBDE8F09F32
:1006A00010B5F0210220FFF745FF02210320FFF7DC
:1006B00041FF00210420FFF73DFF00210520FFF747
:1006C00039FF00210620FFF735FF1F210820FFF723
:1006D00031FF03210920FFF72DFF67210A20FFF7D3
:1006E00029FFE0210C20FFF725FFE0210D20FFF777
:1006F00021FF10BD10B50020FFF73EFF084908801C
:100700000846007800F0400038B101220549072072
:10071000FFF75AFF0348006810BD0020FCE7000007
:1007200002000020C403002010B52021F94800F089
:100730006EFE8021F74800F06AFE8021F54800F047
:1007400068FE2021F34800F064FE10BD10B52021A2
:10075000F04800F05CFE8021EE4800F05AFE802157
:10076000EC4800F054FE10BD10B52021E94800F01F
:100770004EFE2021E74800F04CFE10BD2DE9F0416F
:1007800005462C462021E34800F043FE002619E0F0
:10079000274607F08007802F04D18021DD4800F034
:1007A00036FE03E08021DB4800F033FE6006040ED5
:1007B0002021D84800F02BFE2021D64800F029FE49
:1007C000701CC6B2082EE3DBBDE8F08110B504460C
:1007D000FFF7AAFF7820FFF7D1FFFFF7C5FF002042
:1007E000FFF7CCFFFFF7C0FF2046FFF7C7FFFFF77B
:1007F000BBFFFFF7ABFF10BD10B50446FFF794FF3A
:100800007820FFF7BBFFFFF7AFFF4020FFF7B6FFF1
:10081000FFF7AAFF2046FFF7B1FFFFF7A5FFFFF79D
:1008200095FF10BD70B504460D461DB1E0B2FFF74F
:10083000E3FF02E0E0B2FFF7C9FF70BD70B5064606
:10084000002418E004F1B0000021FFF7EBFF0021C5
:100850000846FFF7E7FF00211020FFF7E3FF002520
:1008600005E001213046FFF7DDFF681CC5B2802D91
:10087000F7DB601CC4B2082CE4DB70BD06E041F677
:10088000650100E0491E0029FCD1401E0028F6D178
:100890007047014605E0002001E0421CD0B27B28F1
:1008A000FBDB0A1EA1F10101F5D1704770B50446CA
:1008B0000D4605F1B0000021FFF7B4FF102141EA19
:1008C00014100021FFF7AEFF04F00F000021FFF726
:1008D000A9FF70BD10B500218D20FFF7A3FF0021F7
:1008E0001420FFF79FFF0021AF20FFF79BFF10BDF3
:1008F00010B500218D20FFF795FF00211020FFF794
:1009000091FF0021AE20FFF78DFF10BD70B50024D0
:1009100018E004F1B0000021FFF784FF0021084631
:10092000FFF780FF00211020FFF77CFF002505E086
:1009300001210020FFF776FF681CC5B2802DF7DB90
:10094000601CC4B2082CE4DB70BD70B5002418E054
:1009500004F1B0000021FFF765FF00210846FFF712
:1009600061FF00211020FFF75DFF002505E0012158
:100970000846FFF757FF681CC5B2802DF7DB601CE7
:10098000C4B2082CE4DB70BD2DE9F04707460E46E3
:100990009046994600250024A8F12000C5B27F2F7B
:1009A00002DD0027B01CC6B2B9F1100F24D13146C8
:1009B0003846FFF77BFF002408E004EB0511564A98
:1009C000505C0121FFF72EFF601CC4B2082CF4DB41
:1009D000701CC1B23846FFF769FF002409E004EB40
:1009E000051108314C4A505C0121FFF71BFF601CC8
:1009F000C4B2082CF3DB12E031463846FFF756FF4D
:100A000000240AE005EB4501444A02EB4101085D80
:100A10000121FFF707FF601CC4B2062CF2DBBDE822
:100A2000F08710B50246012000E050430B1EA1F1F3
:100A30000104E1B2F9D110BD2DE9FF5F07469146EF
:100A40001E460E9D4FF0000A002435E0301B401E6C
:100A5000C1B20A20FFF7E5FFB9FBF0F00A21B0FBB5
:100A6000F1F201FB1208BAF1000F14D1701EA0427E
:100A700011DDB8F1000F0CD1AB4605EBDB7149106D
:100A800001FB0471C8B22B4620220199FFF77CFFBD
:100A900010E04FF0010AAB4605EBDB71491001FB9A
:100AA0000471C8B208F13001CAB22B460199FFF7B0
:100AB0006BFF00BF601CC4B2B442C7DBBDE8FF9F40
:100AC0002DE9F04104460F461546984600260FE0F2
:100AD000AA5D434639462046FFF756FF04F1080059
:100AE000C4B2782C02DD0024B81CC7B2701CC6B298
:100AF000A85D0028ECD1BDE8F0812DE9F0418046E9
:100B00000E461546002731464046FFF7CFFE00242B
:100B100011E0000000080140BA33000892310008DB
:100B2000734A02EB8511085D0121FFF77BFE781CFB
:100B3000C7B2601CC4B2102CF2DB701CC1B24046BC
:100B4000FFF7B4FE00240CE06900491C684A02EB80
:100B50004111085D0121FFF765FE781CC7B2601CDA
:100B6000C4B2102CF0DBBDE8F0812DE9F05F064641
:100B70000F4690461C46DDF828A04FF0000BE11709
:100B800004EB5171C910A4EBC10131B92046E11742
:100B900004EB5171C1F3C70506E02046E11704EBF1
:100BA0005171C910491CCDB23D4615E02946304669
:100BB000FFF77CFEB1460BE059460BF1010B1AF82A
:100BC00001000121FFF72EFE09F1010000F0FF09ED
:100BD000C145F1DB681CC5B2A542E7DBBDE8F09F6B
:100BE00008B50121042000F021FEA020ADF800008E
:100BF00010208DF8030003208DF8020069463D485F
:100C000000F058FBA0213B4800F001FC4FF4487075
:100C100002F0A0F80021AE20FFF704FE00210846F4
:100C2000FFF700FE00211020FFF7FCFD002140200F
:100C3000FFF7F8FD0021B020FFF7F4FD002181202F
:100C4000FFF7F0FD0021FF20FFF7ECFD0021A120C0
:100C5000FFF7E8FD0021A620FFF7E4FD0021A82012
:100C6000FFF7E0FD00213F20FFF7DCFD0021C82059
:100C7000FFF7D8FD0021D320FFF7D4FD002108465F
:100C8000FFF7D0FD0021D520FFF7CCFD002180200B
:100C9000FFF7C8FD0021D820FFF7C4FD0021052083
:100CA000FFF7C0FD0021D920FFF7BCFD0021F12096
:100CB000FFF7B8FD0021DA20FFF7B4FD0021122074
:100CC000FFF7B0FD0021DB20FFF7ACFD0021302055
:100CD000FFF7A8FD00218D20FFF7A4FD00211420BF
:100CE000FFF7A0FD0021AF20FFF79CFD08BD00002D
:100CF000040000200008014008B50121082000F090
:100D000095FD40F20340ADF8000010208DF803007F
:100D100003208DF802006946B44800F0CBFA0221A6
:100D2000B24800F074FB40F20141B04800F071FBA2
:100D300008BD70B504460E460020AD4908600A2083
:100D400002F024F80120AB49C1F8A80104F0FE0428
:100D5000A648006820F0F000A44908600846006832
:100D600040F030000860002519E004F0010020B1D7
:100D700001209F492439086003E000209C49243960
:100D8000086001209A49283908600A2001F0FEFF16
:100D900000209849C1F880016410681CC5B2082D74
:100DA000E3DB002519E006F0010020B101209049A5
:100DB0002439086003E000208D49243908600120AF
:100DC0008B49283908600A2001F0E0FF002089499A
:100DD000C1F880017610681CC5B2082DE3DB002045
:100DE0008349086070BD70B50446002080490860E2
:100DF0000A2001F0CBFF01207E49C1F8A80144F090
:100E000001047A48006820F0F0007849086008463C
:100E1000006840F030000860002619E004F001008E
:100E200020B1012072492439086003E00020704994
:100E30002439086001206E49283908600A2001F031
:100E4000A5FF00206B49C1F880016410701CC6B278
:100E5000082EE3DB6548006820F0F0006349086075
:100E60000846006840F080000860002616E06D101B
:100E70005F48A438006810B145F0800501E005F036
:100E80007F0501205A49283908600A2001F07EFFB9
:100E900000205849C1F88001701CC6B2082EE6DB5C
:100EA000002053490860284670BD10B500218E20EF
:100EB000FFF73FFF80210846FFF73BFF4E48417890
:100EC0008C20FFF736FF4C4881788820FFF731FFF0
:100ED0004948C1788620FFF72CFF474801798420D4
:100EE000FFF727FF444841798220FFF722FF42485D
:100EF00081798020FFF71DFF3F48C1798A20FFF7E5
:100F000018FF80218E20FFF714FF10BD10B58C2034
:100F1000FFF769FF384948708820FFF764FF3649BA
:100F200088708620FFF75FFF3349C8708420FFF781
:100F30005AFF314908718220FFF755FF2E49487149
:100F40008020FFF750FF00F07F002B4988718A2036
:100F5000FFF749FF2849C87110BD10B50446FFF7D7
:100F6000D5FF25480078001120702348007800F054
:100F70000F006070204840780011A0701E48407833
:100F800000F00F00E0701C488078001120711A48B2
:100F9000807800F00F0060711748C0780011A071D0
:100FA0001548C07800F00F00E0711348C07900F0D8
:100FB0000700207210480079001160720E48007915
:100FC00000F00F00A0720C4840790011E0720A484E
:100FD000407900F00F00207307488079001160739A
:100FE0000548807900F00F00A07310BD000C01408F
:100FF000A88121420080214284030020314901431D
:10100000314A1160704770B5002100230F22C47867
:1010100004B32D4C246804F4E064C4F5E064210AB0
:10102000C1F10403CA40447804FA03F184781440FF
:1010300021430901254C0678A155047804F01F05C9
:101040000124AC4005786D11AD0005F1E025C5F82F
:10105000004109E0047804F01F050124AC401C4D58
:101060000678761145F8264070BD1A4A0A400243B8
:10107000154B1B1F1A60704739B1134A121D1268B5
:101080000243114B1B1D1A6006E00F4A121D126825
:1010900082430D4B1B1D1A607047042808D14FF086
:1010A000E021096941F004014FF0E022116107E0FD
:1010B0004FF0E021096921F004014FF0E0221161B5
:1010C000704700000000FA050CED00E000E400E0CD
:1010D00080E100E080FFFF1F002044490860091DF7
:1010E0000860091D0860091D086041483F49143126
:1010F0000860704700213D498279002A3AD00A46AB
:10110000126803689A430B461A600A1D1268036846
:101110009A430B1D1A60027911440A6803681A4346
:101120000A60324A0832126803689A432F4B083328
:101130001A601A1D126803689A432C4B0C331A600C
:101140004279102A0ED11A1F126803681A43274BDE
:1011500008331A601A1D126803681A43234B0C33B4
:101160001A600DE02149427911440A6803681A4364
:101170000A6005E0027911440A6803689A430A602C
:1011800070470021016001710C21417100218171C2
:1011900070471649103109680143144A1032116032
:1011A000704701460020114A143212680A400AB101
:1011B000012000E0002070470C491431086070479E
:1011C000014600200022094B1B6803EA0102074B7D
:1011D00014331B680B4013B10AB1012000E000205A
:1011E0007047024914310860704700000004014054
:1011F000FFFF0F0010B50446CC48844208D10121FE
:10120000042000F02DFB0021042000F029FB46E023
:10121000C748844208D10121082000F021FB0021A9
:10122000082000F01DFB3AE0C248844208D10121A9
:10123000102000F015FB0021102000F011FB2EE023
:10124000BD48844208D10121202000F009FB002183
:10125000202000F005FB22E0B848844208D101219B
:10126000402000F0FDFA0021402000F0F9FA16E0DD
:10127000B348844208D10121802000F0F1FA002116
:10128000802000F0EDFA0AE0AE48844207D1012147
:10129000801500F0E5FA0021A01500F0E1FA10BD7C
:1012A00010B50121084600F0DBFA0021012000F012
:1012B000D7FA10BD2DE9F041024600250026002096
:1012C00000230024002791F803C00CF00F0591F8CB
:1012D00003C00CF0100CBCF1000F03D091F802C059
:1012E0004CEA050591F800C0BCF1000F31D014683C
:1012F00000202BE04FF0010C0CFA00F3B1F800C015
:101300000CEA03069E4220D183004FF00F0C0CFA2A
:1013100003F7BC4305FA03FC4CEA040491F803C04C
:10132000BCF1280F06D14FF0010C0CFA00FCC2F8FA
:1013300014C00AE091F803C0BCF1480F05D14FF08A
:10134000010C0CFA00FCC2F810C0401C0828D1D3D4
:101350001460B1F800C0BCF1FF0F34DD5468002008
:101360002EE000F1080C4FF0010808FA0CF3B1F878
:1013700000C00CEA03069E4221D183004FF00F0CFF
:101380000CFA03F7BC4305FA03FC4CEA040491F899
:1013900003C0BCF1280F05D100F1080C08FA0CF8C5
:1013A000C2F8148091F803C0BCF1480F07D100F1D6
:1013B000080C4FF0010808FA0CF8C2F81080401C25
:1013C0000828CED35460BDE8F0814FF6FF7101804C
:1013D000022181700421C170704702460020936889
:1013E0000B400BB1012000E00020704701468868E7
:1013F00080B2704702460020D3680B400BB1012039
:1014000000E0002070470146C86880B27047016163
:101410007047416170470AB1016100E04161704766
:10142000C16070474FF480320A43826181618261FA
:1014300082698269704702460020434B18684FF664
:101440008073184040EA021008433F4B1860704711
:101450003E49C8617047F0B50A46002300240021C8
:10146000002500F00046B6F1004F02D1364EF1697A
:1014700001E0354E7168C0F3034583B200F44016B5
:10148000B6F5401F08D121F070612F4E766826F026
:1014900070662D4F7E6012E000F48016B6F5801F56
:1014A00006D1032606FA05F4A14341F0706106E077
:1014B000460D360103FA06F6B14341F0706122B1E0
:1014C000460D360103FA06F6314300F00046B6F148
:1014D000004F02D11C4EF16101E01B4E7160F0BD66
:1014E00030B500228B071C0F0F2303FA04F2164BB2
:1014F00008338C1053F824309343134C08348D1068
:1015000044F8253023468C1053F824308C07240FE0
:1015100000FA04F423430C4C08348D1044F82530B1
:1015200030BD0A49DC310860704700000008014006
:10153000000C01400010014000140140001801405F
:10154000001C01400020014000000140000020423A
:10155000DF48006840F00100DD4908600846406847
:10156000DC490840DA49486008460068DA49084022
:10157000D74908600846006820F4802008600846C3
:10158000406820F4FE0048604FF41F0088607047F8
:10159000CF49096821F48031CD4A116011460968AC
:1015A00021F480211160B0F5803F03D0B0F5802F89
:1015B0000ED106E0C649096841F48031C44A116081
:1015C00007E0C349096841F4A021C14A116000E065
:1015D00000BF00BF704710B5014600220023002065
:1015E0004A11012A02D1BA4C236806E0022A02D12C
:1015F000B74C236A01E0B64C636A01F01F02012474
:1016000094401C400CB1012000E0002010BD38B512
:10161000002000900024002500BF3120FFF7DBFFF1
:1016200005460098401C00900098B0F5A06F01D0CE
:10163000002DF2D03120FFF7CEFF08B1012400E0E9
:101640000024204638BD01460020A14A106820F041
:10165000F80040EAC10010607047A0490860704778
:10166000024600209A4B586820F47C1042EA01039D
:101670001843974B58607047984908667047014671
:101680000020934A506820F00300084350607047E0
:101690008F48406800F00C007047014600208C4ADB
:1016A000506820F0F0000843506070470146002069
:1016B000874A506820F4E060084350607047014654
:1016C0000020834A506820F4605040EAC100506016
:1016D000704729B17E4A527A02437D4B5A7204E028
:1016E0007B4A527A82437A4B5A7270477B49D8318F
:1016F0000860704701460020754A506820F4404059
:101700000843506070470021714A20321170704ABE
:1017100082F82010012802D004280AD104E0012117
:101720006B4A2032117005E00521694A20321170A0
:1017300000E000BF00BF7047694908607047644916
:10174000096A0143624A1162704765494439086079
:10175000704730B500210022002400235C4D6D68E5
:1017600005F00C0121B1042905D0082923D105E099
:101770005C4D056022E05B4D05601FE0544D6D68D7
:1017800005F47012524D6D6805F48034022505EBA6
:1017900092421CB9544D554305600BE04C4D6D68A9
:1017A00005F400351DB1504D5543056002E04D4D27
:1017B0005543056002E04B4D056000BF00BF444D3E
:1017C0006D6805F0F0010909484D6B5C0568DD4066
:1017D00045603F4D6D6805F4E061090A434D6B5C5F
:1017E0004568DD4085603A4D6D6805F46051C90A71
:1017F0003E4D6B5C4568DD40C560354D6D6805F458
:101800004041890B3A4D6B5CC568B5FBF3F505614A
:1018100030BD29B12E4A526902432D4B5A6104E072
:101820002B4A526982432A4B5A61704729B1284A90
:1018300092690243264B9A6104E0254A92698243E9
:10184000234B9A61704729B1214AD2690243204B48
:10185000DA6104E01E4AD26982431D4BDA617047A7
:1018600029B11B4AD2680243194BDA6004E0184AD6
:10187000D2688243164BDA60704729B1144A126964
:101880000243134B1A6104E0114A12698243104B60
:101890001A61704712494039086070470F49C8649F
:1018A00070470B49C87170470948406A40F0807022
:1018B00007494862704701460020054A92680A407D
:1018C0000AB1012000E0002070470149887270478A
:1018D000001002400000FFF8FFFFF6FE0000424249
:1018E0008004424200127A0000093D008C0300206F
:1018F0009C03002010B50446FE48844208D1012113
:10190000C014FFF7ADFF0021E014FFF7A9FFC4E00A
:10191000B4F1804F08D101210846FFF7AEFF002146
:101920000120FFF7AAFFB8E0F348844208D1012163
:101930000220FFF7A2FF00210220FFF79EFFACE08C
:10194000EE48844208D101210420FFF796FF0021D0
:101950000420FFF792FFA0E0E948844208D101216A
:101960000820FFF78AFF00210820FFF786FF94E098
:10197000E448844208D101211020FFF77EFF0021B6
:101980001020FFF77AFF88E0DF48844208D1012168
:101990002020FFF772FF00212020FFF76EFF7CE080
:1019A000DA48844208D101214014FFF759FF002191
:1019B0006014FFF755FF70E0D548844209D101213A
:1019C000C804FFF74DFF00214FF40020FFF748FF48
:1019D00063E0D048844209D101210805FFF740FFA8
:1019E00000214FF48010FFF73BFF56E0CA488442C5
:1019F00009D101214805FFF733FF00214FF4001002
:101A0000FFF72EFF49E0C548844208D1012140205C
:101A1000FFF733FF00214020FFF72FFF3DE0C048D4
:101A2000844208D101218020FFF727FF0021802078
:101A3000FFF723FF31E0BB48844208D10121801524
:101A4000FFF71BFF0021A015FFF717FF25E0B648A1
:101A5000844209D101210804FFF702FF00214FF45D
:101A60008030FFF7FDFE18E0B048844209D1012123
:101A70004804FFF7F5FE00214FF40030FFF7F0FEB9
:101A80000BE0AB48844208D101218804FFF7E8FE4F
:101A900000214FF48020FFF7E3FE10BD00220288F2
:101AA000944B98420ED0994B98420BD0B0F1804F96
:101AB00008D0914B984205D0904B984202D0904B61
:101AC000984204D14FF68F731A404B881A438D4BBE
:101AD000984207D08C4B984204D04FF6FF431A40EF
:101AE000CB881A4302808B8883850B880385814BC2
:101AF00098420BD0854B984208D08B4B984205D02A
:101B00008A4B984202D08A4B984201D10B7A0386C5
:101B100001238382704770B5002400220023058CC6
:101B20004FF6FE7635400584028C8388048B4FF691
:101B30008F752C40B51E2C400D882C43751E2A40F5
:101B40000D892A434D882A436A4DA8420BD06F4D18
:101B5000A84208D0744DA84205D0744DA84202D0C6
:101B6000734DA84213D14FF6F7752A404D892A4389
:101B70004FF6FB752A408D882A434FF6FF652B40B0
:101B80004FF6FF552B408D892B43CD892B43838006
:101B90000483CD888586028470BD70B50024002240
:101BA0000023058C4FF6EF7635400584028C838840
:101BB000048B48F6FF752C404FF6FF452C400D88EE
:101BC0004FF6FF7606EA05252C434FF6DF752A40CF
:101BD0000D8906EA05152A434D8806EA05152A43AC
:101BE000444DA84202D0494DA8421DD14FF67F7501
:101BF0002A404D894FF6FF7606EA05152A434FF62F
:101C0000BF752A408D8806EA05152A434FF6FF3531
:101C10002B404FF2FF752B408D8906EA85052B433B
:101C2000CD8906EA85052B4383800483CD8805870B
:101C3000028470BD70B5002400220023058C4FF68D
:101C4000FF6635400584028C8388848B4FF68F7540
:101C50002C404FF6FC752C400D882C434FF6FF5559
:101C60002A400D894FF6FF7606EA05252A434D885E
:101C700006EA05252A431F4DA84202D0234DA8425B
:101C80001DD14FF2FF752A404D894FF6FF7606EAC7
:101C900005252A434FF6FF352A408D8806EA05259B
:101CA0002A434EF6FF752B404DF6FF752B408D896C
:101CB00006EA05152B43CD8906EA05152B438380DB
:101CC0008483CD888587028470BD70B5002200238F
:101CD0000024058C4EF6FF7635400584038C8488FD
:101CE000828B48F6FF752A404FF6FF452A400D8843
:101CF00020E00000002C01400004004000080040EB
:101D0000000C00400010004000140040003401406E
:101D1000004C0140005001400054014000180040B8
:101D2000001C0040002000400040014000440140F1
:101D3000004801404FF6FF7606EA05252A434DF696
:101D4000FF752B400D8906EA05352B434D8806EAC1
:101D500005352B43FA4DA84202D0FA4DA84208D1CE
:101D60004BF6FF752C408D894FF6FF7606EA8515F8
:101D70002C4384808283CD88A0F84050038470BDBA
:101D8000828B4FF2FF331A408283828B4FF6FF73B0
:101D900003EA01231A4382837047F0B50C461546C7
:101DA000002200210026078C4EF6FF7C07EA0C0774
:101DB0000784828B018C4FF6FF7707EA043640F6E2
:101DC000FF473A404FF6FF7707EA05273A434FF6B9
:101DD000FF7707EA03373A43D94FB8420ED0D94FBD
:101DE000B8420BD0B0F1804F08D0D74FB84205D0E1
:101DF000D64FB84202D0D64FB84206D14DF6FF7743
:101E0000394046F48057394305E047F6FF573940DB
:101E100044F48057394382830184F0BD828B4FF6AE
:101E2000F3731A408283828B0A4382837047F0B532
:101E30000C461546002200210026078C4FF6FF6C49
:101E400007EA0C070784828B018C4FF6FF7707EABD
:101E500004264FF60C773A404FF6FF7707EA031750
:101E60002F433A43B64FB8420ED0B64FB8420BD0CC
:101E7000B0F1804F08D0B44FB84205D0B34FB8424C
:101E800002D0B34FB84206D14FF6FF57394046F45F
:101E90008077394305E04FF2FF57394044F48077AB
:101EA000394382830184F0BD028B4FF2FF331A4025
:101EB0000283028B4FF6FF7303EA01231A43028366
:101EC0007047F0B50C461546002200210026078C0D
:101ED0004FF6EF7C07EA0C070784028B018C4FF664
:101EE000FF7707EA041640F6FF473A404FF6FF77C0
:101EF00007EA03373A434FF6FF7707EA05273A43E5
:101F00008F4FB8420ED08F4FB8420BD0B0F1804FF8
:101F100008D08D4FB84205D08C4FB84202D08C4FBC
:101F2000B84206D14FF6DF77394046F01007394303
:101F300005E04FF65F77394044F0100739430283DC
:101F40000184F0BD028B4FF6F3731A400283028BBB
:101F50000A4302837047F0B50C4615460022002163
:101F6000068C4FF6FE773E400684028B018C4FF6BE
:101F70000C7632407E1C06EA03162E433243704E26
:101F8000B0420ED06F4EB0420BD0B0F1804F08D0AF
:101F90006D4EB04205D06D4EB04202D06C4EB04294
:101FA00006D14FF6FD76314044F00106314305E09D
:101FB0004FF6F576314044F0010631430283018447
:101FC000F0BD70B505460C465D4885420ED05D48B3
:101FD00085420BD0B5F1804F08D05B48854205D0D3
:101FE0005A48854202D05A48854200D100E000BFDD
:101FF000208850B92389A28861882846FFF7ABFF63
:10200000E1882846FFF79EFF25E0208804280AD1B2
:102010002389A28861882846FFF753FFE188284674
:10202000FFF742FF17E0208808280AD12389A288F9
:1020300061882846FFF7FBFEE1882846FFF7EEFEA1
:1020400009E02389A28861882846FFF7A6FEE18877
:102050002846FFF795FE70BD2DE9F04105460C4678
:1020600000260127608808B9022600E00026A08823
:10207000012801D1022700E001272088A0B9238987
:10208000A28861882846FFF766FFE1882846FFF7A7
:1020900059FF23893A4631462846FFF712FFE18867
:1020A0002846FFF701FF13E02389A28861882846AC
:1020B000FFF707FFE1882846FFF7F6FE23893A4637
:1020C00031462846FFF747FFE1882846FFF73AFFE9
:1020D000BDE8F0810A884B881A438B881A43CB8865
:1020E0001A430B891A434B891A438B891A43A0F868
:1020F000442070474FF6FF71818000210180C1802C
:102100004180017270470021018041808180C1803F
:10211000018141818181C18170470021018041801D
:10212000012181800021C18001817047002101804F
:1021300041808180C180018141818181704700009F
:10214000002C014000340140000400400008004021
:10215000000C004021B1028842F00102028004E03C
:1021600002884FF6FE731A400280704731B1B0F812
:10217000442042F40042A0F8442005E0B0F8442096
:10218000C2F30E02A0F8442070471AB183890B43B2
:10219000838102E083898B4383817047818270470A
:1021A00041EA0203A0F8483070471AB183890B4313
:1021B000838102E083898B438381704701894FF6D5
:1021C000F8721140018170470A46002101894FF6DB
:1021D0008F73194011430181704730B504460D4695
:1021E00029462046FFF7F0FF208940F007002081B4
:1021F00030BD2DE9F04104460D4616461F46602DC0
:1022000006D13B46012231462046FFF75AFE05E043
:102210003B46012231462046FFF79DFE29462046D7
:10222000FFF7D2FF208940F007002081BDE8F08150
:1022300030B50C4600210189C9B24FF6FF7505EA99
:102240000325154325432943018130BD2DE9F04184
:1022500005460E4617469846002443463A46314600
:102260002846FFF7E5FF2C894FF6F870044044F04C
:1022700007044FF68F70044044F070042C81BDE8D1
:10228000F081F0B504460D4616461F463B463246E1
:1022900029462046FFF7CCFF208940F4804020816A
:1022A000F0BD0185828270470A46002101884FF601
:1022B0008F731940114301807047F0B50C461546E5
:1022C0001E460021002200230189028B038C4FF659
:1022D000F877394021434FF6FC473A4040F2011766
:1022E0003A434FF6DD773B404FF6FF7707EA061794
:1022F0002F433B43018102830384F0BD0A46002142
:10230000018B4FF68F7319401143018370470A46C2
:102310000021018B48F6FF7319404FF6FF7303EA63
:1023200002231943018370470A460021818B4FF62F
:102330008F7319401143818370470A460021818BB6
:1023400048F6FF7319404FF6FF7303EA022319435F
:102350008183704721B1028842F08002028004E04C
:1023600002884FF67F731A400280704721B182883D
:1023700042F00402828004E082884FF6FB731A4028
:102380008280704721B1828842F00802828004E096
:1023900082884FF6F7731A408280704721B1828895
:1023A00042F00102828004E082884FF6FE731A40F8
:1023B000828070470A460021018B4FF6F77319405F
:1023C0001143018370470A460021018B4FF2FF73CE
:1023D00019404FF6FF7303EA022319430183704744
:1023E0000A460021818B4FF6F77319401143818310
:1023F00070470A460021818B4FF2FF7319404FF658
:10240000FF7303EA02231943818370470A460021C0
:10241000018B4FF6FB7319401143018370470A4645
:102420000021018B4FF6FF3319404FF6FF7303EA8B
:1024300002231943018370470A460021818B4FF61E
:10244000FB7319401143818370470A460021818B39
:102450004FF6FF3319404FF6FF7303EA0223194387
:10246000818370470A460021018B4FF67F73194024
:102470001143018370470A460021018BC1F30E010D
:102480004FF6FF7303EA02231943018370470A469C
:102490000021818B4FF67F73194011438183704770
:1024A0000A460021818BC1F30E014FF6FF7303EA48
:1024B00002231943818370470A460021018C4FF69D
:1024C000FD7319401143018470470A460021018CB5
:1024D0004FF6F77319401143018470470A460021F3
:1024E000018C4FF6DF7319404FF6FF7303EA0213B6
:1024F0001943018470470A460021018C4FF67F730F
:1025000019404FF6FF7303EA021319430184704721
:102510000A460021018C4FF6FF5319404FF6FF7316
:1025200003EA02231943018470470A460021018C03
:102530004FF2FF7319404FF6FF7303EA022319436A
:10254000018470470A460021018C4DF6FF73194043
:102550004FF6FF7303EA023319430184704730B525
:10256000002301248C40A3B2048C9C430484048C7B
:1025700002FA01F5ADB22C43048430BD30B500231E
:1025800004248C40A3B2048C9C430484048C02FA7F
:1025900001F5ADB22C43048430BD70B50346002074
:1025A00000241846183001258D40ACB21D8CA5437F
:1025B0001D8409B1082909D100EB6100056825F0E7
:1025C000700505600568154305600EE00D1FC5F335
:1025D0004E052844056825F4E045056005684FF67A
:1025E000FF7606EA02263543056070BD21B10288F8
:1025F00042F00202028004E002884FF6FD731A40A6
:102600000280704721B1028842F00402028004E097
:1026100002884FF6FB731A400280704721B182880E
:1026200042F08002828004E082884FF67F731A4075
:102630008280704702884FF6F7731A400280028842
:102640000A430280704782884FF68F731A40828057
:1026500082880A438280704702894FF6F8731A40D5
:10266000028102890A430281704702894FF67F7313
:102670001A40028102890A430281704781847047AF
:1026800081857047818670470187704781877047D1
:10269000A0F84010704702884FF6FF431A400280AE
:1026A00002880A43028070470146888E70470146BF
:1026B000088F70470146888F70470146B1F8400087
:1026C00070470146888C70470146088D7047024666
:1026D0000020138A0B400BB1012000E0002070475E
:1026E000CA430282704730B502460020002300240E
:1026F000158A05EA0103958905EA010413B10CB1B5
:10270000012000E0002030BDCA4302827047000073
:1027100010B50446FB48844209D101218803FFF724
:102720009FF800214FF48040FFF79AF832E0F64816
:10273000844209D101214804FFF79FF800214FF49A
:102740000030FFF79AF825E0F048844209D10121D2
:102750008804FFF792F800214FF48020FFF78DF8EE
:1027600018E0EB48844209D10121C804FFF785F83D
:1027700000214FF40020FFF780F80BE0E548844289
:1027800008D101210805FFF778F800214FF48010E7
:10279000FFF773F810BD2DE9F04786B005460E46E9
:1027A0000024A24600BFA1460027B08900B100BFA7
:1027B0002F462C8A4CF6FF700440F08804432C828C
:1027C000AC894EF6F3100440B08831890843718912
:1027D00008430443AC81AC8A4FF6FF400440B08903
:1027E0000443AC8201A8FEF7B4FFC648874202D179
:1027F000DDF810A001E0DDF80CA0A88900F400408D
:1028000040B10AEBCA0000EB0A1031684900B0FB86
:10281000F1F807E00AEBCA0000EB0A103168890002
:10282000B0FBF1F86420B8FBF0F00401200964214A
:1028300001FB1089A88900F4004040B1322000EB70
:10284000C900B0FBF1F000F00700044308E03220BB
:1028500000EB09106421B0FBF1F000F00F0004431D
:102860002C8106B0BDE8F0874FF4165101600021BD
:102870008180C18001810C214181002181817047CB
:1028800010B502460020108A4FF2FF0318400B8853
:102890004C8823438C882343CC88234318431082DD
:1028A00010BD0021018041808180C180704721B12D
:1028B000828942F40052828104E082894DF6FF73DE
:1028C0001A4082817047F0B5034600240026002597
:1028D000002040F66A17B94200D100BF1846C1F384
:1028E000421401F01F06012707FA06F5012C01D159
:1028F0000C3004E0022C01D1103000E014301AB189
:1029000007682F43076002E00768AF430760F0BD28
:102910001AB1838A0B43838202E0838A8B438382CA
:102920007047028A4FF6F0731A400282028A0A4305
:102930000282704782894FF2FF731A408281828936
:102940000A438281704721B1828942F0020282816A
:1029500004E082894FF6FD731A4082817047028A33
:102960004FF6DF731A400282028A0A4302827047DE
:1029700021B1028A42F48042028204E0028A4BF6CC
:10298000FF731A4002827047C1F3080282807047C9
:1029900001468888C0F308007047818941F0010131
:1029A00081817047028BD2B20283028B42EA0122FC
:1029B00002837047028B02F47F420283028B0A4338
:1029C0000283704721B1828A42F02002828204E0B1
:1029D000828A4FF6DF731A408282704721B1828A61
:1029E00042F01002828204E0828A4FF6EF731A40AE
:1029F0008282704721B1828A42F00802828204E01A
:102A0000828A4FF6F7731A408282704721B1828919
:102A100042F40042828103E08289C2F30E02828185
:102A2000704721B1828A42F40062828204E0828A85
:102A30004FF2FF731A4082827047828A4FF6FB730F
:102A40001A408282828A0A438282704721B1828A36
:102A500042F00202828204E0828A4FF6FD731A403D
:102A60008282704702460020B1F5007F00D100BF8E
:102A700013880B400BB1012000E00020704701F4E7
:102A80000072B2F5007F00D100BFCA4302807047D8
:102A900070B50246002400230025002040F66A1687
:102AA000B14200D100BFC1F3421501F01F0301265E
:102AB00006FA03F3012D02D19689334006E0022D78
:102AC00002D1168A334001E0968A33400C12012667
:102AD00006FA04F41688344013B10CB1012000E06A
:102AE000002070BD10B50022002340F66A14A142F8
:102AF00000D100BF0A1201249440A3B2DC43048039
:102B000010BD000000380140004400400048004073
:102B1000004C0040005000400CB500200190009097
:102B20006C48006840F480306A49086000BF69481A
:102B3000006800F4003000900198401C019000985B
:102B400018B90198B0F5A06FF1D16248006800F49F
:102B5000003010B10120009001E0002000900098AA
:102B6000012843D15C48006840F010005A490860D1
:102B70000846006820F0030008600846006840F03E
:102B8000020008605348406852494860084640685F
:102B900048600846406840F48060486008464068E5
:102BA00020F47C1048600846406840F4E810486013
:102BB0000846006840F08070086000BF4548006823
:102BC00000F000700028F9D04248406820F003006F
:102BD000404948600846406840F00200486000BF35
:102BE0003C48406800F00C000828F9D10CBD10B535
:102BF000FFF792FF10BD10B53648006840F00100A5
:102C00003449086008464068344908403149486002
:102C100008460068324908402E49086008460068A6
:102C200020F4802008600846406820F4FE004860D8
:102C30004FF41F008860FFF7DAFF4FF0006029496A
:102C4000086010BD10B5002100200022214B5B68F8
:102C500003F00C0121B1042906D0082928D107E08E
:102C6000214B224C236027E01F4B204C236023E0A4
:102C7000184B5B6803F47010164B5B6803F48032EA
:102C8000022303EB904022B9194B4343174C2360B6
:102C90000DE0104B5B6803F4003323B1144B434346
:102CA000124C236003E0104B4343104C236003E0BD
:102CB0000D4B0E4C236000BF00BF064B5B68C3F397
:102CC00003130C4CE15C094B1B68CB40074C2360A1
:102CD00010BD000000100240002002400000FFF87C
:102CE000FFFFF6FE08ED00E000127A00A0030020CE
:102CF00000093D00A403002006488047064800471D
:102D0000FEE7FEE7FEE7FEE7FEE7FEE7FEE7FEE79B
:102D1000FEE7FEE7F72B0008ED0000084FF0E0218A
:102D2000096921F004014FF0E0221161C21700EBA4
:102D30005272C2F3C702234B1A701946097801EB8D
:102D40004102C2EBC1114FF6FF7202EAC1011E4AF5
:102D50001180704701461C4A12884A434FF0E02315
:102D60005A6100229A6101221A6100BF4FF0E022ED
:102D7000106900F001021AB100F48032002AF5D087
:102D800000224FF0E0231A619A61704701460D4A14
:102D900012784A434FF0E0235A6100229A610122DF
:102DA0001A6100BF4FF0E022106900F001021AB171
:102DB00000F48032002AF5D000224FF0E0231A619F
:102DC0009A617047B4030020B6030020014600BF9B
:102DD000704700BF4F4A128802F04002002AF9D023
:102DE000C2B24C4B1B1D1A80704710B586B004460A
:102DF000012144F20400FEF719FD4FF40070ADF814
:102E0000140003208DF8160018208DF8170005A96E
:102E10004148FEF74FFA4FF48060ADF814000420EB
:102E20008DF8170005A93C48FEF744FA25208DF8D7
:102E3000000003208DF801008DF8020001208DF8BC
:102E400003006846FEF7DFF801940020ADF80800A3
:102E5000ADF80A00ADF80C00ADF810000C20ADF88C
:102E60000E0001A92B48FFF796FC012240F22551E4
:102E70002848FFF728FD01212648FFF718FD06B076
:102E800010BD2449091D088000BF2249098801F0AE
:102E900040010029F9D0704710B540F225511D4876
:102EA000FFF7F6FD10B31B48FFF772FDC4B21B48D5
:102EB000008800F40040C8B91848008800F4804039
:102EC00060B10A2C03D000201449088020E0134888
:102ED000008840F400401149088019E00D2C06D10B
:102EE0000E48008840F480400C49088010E00B48F0
:102EF0000088C0F30D000A490C5408480088401CA3
:102F00000649088008460088C72801DD002008809F
:102F100010BD00000038014000080140BC03002043
:102F20004C04002030B50B4601460020202201242D
:102F300009E021FA02F59D4205D303FA02F5491B87
:102F400004FA02F52844151EA2F10102F1DC30BD9D
:102F5000064C074D06E0E06840F0010394E80700E6
:102F600098471034AC42F6D3FDF7C4F8AC390008EA
:102F7000CC39000870B58C1810F8015B15F0070308
:102F800001D110F8013B2A1106D110F8012B03E002
:102F900010F8016B01F8016B5B1EF9D12B0705D40A
:102FA0000023521E0DD401F8013BFAE710F8013B53
:102FB000CB1A921C03E013F8015B01F8015B521E6F
:102FC000F9D5A142D8D3002070BD00000FB4054B45
:102FD00010B503A9044A029800F02CF810BC5DF863
:102FE00014FB0000D32D0008B80300200FB4084BD9
:102FF00010B504A902AA039800F01CF8044602A91F
:10300000002000F0C1F8204610BC5DF814FB000061
:103010008931000802E008C8121F08C1002AFAD14D
:1030200070477047002001E001C1121F002AFBD148
:10303000704700002DE9FF4F89B09B4604460025EC
:1030400006E025280BD05A460B999047641C6D1C4E
:1030500020780028F5D10DB02846BDE8F08F002774
:10306000B8460122474900E0074314F8013F203BDE
:1030700002FA03F00842F7D120782E2819D114F86B
:10308000010F47F004072A280ED06FF02F02207896
:10309000A0F1300109290CD808EB880102EB4101AD
:1030A00000EB0108641CF2E70A98641C50F8048BDA
:1030B0000A9020780028CED0642808D0692806D04D
:1030C00075281ED05A460B9990476D1C58E00A99F6
:1030D0004FF00A0901C90A91002802DA40422D2165
:1030E00002E0390504D52B218DF82010012103E0E1
:1030F000F90704D02021F7E78A4608AE0DE0002149
:10310000FAE70A994FF00A0901C90A91F7E7494617
:10311000FFF708FF303106F8011D0028F7D1ADEBAD
:10312000060000F12009780701D44FF00108C845D6
:1031300002DDA8EB090000E000208046002706E041
:1031400008A85A46C05D0B9990476D1C7F1C5745D7
:10315000F6DB04E030205A460B9990476D1CB8F11D
:103160000001A8F10108F5DC05E016F8010B5A464C
:103170000B9990476D1CB9F10001A9F10109F4DC2C
:10318000641C65E7092801000A68531C0B60107075
:1031900070470000000000000000002F0000000049
:1031A0000700070000147F147F1400242A7F2A12CE
:1031B00000626408132300364955225000000503BD
:1031C000000000001C224100000041221C000014ED
:1031D000083E08140008083E0808000000A060002F
:1031E00000080808080800006060000000201008BF
:1031F0000402003E5149453E0000427F400000422B
:1032000061514946002141454B31001814127F108D
:10321000002745454539003C4A49493000017109BC
:10322000050300364949493600064949291E000070
:103230003636000000005636000000081422410017
:103240000014141414140000412214080002015147
:10325000090600324959513E007C1211127C007F50
:1032600049494936003E41414122007F4141221CEB
:10327000007F49494941007F09090901003E414950
:10328000497A007F0808087F0000417F4100002044
:1032900040413F01007F08142241007F40404040F0
:1032A000007F020C027F007F0408107F003E414136
:1032B000413E007F09090906003E4151215E007F21
:1032C000091929460046494949310001017F010198
:1032D000003F4040403F001F2040201F003F40383B
:1032E000403F00631408146300070870080700617A
:1032F0005149454300007F41410000552A552A5558
:10330000000041417F0000040201020400404040EF
:103310004040000001020400002054545478007F13
:103320004844443800384444442000384444487FEA
:1033300000385454541800087E0901020018A4A44F
:10334000A47C007F080404780000447D4000004015
:1033500080847D00007F102844000000417F4000F1
:10336000007C04180478007C080404780038444485
:10337000443800FC242424180018242418FC007C61
:103380000804040800485454542000043F444020DA
:10339000003C4040207C001C2040201C003C403071
:1033A000403C004428102844001CA0A0A07C0044FD
:1033B00064544C441414141414140000000000004D
:1033C00000000000000000000000000000F8000005
:1033D0000000000000333000000000100C06100C4C
:1033E0000600000000000000000040C07840C078E7
:1033F0004000043F04043F040400007088FC0830CF
:103400000000001820FF211E0000F008F000E01866
:10341000000000211C031E211E0000F0088870001F
:1034200000001E2123241927211010160E00000071
:1034300000000000000000000000000000E0180490
:103440000200000000071820400000020418E000FD
:1034500000000040201807000000404080F080403D
:1034600040000202010F01020200000000F0000013
:1034700000000101011F0101010000000000000027
:10348000000080B07000000000000000000000009C
:103490000000000101010101010100000000000025
:1034A00000000030300000000000000000008060DC
:1034B0001804006018060100000000E01008081061
:1034C000E000000F102020100F00001010F8000086
:1034D00000000020203F202000000070080808881D
:1034E00070000030282422213000003008888848ED
:1034F00030000018202020110E000000C02010F81D
:10350000000000070424243F240000F808888808ED
:1035100008000019212020110E0000E010888818F2
:103520000000000F112020110E0000380808C838D4
:1035300008000000003F00000000007088080888B4
:103540007000001C222121221C0000E0100808103D
:10355000E0000000312222110F00000000C0C00076
:10356000000000000030300000000000008000007B
:10357000000000008060000000000000804020107B
:103580000800000102040810200040404040404074
:1035900040000404040404040400000810204080D7
:1035A000000000201008040201000070480808080C
:1035B000F0000000003036010000C030C828E810DC
:1035C000E0000718272423140B000000C038E00097
:1035D0000000203C23020227382008F888888870E1
:1035E0000000203F202020110E00C03008080808ED
:1035F0003800071820202010080008F808080810D4
:10360000E000203F202020100F0008F88888E808FC
:103610001000203F20202320180008F88888E808A0
:103620001000203F200003000000C03008080838C8
:10363000000007182020221E020008F808000008D9
:10364000F808203F210101213F20000808F8080860
:1036500000000020203F2020000000000808F8089B
:103660000800C08080807F00000008F888C028180B
:103670000800203F20012638200008F8080000003C
:103680000000203F20202020300008F8F800F8F843
:103690000800203F003F003F200008F830C000082D
:1036A000F808203F200007183F00E0100808081025
:1036B000E0000F10202020100F0008F8080808086C
:1036C000F000203F210101010000E010080808106F
:1036D000E0000F18242438504F0008F888888888A4
:1036E0007000203F2000030C30200070880808087C
:1036F00038000038202121221C00180808F808088A
:1037000018000000203F2000000008F80800000812
:10371000F808001F202020201F000878880000C81B
:103720003808000007380E010000F80800F800080B
:10373000F800033C0700073C030008186880806815
:10374000180820302C03032C30200838C800C83853
:1037500008000000203F2000000010080808C838BA
:1037600008002038262120201800000000FE020258
:1037700002000000007F40404000000C30C000000C
:103780000000000000010638C00000020202FE0036
:103790000000004040407F000000000004020202E0
:1037A0000400000000000000000000000000000015
:1037B0000000808080808080808000020204000001
:1037C00000000000000000000000000080808080F9
:1037D00000000019242222223F2008F800808000E7
:1037E0000000003F112020110E00000000808080AA
:1037F0000000000E112020201100000000808088B1
:10380000F800000E112020103F20000080808080F2
:103810000000001F222222221300008080F08888EE
:1038200088180020203F2020000000008080808039
:103830008000006B94949493600008F8008080806E
:103840000000203F210000203F20008098980000C9
:1038500000000020203F20200000000000809898F9
:10386000000000C08080807F000008F80000808099
:103870008000203F24022D302000000808F80000BE
:1038800000000020203F2020000080808080808079
:103890008000203F20003F20003F8080008080800B
:1038A0000000203F210000203F2000008080808019
:1038B0000000001F202020201F008080008080004A
:1038C000000080FFA12020110E00000000808080F9
:1038D0008000000E112020A0FF808080800080806A
:1038E000800020203F212000010000008080808097
:1038F00080000033242424241900008080E080808C
:1039000000000000001F20200000808000000080D8
:103910008000001F202020103F2080808000008039
:10392000808000010E300806010080800080008049
:1039300080800F300C030C300F00008080008080EE
:1039400080000020312E0E31200080808000008019
:10395000808080818E7018060100008080808080C9
:1039600080000021302C2221300000000000807CEB
:10397000020200000000003F404000000000FF0085
:10398000000000000000FF0000000002027C800038
:1039900000000040403F000000000006010102025C
:1039A000040400000000000000000000CC39000802
:1039B00000000020C4030000742F0008583B0008DA
:1039C000C40300205405000024300008611BF010DF
:1039D000012AFF050215F01B0F04012AFF0502133F
:1039E0000F18094040405F55555575041A5F0C0982
:1039F0001121080C11200F094989790909090F20A3
:103A00001F112FFE02424ACA4A0304134202FE005B
:103A10000E14FF40504C4340404F50505C40FF1B41
:103A2000F888012AFF050215F81B1F08012A7F20CC
:103A30000B109F80E23B808201000916E2A2928A6D
:103A400086828080041840807F172424A4FEA3224D
:103A50001B22CCAA011415080601FF2B0104010545
:103A600011FF0202025808101010FF109008C30244
:103A70001108080F100444827F01808040432C10FD
:103A8000284681A018094040484848C8784F060594
:103A900015484840400009150312122222528A0696
:103AA0003C106080BA19040B11C030FB1E4040432B
:103AB000407F061C7F424106094FC02941080B1177
:103AC00010D030FF30D0121C10101F3D080402012E
:103AD0009E0D1101020408211116FE222222FE076A
:103AE00012FE828292A29E100880601F0242827F94
:103AF0000F11FF402F102C438011000B1490884CA5
:103B000057A42454548C84180801018042221A07B7
:103B1000441D423E01018AF9E1000D14E4242CB455
:103B2000252624B42C24E404180AFF02011E1212D4
:103B3000121E41860112380920190101235955022C
:103B40006C2C020304041009060708090204060885
:083B50007BA24A526918011022
:04000005080000ED02
:00000001FF
