:100AA600253566000003050911FF118905C300E01D
:100AB60000F000F8000000000000004428FF11AA22
:100AC60044000000000000000000000000000000DC
:100AD6000000000000000000000000000000000010
:100AE6000000000000000000000000000000000000
:100AF600000000000000000000000000000083016C
:100B06003844829292740183000000000000007C49
:100B160044FF017D7D7D017D7D7D7D017D7D7D7D2A
:100B26007D01FF000000000000010001000100013E
:100B360000010001000000000000000000010100AB
:100B4600000000000000000000000000000000009F
:100B5600000000000000000000000000000000008F
:100B6600000000000000000000000000000000007F
:100B7600000000000000000000000000000001016D
:100B8600000000000000010100000000000000005D
:100B96000001010101010101010101010101010140
:100BA600010101000000000000000000000000003C
:100BB600000000000000000000000000000000002F
:100BC6003F3F0303F31311111111111101F11161CB
:100BD60081010101816111F1010101014141F1012F
:100BE60001010101C1211111111121C101010101EF
:100BF6004141F1010101010101010101011111113F
:100C06001111D33303033F3F000000000000000032
:100C160000000000000000000000000000000000CE
:100C260000000000000000000000000000000000BE
:100C360000000000000000000000000000000000AE
:100C4600E0E000007F01010101010100007F0000DA
:100C5600010618060100007F0000000040407F40AA
:100C6600400000001F2040404040201F00000000C0
:100C760040407F404000000000600000000040301F
:100C86000C0300000000E0E000000000000000008F
:100C9600000000000000000000000000000000004E
:100CA600000000000000000000000000000000003E
:100CB600000000000000000000000000000000002E
:100CC6000707060606060404048444444484040410
:100CD600844444448404040484C40404040484440E
:100CE60044448404040404048444444484040404FE
:100CF600040484444444840404844444448404042E
:100D060004040606060607070000000000000000AF
:100D160000000000000000000000000000000000CD
:100D260000000000000000000000000000000000BD
:100D360000000000000000000000000000000000AD
:100D4600000000000000000000101814121100003E
:100D56000F1010100F000000101F100000000810E8
:100D660012120D00001800000D1212120D000018CC
:100D760000001018141211000010181412110000AF
:100D8600000000000000000000000000000000005D
:100D9600000000000000000000000000000000004D
:100DA600000000000000000000000000000000003D
:100DB600000000000000000000000000000000002D
:100DC600000000000000000000000000000000001D
:100DD600000000000000000000000000000000000D
:100DE60080808080808080800000000000000000FD
:100DF60000000000000000000000000000000000ED
:100E060000000000000000000000000000000000DC
:100E160000000000000000000000000000000000CC
:100E260000000000007F030C300C037F00003854E4
:100E3600545800007C04047800003C40407C0000CC
:100E4600000000000000000000000000000000009C
:100E5600000000000000000000000000000000008C
:100E6600FFAAAAAA280800FF000000000000000050
:100E7600000000000000000000000000000000006C
:100E8600000000000000000000000000007F030CCE
:100E9600300C037F0000264949493200007F0204D6
:100EA60008107F000003050911FF118905C300E042
:100EB60000F000F8000000000000004428FF11AA1E
:100EC60044000000000000000000000000000000D8
:100ED600000000000000000000000000000000000C
:100EE60000000000000000000000000000000000FC
:100EF6000000000000000000000000000000830168
:100F06003844829292740183000000000000007C45
:100F160044FF017D7D7D7D017D7D7D7D017D7D7D26
:100F26007D01FF000000000000010001000100013A
:100F360000010001000000000000000000010100A7
:100F4600000000000000000000000000000000009B
:100F5600000000000000000000000000000000008B
:100F6600000000000000000000000000000000007B
:100F76000000000000000000000000000000010169
:100F86000000000000000101000000000000000059
:100F9600000101010101010101010101010101013C
:100FA6000101010000000000000000000000000038
:100FB600000000000000000000000000000000002B
:100FC600000000F80808080808080800F8186080FB
:100FD600000000806018F80000002020F8000000E3
:100FE600000000E0100808080810E00000002020BB
:100FF600F8000000000000000000000000080808DB
:1010060008088868180000000000000000000000C2
:1010160000000000000000000000000000000000CA
:1010260000000000000000000000000000000000BA
:1010360000000000000000000000000000000000AA
:101046000000007F01010101010100007F00000195
:101056000618060100007F00000040407F40400067
:101066000000001F2040404040201F00000040407C
:101076007F404000000000006000000000000060AB
:10108600180601000000000000000000000000003B
:10109600000000000000000000000000000000004A
:1010A600000000000000000000000000000000003A
:1010B600000000000000000000000000000000002A
:1010C60000000000000000000040202020C00000BA
:1010D600E0202020E000000040E00000000060204A
:1010E6002020E00000000000E0202020E0000000BA
:1010F600000040202020C0000040202020C000002A
:1011060000000000000000000000000000000000D9
:1011160000000000000000000000000000000000C9
:1011260000000000000000000000000000000000B9
:1011360000000000000000000000000000000000A9
:101146000000000000000000000C0A0A090C000064
:101156000F0808080F000000080F080000000C0820
:1011660009090E00000C00000F0909090F00000C08
:1011760000000C0A0A090C00000C0A0A090C0000FF
:101186000000000000000000000000000000000059
:101196000000000000000000000000000000000049
:1011A6000000000000000000000000000000000039
:1011B6000000000000000000000000000000000029
:1011C6000000000000000000000000000000000019
:1011D6000000000000000000000000000000000009
:1011E60080808080808080800000000000000000F9
:1011F60000000000000000000000000000000000E9
:1012060000000000000000000000000000000000D8
:1012160000000000000000000000000000000000C8
:1012260000000000007F030C300C037F00003854E0
:10123600545800007C04047800003C40407C0000C8
:101246000000000000000000000000000000000098
:101256000000000000000000000000000000000088
:10126600FFAAAAAA280800FF00000000000000004C
:101276000000000000000000000000000000000068
:10128600000000000000000000000000007F030CCA
:10129600300C037F0000264949493200007F0204D2
:0412A60008107F00AD
:04271D000213001E85
:0B26F400EF1FAC0670011E4C70F622B8
:1021E100E4F52D752D14FBFDAF2D1220E3E52D2413
:1021F10012FF7B01E4FD1220E3E52D2424FF7B0285
:10220100E4FD1220E3E52D2436FF7B03E4FD1220DB
:10221100E3E52D2448FF7B04E4FD1220E37B057DEB
:1022210002E4FF1220E37B067D027F121220E37B92
:10223100077D04E4FF1220E37B087D047F12122056
:10224100E37B057D06E4FF1220E37B097D067F1217
:032251000220E385
:101D9400E4F52AF529F528F527F52BF52C7594405B
:101DA400759340122648121E9C12244F1221E112F0
:101DB4002254AC06AD07E41215C6E4FBFA79207888
:101DC400411214AB8F2A8E298D288C27AC13AD14A5
:101DD400E41215C6AB2AAA29A928A8271215484037
:101DE40004C2848002D2847530FF75310A7532A62C
:101DF400852A368529358528348527337B007A0062
:101E04007922121981E4F526122614AB07AA067565
:101E140031037532107D047F241221677B007A0020
:101E240079227532107D027F2412232C75310375BB
:101E34003210AB14AA137D067F2412216720A41448
:101E44007F607EEA1226F420A41F0514E51470199D
:101E54000513801520A0127F607EEA1226F420A0CC
:101E640008E514151470021513208619052CE52CA9
:101E74007002052BC3943CE52B9400400312270801
:101E8400D280021DB3208603021DB3E4F52BF52C8A
:081E9400120003C280021DB31D
:1026B800438901758CFF758AA4D2AFD2A9D28C2226
:102648001226B8E4F5D8F5E9F5F975D90475EAEF75
:0926580075FAEF75DA42D2DE22B8
:0700030075EAF975FAF92214
:0727080075EAEF75FAEF22FC
:03000B0002270FBA
:07270F00758CFF758AA432EE
:10000E000000000000000000002F000000000700AC
:10001E00070000147F147F1400242A7F2A12006226
:10002E0064081323003649552250000005030000D2
:10003E0000001C224100000041221C000014083E5A
:10004E0008140008083E0808000000A06000000820
:10005E000808080800006060000000201008040274
:10006E00003E5149453E0000427F40000042615132
:10007E004946002141454B31001814127F100027CC
:10008E0045454539003C4A4949300001710905038F
:10009E0000364949493600064949291E00003636C0
:1000AE000000000056360000000814224100001423
:1000BE001414141400004122140800020151090600
:1000CE0000324959513E007C1211127C007F494981
:1000DE004936003E41414122007F4141221C007FB2
:1000EE0049494941007F09090901003E4149497AC0
:1000FE00007F0808087F0000417F4100002040413A
:10010E003F01007F08142241007F40404040007FA5
:10011E00020C027F007F0408107F003E4141413EE9
:10012E00007F09090906003E4151215E007F091931
:10013E0029460046494949310001017F0101003F2E
:10014E004040403F001F2040201F003F4038403FAE
:10015E000063140814630007087008070061514912
:10016E00454300007F41410000552A552A550000A5
:10017E0041417F0000040201020400404040404023
:10018E00000001020400002054545478007F4844BB
:10019E00443800384444442000384444487F0038F2
:1001AE005454541800087E0901020018A4A4A47C1B
:1001BE00007F080404780000447D400000408084E5
:1001CE007D00007F102844000000417F4000007C2D
:1001DE0004180478007C0804047800384444443839
:1001EE0000FC242424180018242418FC007C080485
:1001FE00040800485454542000043F444020003C5E
:10020E004040207C001C2040201C003C4030403CE4
:10021E00004428102844001CA0A0A07C0044645474
:10022E004C441414141414140000000000000000B8
:10023E000000000000000000000000F800000000B8
:10024E00000000333000000000100C06100C0600F9
:10025E00000000000000000040C07840C078400060
:10026E00043F04043F040400007088FC08300000C2
:10027E00001820FF211E0000F008F000E01800001A
:10028E0000211C031E211E0000F0088870000000D3
:10029E001E2123241927211010160E000000000025
:1002AE000000000000000000000000E01804020042
:1002BE00000000071820400000020418E0000000B3
:1002CE000040201807000000404080F080404000B1
:1002DE000202010F01020200000000F00000000007
:1002EE000101011F010101000000000000000000DB
:1002FE0080B0700000000000000000000000000050
:10030E0000010101010101010000000000000000D8
:10031E000030300000000000000000008060180473
:10032E00006018060100000000E010080810E00050
:10033E00000F102020100F00001010F80000000019
:10034E000020203F20200000007008080888700060
:10035E0000302824222130000030088888483000E0
:10036E000018202020110E000000C02010F8000000
:10037E0000070424243F240000F808888808080099
:10038E000019212020110E0000E0108888180000AE
:10039E00000F112020110E0000380808C838080080
:1003AE000000003F00000000007088080888700000
:1003BE00001C222121221C0000E010080810E00081
:1003CE000000312222110F00000000C0C00000000A
:1003DE00000000303000000000000080000000002F
:1003EE000000806000000000000080402010080027
:1003FE0000010204081020004040404040404000F0
:10040E0004040404040404000008102040800000CA
:10041E000020100804020100007048080808F000CF
:10042E000000003036010000C030C828E810E0009F
:10043E000718272423140B000000C038E00000002A
:10044E00203C23020227382008F888888870000094
:10045E00203F202020110E00C03008080808380068
:10046E00071820202010080008F808080810E000DF
:10047E00203F202020100F0008F88888E808100080
:10048E00203F20202320180008F88888E808100054
:10049E00203F200003000000C0300808083800008C
:1004AE0007182020221E020008F808000008F8088D
:1004BE00203F210101213F20000808F80808000014
:1004CE000020203F2020000000000808F808080047
:1004DE00C08080807F00000008F888C028180800BF
:1004EE00203F20012638200008F8080000000000F8
:1004FE00203F20202020300008F8F800F8F80800EF
:10050E00203F003F003F200008F830C00008F808E8
:10051E00203F200007183F00E01008080810E000F8
:10052E000F10202020100F0008F808080808F0000F
:10053E00203F210101010000E01008080810E00032
:10054E000F18242438504F0008F8888888887000C7
:10055E00203F2000030C3020007088080808380067
:10056E000038202121221C00180808F8080818005D
:10057E000000203F2000000008F808000008F808DE
:10058E00001F202020201F000878880000C838088F
:10059E00000007380E010000F80800F80008F80007
:1005AE00033C0700073C03000818688080681808A1
:1005BE0020302C03032C30200838C800C83808001F
:1005CE000000203F2000000010080808C83808006E
:1005DE002038262120201800000000FE0202020012
:1005EE000000007F40404000000C30C000000000C2
:1005FE00000000010638C00000020202FE000000EA
:10060E00004040407F00000000000402020204008F
:10061E0000000000000000000000000000000000CC
:10062E0080808080808080800002020400000000B4
:10063E0000000000000000000000808080800000AC
:10064E000019242222223F2008F80080800000009A
:10065E00003F112020110E0000000080808000005D
:10066E00000E112020201100000000808088F8006C
:10067E00000E112020103F2000008080808000009E
:10068E00001F222222221300008080F08888881802
:10069E000020203F2020000000008080808080000D
:1006AE00006B94949493600008F8008080800000A2
:1006BE00203F210000203F2000809898000000007D
:1006CE000020203F202000000000008098980000AD
:1006DE0000C08080807F000008F8000080808000CD
:1006EE00203F24022D302000000808F800000000F2
:1006FE000020203F202000008080808080808000AD
:10070E00203F20003F20003F80800080808000003E
:10071E00203F210000203F200000808080800000CC
:10072E00001F202020201F008080008080000000FD
:10073E0080FFA12020110E0000000080808080002C
:10074E00000E112020A0FF8080808000808080001D
:10075E0020203F212000010000008080808080004A
:10076E000033242424241900008080E080800000BF
:10077E000000001F2020000080800000008080000C
:10078E00001F202020103F2080808000008080806D
:10079E0000010E30080601008080008000808080FD
:1007AE000F300C030C300F00008080008080800022
:1007BE000020312E0E31200080808000008080804D
:1007CE0080818E70180601000080808080808000FD
:1007DE000021302C2221300000000000807C02021B
:1007EE0000000000003F404000000000FF0000003D
:1007FE0000000000FF0000000002027C80000000EC
:10080E000040403F00000000000601010202040407
:10081E000000000000000000109453321E325210EF
:10082E00007E4242427E00000000000000000000F8
:10083E000000000000000000000000FF4949494987
:10084E00494949FF000000000000000000000000C0
:10085E00000000000000000008CC4A49484ACC18AD
:10086E00007F88888482E000000000000000000005
:10087E00000000000000000000FF121252927F00E4
:10088E00007E88888482E0000000000000000000E6
:10089E000000000000000000202020FF202010900B
:1008AE0011161010D0100000000000000000000013
:1008BE0000000000000000001030100F08484041FA
:1008CE005E40704E414040000000000000000000FD
:1008DE000000000000000000202020FF202202FE69
:1008EE000202625A46C00000000000000000000034
:1008FE0000000000000000000818080744348E8134
:10090E0046281028468180000000000000000000EC
:10091E0000000000000000001090FF9010E2222A5C
:10092E002AF22A2622E0000000000000000000004B
:10093E0000000000000000000601FF0001FF090991
:10094E00097F0949897F00000000000000000000B7
:10095E0000000000000000001060028C0000FE92FB
:10096E0092929292FE000000000000000000000033
:10097E00000000000000000004047E01407E4242A0
:10098E007E427E42427E40000000000000000000D9
:10099E0000000000000000000000FC242424FC25C0
:1009AE002624FC2424240400000000000000000083
:1009BE00000000000000000040308F80844C552560
:1009CE002525554C808080000000000000000000AE
:1009DE000000000000000000100C44241484452682
:1009EE004484142444140C00000000000000000095
:1009FE000000000000000000040402FE45444444D0
:100A0E00444445FE02040400000000000000000003
:100A1E000000000000000000202020BEAAAAAAAA02
:100A2E00AAAAAABE2020200000000000000000009C
:100A3E000000000000000000008080AFAAAAAAFFFC
:100A4E00AAAAAAAF808000000000000000000000EB
:100A5E00000000000000000000F80122A0A2A22267
:100A6E00FE22AA3202FE000000000000000000007C
:100A7E00000000000000000000FF0010130A4B20D1
:100A8E00170C133880FF000000000000000000006B
:080A9E00000000000000000050
:1025E000EF4E60157D087C07ED1DAA0470011C4AA2
:0925F00070F6EF1F70EA1E80E78F
:0125F90022BF
:0926FF00D295D296C296C2952232
:07271600D295C296D2962273
:0B26C8001224BA1226D3AF041224BA69
:0526D300D295C2952222
:0724B300AC071226FF7F7841
:1024BA00C295E4FEEEC3940874809480501BAD0765
:1024CA00530580ED64807004D2968002C296EF258F
:0924DA00E0FFD295C2950E80DBF3
:0124E30022D6
:0E26D8001224B31226D3E4FF1226C8022716DE
:0E26E6001224B31226D37F401226C8022716F4
:10254300EF24B0FFEE33FEE4FDFC12255EE4FDFC58
:0B255300FFFE12255E7F10E4FDFCFE81
:10255E00AB07AA06ED4C60030226E6AF031226D89F
:01256E00224A
:0223E7008F1550
:1023E900E4F9E9FF7E00C3940874809480502312B5
:1023F9002543E4F516C3E516948074809480500F44
:10240900AF157E007D017C0012255E051680E60968
:0224190080D071
:01241B00229E
:1025C200D3EF9400EE940040147D657C18ED1D70ED
:0D25D200011CED4C70F7EF1F70E61E80E35A
:0125DF0022D9
:1025FA00EF1FAA0670011E4A600FE4FDEDC3947B2B
:09260A007480948050EA0D80F305
:0126130022A4
:10256F00A907ED24B0FFE433FEE4FDFC12255EE97C
:10257F0054F0C4540F7E004410FFE4FDFC12255E9E
:0C258F00E9540FFF7E00E4FDFC02255E15
:102679007F8D12255AE4FDFC7F14FE12255EE4FDD0
:07268900FC7FAFFE02255E9D
:1026A700E4FDFC7F8D122554E4FDFC7FAEFE022580
:0126B7005EC4
:10244F00E4F9E9FF7E00C39408748094805022124F
:10245F002543E4F52DC3E52D948074809480500EB0
:10246F007D017C00E4FFFE12255E052D80E70980CB
:01247F00D18B
:012480002239
:10241C00E4F9E9FF7E00C394087480948050231281
:10242C002543E4F519C3E519948074809480500F0A
:10243C007D017C007F017E0012255E051980E60976
:02244C0080D03E
:01244E00226B
:041F7C008F368D37D8
:101F8000E4F53AF9EB24E0F53AD3EF947F748094CA
:101F9000804007E4F53605370537E5396410707A77
:101FA000AD37AF3612256FE4F9E9C3940874809415
:101FB00080502975F010E53AA429F582E435F0F552
:101FC00083E5822436F582E5833402F583E493FFCA
:101FD0007E007D017C0012255E0980CDE53704FD81
:101FE000AF3612256FE4F9E9C394087480948050E9
:101FF0006575F010E53AA429F582E435F0F583E53E
:1020000082243EF582E5833402F583E493FF7E006B
:102010007D017C0012255E0980CDAD37AF361225DB
:102020006FE4F9E9C3940674809480502975F00632
:10203000E53AA4240EF582E5F03400F583E5822923
:10204000F582E43583F583E493FF7E007D017C0017
:0620500012255E0980CD9F
:012056002267
:042661008F36A90502
:102665007F017E00AD0119ED6009AD367C001218C1
:032675007A80F177
:01267800223F
:082167008F2D8D2E8A2F8B3085
:10216F00E4F535F533E533C395315065C3E5319566
:10217F003314FD7F0A122661AC2FAD30CFCDCFCEF9
:10218F00CCCE12188C7C007D0A12188C8D34E5355C
:10219F007023E53114FFE533C39F5019E5347012F6
:1021AF00E532C3138533F0A4252DFF8532397B200B
:1021BF008016753501E532C3138533F0A4252DFF45
:1021CF00E5342430FB853239AD2E121F7C05338068
:0121DF00946B
:0121E00022DC
:0A232C008F2D8D2E8B2F8A30893102
:10233600E4F533AB2FAA30A93185338275830012B9
:10234600183BFB6024853239AD2EAF2D121F7C74ED
:1023560008252DF52DD39478748094804007E4F5F4
:092366002D052E052E053380CA59
:01236F00224B
:0620E3008F2E8D2F8B30C3
:1020E900E4F53112256FE4F9E9C394107480948002
:1020F900502B75F040E530A42426F582E5F034082C
:10210900F583E58229F582E43583F583E493FF7E3F
:10211900007D017C0012255E05310980CBE52F0485
:10212900FDAF2E12256FE4F9E9C3941074809480F1
:10213900502B75F040E530A42446F582E5F03408CB
:10214900F583E58229F582E43583F583E493FF7EFF
:0D215900007D017C0012255E05310980CB60
:012166002256
:0422C3008F088B0AEB
:1022C700E4F50FF510E50B5407700BE50B1313132B
:1022D700541FF512800AE50B131313541F04F5124C
:1022E7008D12E512C3950B503BAD12AF0812256F47
:1022F700850811E511C3950A5026AB0CAA0DA90E46
:102307000510E510AE0F7002050F14F5828E8312CB
:10231700183BFF7E007D017C0012255E051180D3EE
:04232700051280BE5D
:01232B00228F
:101E9C00E4FDFC7FAEFE12254DE4FDFC7F40FE12FE
:101EAC00255EE4FDFC7FB0FE12255EE4FDFC7F8127
:101EBC00FE12255EE4FDFC7FFFFE12255EE4FDFCB8
:101ECC007FA1FE12255EE4FDFC7FA6FE12255EE4DA
:101EDC00FDFC7FA8FE12255EE4FDFC7F3FFE122573
:101EEC005EE4FDFC7FC8FE12255EE4FDFC7FD3FEA4
:101EFC0012255EE4FDFCFFFE12255EE4FDFC7FD5A1
:101F0C00FE12255EE4FDFC7F80FE12255EE4FDFCE6
:101F1C007FD8FE12255EE4FDFC7F05FE12255EE4F3
:101F2C00FDFC7FD9FE12255EE4FDFC7FF1FE12253F
:101F3C005EE4FDFC7FDAFE12255EE4FDFC7F12FE02
:101F4C0012255EE4FDFC7FDBFE12255EE4FDFC7FCA
:101F5C0030FE12255EE4FDFC7F8DFE12255EE4FD55
:101F6C00FC7F14FE12255EE4FDFC7FAFFE02255EB5
:10251400D291000000000000000000000000000054
:1025240000000000000000000000000000000000A7
:0F253400000000000000000000000000C2912223
:102481007C00AF8DEFFEAD8BE42DFFEC3EFEE4F55D
:102491008DF58BAD07AC061215C67B9A7A9979D961
:1024A100783F1213A2E4FBFA79C878421214AB0206
:0224B10015FF15
:10261400438910E4F58DF58BD2AF1225143092FD69
:0A262400D28E2092FDC28E022481A6
:10262E003F065B4F666D7D077F6F777C395E7971F4
:0A263E00BF86DBCFE6EDFD87FFEF5E
:0C237000D2907B017A007D017C007F018F
:06237C008C348D35A90729
:10238200E4FFEFC3995027E4FEEEC39535E53464CC
:1023920080F87480985014E4FDEDC39BEA6480F8E1
:0E23A20074809850030D80F10E80DE0F80D401
:0123B000220A
:10269000122370C2907B3F7D017F0612237CD29073
:0726A0007D017F0502237C90
:1024E400E4F532F533753208D3E532940074809400
:1024F40080401AC29000E53313F5331223703090F4
:0F250400034333807B08122374153280DBAF331F
:0125130022A5
:0223B1008F3269
:1023B300E4F533753308D3E5339400748094804097
:1023C30022C29000E5321392907B0F122374D290B5
:1023D300E532C313F5327B017D017F0112237C15A6
:0323E3003380D371
:0123E60022D4
:102254001226907FCC1223B17F441223B112269010
:102264007FCC1223B17FBE1223B11224E48F31122A
:1022740024E47517008F18E518751800F517E53173
:102284004218E4AC17AD181215C6E4FBFA7980784D
:102294003D1213A28F308E2F8D2E8C2DE4FFFE7DE8
:1022A400207C41AB30AA2FA92EA82D1213A2E4FB47
:0E22B400FAF9783F1212B11215FF8E178F182B
:0122C20022F9
:1012AA0002166BE86480F8E933E83360110460F0F1
:1012BA00ED33EC337009E8FCE9FDEAFEEBFF2204AA
:1012CA0060DED3EB9FEA9EE99DE8C2E78CF0C2F7A5
:1012DA0095F0400CE8CCF8E9CDF9EACEFAEBCFFB71
:1012EA0012163685D0F05804700320D5B3E804707E
:1012FA00075002B2D502167592D5EC0460F7E4CC19
:10130A00C0E0C398F8603B94186008400DD0E0FB39
:10131A0002164DE4FBFAC9FC8028E830E406E4C969
:10132A00FBE4CAFCE830E305E4C9CACBFCE854078D
:10133A006010F8C3E913F9EA13FAEB13FBEC13FC98
:10134A00D8F130F52FC3E49CFCEF9BFFEE9AFEED3B
:10135A0099FDD0E0FBEF4E4D4C701222DB030216D2
:10136A0072EC2CFCEF33FFEE33FEED33FDED30E78C
:10137A00EB02164DEF2BFFEE3AFEED39FDD0E0FB06
:10138A0050130BBB0003021675ED13FDEE13FEEFAF
:08139A0013FFEC13FC02164DD9
:1013A200EC4D6011E8497017ED33EC3304600DE445
:1013B200FCFFFEFD22E933E8330470F802166B12DB
:1013C200163658046009E4CC2481500628500902DC
:1013D2001675284003021672C0E0EB4A7044B980C9
:1013E20006D0E0FB021661EF4E701CBD8008EBFFD9
:1013F200EAFEE9FD80EBE98DF0A4FEE5F002148B34
:10140200E9CDF9EAFEEBFFEF89F0A4FCE5F0CE8925
:10141200F0A42EFFE435F0CD89F0A42DFEE435F0E2
:101422008067EF4E7005BD80D780C3EF8BF0A4AC10
:10143200F0EE8BF0A42CFCE435F0F8EF8AF0A42C4B
:10144200E5F038FCE433CB8DF0A42CFCE5F03BF85E
:10145200EE8AF0A42CFCE5F038F8E433CF89F0A44E
:101462002CFCE5F038CF3400CE89F0A42FFFE5F054
:101472003EFEE433C98DF0A42EFEE5F039CD8AF0AC
:10148200A42FFFE5F03EFEE43DFD33D0E0FB500724
:101492000BBB000F021675EC2CFCEF33FFEE33FE94
:0614A200ED33FD02164DC2
:1014A800021675EC5D046005E85904700302166BBA
:1014B800121636580460F6EC4860F2EC7004FDFE33
:1014C800FF22C860DB2481C85009C3986002500617
:1014D8000216729850CAF582E9294B4A7005AB8208
:1014E80002166175F0007C1A7880C3EF9BEE9AEDC6
:1014F80099400DC3EF9BFFEE9AFEED99FDE842F08F
:10150800DC23ACF0D0E0FFD0E0FED0E0FDAB8220E1
:10151800E7101BEB60BAEC2CFCEF33FFEE33FEED6B
:1015280033FD02164DE803F830E705C0F075F0000A
:10153800EF2FFFEE33FEED33FD40B830E7C280AA4F
:1015480074F8CC6480CCC86480C8F58204604FC34A
:10155800EB9FF5F0EA9E42F0E99D42F0E89C45F0E9
:10156800603C501DE5825FFFE582D313CB5BCBF473
:101578002B5582FB50280ABA002409B9002008809C
:101588001DE5825BFBE582D313CF5FCFF4C3132F36
:101598005582FF50090EBE00050DBD00010CC3EBBE
:1015A8009FF5F0EA9E42F0E99D42F0E89C45F06024
:0915B80007CC4820E701B3EC2246
:1015C10075F020800E75F010800575F0087D007EA5
:1015D100007F003392D530D5031218E1EC3340106F
:1015E100EF33FFEE33FEED33FDEC33FCD5F0ED22AE
:0E15F100E5F0247EA2D513CC92E7CDCEFF22EA
:1015FF00EDD2E7CD33EC3392D524814006E4FFFEE4
:10160F00FDFC22FCE4CFCECDCC24E0501174FF8042
:10161F00EDC3CC13CCCD13CDCE13CECF13CF0470DF
:07162F00F030D5DE0218E1E6
:10192500E5442430F8E6054422782D300702783066
:10193500E475F0011218EF0218222000EB7F2ED279
:10194500008018EF540F2490D43440D4FF30040B9A
:10195500EF24BFB41A0050032461FFE5456002156A
:10196500450548E5487002054730070D782DE475B3
:10197500F0011218EFEF02186802259B7403D207D5
:101985008003E4C207F5448B2D8A2E892FE4F545A3
:10199500F547F548E54560077F2012196080F57524
:1019A50046FFC201C200C202C203C205C206C20886
:1019B50012192EFF700D3007057F00121971AF48FF
:1019C500AE4722B4255FC2D5C20412192EFF24D01A
:1019D500B40A00501A75F00A784530D50508B6FFE7
:1019E5000106C6A426F620D5047002D20380D924A8
:1019F500CFB41A00EF5004C2E5D204021C5ED20136
:101A050080C6D20080C0D20280BCD2D580BAD205B1
:101A150080B47F201219602002077401B54500408B
:101A2500F1121925FF121960021999D208D2068000
:101A350095121925FB121925FA121925F94A4B7029
:101A45000679557A1D7BFF20022EE545602A7E002A
:101A55008E8275830012183B60060EEE654670F0A7
:101A6500C2D5EBC0E0EAC0E0E9C0E0EE121CBED092
:101A7500E0F9D0E0FAD0E0FB121822FF60AAEBC033
:101A8500E0EAC0E0E9C0E0121960D0E02401F9D035
:101A9500E03400FAD0E0FBE5460460DCD546D980A9
:101AA50087D20280A2121CA160F7E54670010412DC
:101AB5001680A946600DE546600914F546121D48D5
:101AC500EF60F3EA30E702F404C3995077EAF425AE
:101AD500460430E701E404F546800D121CA160C1FF
:101AE500EA05462546121680EA7843F630E701E412
:101AF500254604D5460420050114121CBEE4C0E0A9
:101B0500121D487843E6601320E70714F6121948BA
:101B1500802204F6D0E014C0E07F00121948E546A3
:101B2500600712193F1546800B30050312193FD087
:101B3500E0021999D0E00480C5121CA160A0E54619
:101B4500041216807843EAF6E54620050260010492
:051B55002404121CBE77
:101B5A0074FF04C0E0121D48121948E54620050228
:101B6A00600312193FD0E0B546E87F451219527852
:101B7A0043E67F2B30E7047F2DF404C0E01219609E
:101B8A00D0E075F00A84C0F0121949D0E012194960
:101B9A00021999791080027908C206C2088008D20F
:101BAA00D5790A8004790AC2D5E546047002F54659
:101BBA00E4FAFDFEFF121925FC7B08200113121915
:101BCA0025FD7B1030000A121925FE121925FF7B0C
:101BDA0020EC3382D592D55013C3E43000069FFF20
:101BEA00E49EFEE42001039DFDE49CFCE4CBF8C2E4
:101BFA0001EC700CCFCECDCCE824F8F870F3801746
:101C0A00C3EF33FFEE33FEED33FDEC33FCEB33FB76
:101C1A00994002FB0FD8E9EB300105F8D0E0C4483F
:101C2A00B201C0E00AEC4D4E4F78207B0070C2EA48
:101C3A00B5460040BCC0E0121CC0D0F0D0E0200184
:101C4A0004C4C0E0C4B201C0F0121949D0F0D5F002
:101C5A00EB0219991218FF1A36531B9D581A074C92
:101C6A001A03421BA14F1BA9441BA9491A1C431B57
:101C7A00AF551AE0461B3E451AAA471D75501A0B66
:101C8A002D1A0F2E1A322B1A13231A30201D5E2AF0
:101C9A0019CB4800001A2AE546B4FF037546061216
:101CAA001925FC121925FD121925FE121925FF788E
:101CBA003C0216AF790AA2D5200314300509B910DF
:101CCA00020404B9080104A2D52006025001042026
:101CDA0002689202B545005034C0E07F20300319F3
:101CEA007F30A20272067205500F121D17C202C27D
:101CFA0006C205C2087F30800F300503E9C0E01232
:101D0A001960300503D0E0F9D0E0B545CC300517AD
:101D1A007F30B9100C1219607F583004077F788021
:101D2A0003B908031219603002057F2D0219607F7A
:101D3A00202008F87F2B2006F322920280CF7F0012
:101D4A00B407005005243CF8E6FF22286E756C6C37
:101D5A002900D2011219253001F8C201784530D57F
:101D6A000108F60219CB2D504349581219252403AC
:101D7A00B405004001E4901D7093121951743A128F
:0A1D8A001951D203754504021B9D98
:10163600E9D2E7C933E833F892D5EDD2E7CD33ECFA
:0716460033FC5002B2D52273
:10164D00EC30E7100FBF000C0EBE00080DBD0004FE
:10165D000BEB6014A2D5EB13FCED92E7FD2274FFAA
:10166D00FCFDFEFF22E480F8A2D574FF13FC7D8003
:03167D00E480EF17
:10168000F920E72824F950037907E4F42402FB1831
:10169000DBFDE624FB5014E9600DE4F618E604F6E1
:0F16A000B40A08E4F6D9F57401F60A22C2D5227D
:1016AF00ED33EC3392D5FA602AB4FF33EDC2E77B0A
:1016BF00FF60067A1679D4E4227A1679DD20D504F4
:1016CF007A1679D8224E614E002B494E46002D498D
:1016DF004E4600E47A08F608DAFC7B00740722E82D
:1016EF00C0E0ECC0E0EDC0E0EEC0E0EFC0E0EA75B6
:1016FF00F010A4CAABF075F04DA42BFBE435F0FC51
:10170F00EA2410FAEB34C5FBEC34D9FCEDC2E7FF49
:10171F0075F056A4F42411C5F0F434C58FF0A42A43
:10172F00E5F03BE43CF620E7141217E2D0E0FFD0DF
:10173F00E0FED0E0FDD0E0FC1214AB8014F40412F4
:10174F0017E2D0E0FFD0E0FED0E0FDD0E0FC1213B6
:10175F00A2D0E0F8E6FAEDD2E7CD33EC332482FBEA
:10176F00E4C3CF33CFCE33CECD33CD33DBF37B07D3
:10177F0075F00A846004F6081B0AE5F0F6088FF08E
:10178F00740AA4FFACF08EF0740AA42CFEACF050D7
:10179F00010C8DF0740AA42CFDE435F0F608DBDEA5
:0317AF007407229A
:1017B2003F8000004120000042C80000447A00003F
:1017C200461C400047C35000497424004B189680C1
:1017D2004CBEBC205A0E1BCA6753C21C749DC5AEB8
:1017E200FB60065407601C2323121810EB54386068
:1017F200091217FC12180B1213A2ECF8EDF9EEFA0B
:10180200EFCB22EB12180B80F1543803241C9017F3
:10181200B2FE93FC0EEE93FD0EEE930ECE93FF22DC
:0300000002205784
:0C205700787FE4F6D8FD75814802209ED9
:10182200BB010689828A83E0225002E722BBFE02C4
:09183200E32289828A83E49322F7
:10183B00BB010CE58229F582E5833AF583E0225062
:10184B0006E92582F8E622BBFE06E92582F8E222AC
:0D185B00E58229F582E5833AF583E49322C6
:10186800BB010689828A83F0225002F722BBFE015F
:02187800F32259
:10187A00EF8DF0A4A8F0CF8CF0A428CE8DF0A42E82
:02188A00FE223C
:10188C00BC000BBE0029EF8DF084FFADF022E4CC40
:10189C00F875F008EF2FFFEE33FEEC33FCEE9DEC09
:1018AC00984005FCEE9DFE0FD5F0E9E4CEFD22ED4F
:1018BC00F8F5F0EE8420D21CFEADF075F008EF2F99
:1018CC00FFED33FD4007985006D5F0F222C398FD8A
:0518DC000FD5F0EA2227
:0E18E100C3E49FFFE49EFEE49DFDE49CFC2218
:1018EF00FAE6FB0808E6F925F0F618E6CA3AF622FA
:1018FF00D083D082F8E4937012740193700DA3A378
:10190F0093F8740193F5828883E47374029368608B
:06191F00EFA3A3A380DF8B
:10259B00EFB40A07740D1225A6740A309811A89986
:1025AB00B8130CC2983098FDA899C298B811F630A0
:0725BB0099FDC299F5992278
:10206300021D94E493A3F8E493A34003F68001F2E2
:1020730008DFF48029E493A3F85407240CC8C3337E
:10208300C4540F4420C8834004F456800146F6DF4D
:10209300E4800B010204081020408090271DE47E99
:1020A300019360BCA3FF543F30E509541FFEE49342
:1020B300A360010ECF54C025E060A840B8E493A309
:1020C300FAE493A3F8E493A3C8C582C8CAC583CA34
:1020D300F0A3C8C582C8CAC583CADFE9DEE780BEEC
:0127210000B7
:00000001FF
