:100B7E00253566000003050911FF118905C300E044
:100B8E0000F000F8000000000000004428FF11AA49
:100B9E004400000000000000000000000000000003
:100BAE000000000000000000000000000000000037
:100BBE000000000000000000000000000000000027
:100BCE000000000000000000000000000000830193
:100BDE003844829292740183000000000000007C71
:100BEE0044FF017D7D7D017D7D7D7D017D7D7D7D52
:100BFE007D01FF0000000000000100010001000166
:100C0E0000010001000000000000000000010100D2
:100C1E0000000000000000000000000000000000C6
:100C2E0000000000000000000000000000000000B6
:100C3E0000000000000000000000000000000000A6
:100C4E000000000000000000000000000000010194
:100C5E000000000000000101000000000000000084
:100C6E000001010101010101010101010101010167
:100C7E000101010000000000000000000000000063
:100C8E000000000000000000000000000000000056
:100C9E003F3F0303F31311111111111101F11161F2
:100CAE0081010101816111F1010101014141F10156
:100CBE0001010101C1211111111121C10101010116
:100CCE004141F10101010101010101010111111166
:100CDE001111D33303033F3F00000000000000005A
:100CEE0000000000000000000000000000000000F6
:100CFE0000000000000000000000000000000000E6
:100D0E0000000000000000000000000000000000D5
:100D1E00E0E000007F01010101010100007F000001
:100D2E00010618060100007F0000000040407F40D1
:100D3E00400000001F2040404040201F00000000E7
:100D4E0040407F4040000000006000000000403046
:100D5E000C0300000000E0E00000000000000000B6
:100D6E000000000000000000000000000000000075
:100D7E000000000000000000000000000000000065
:100D8E000000000000000000000000000000000055
:100D9E000707060606060404048444444484040437
:100DAE00844444448404040484C404040404844435
:100DBE004444840404040404844444448404040425
:100DCE000404844444448404048444444484040455
:100DDE0004040606060607070000000000000000D7
:100DEE0000000000000000000000000000000000F5
:100DFE0000000000000000000000000000000000E5
:100E0E0000000000000000000000000000000000D4
:100E1E000000000000000000001018141211000065
:100E2E000F1010100F000000101F1000000008100F
:100E3E0012120D00001800000D1212120D000018F3
:100E4E0000001018141211000010181412110000D6
:100E5E000000000000000000000000000000000084
:100E6E000000000000000000000000000000000074
:100E7E000000000000000000000000000000000064
:100E8E000000000000000000000000000000000054
:100E9E000000000000000000000000000000000044
:100EAE000000000000000000000000000000000034
:100EBE008080808080808080000000000000000024
:100ECE000000000000000000000000000000000014
:100EDE000000000000000000000000000000000004
:100EEE0000000000000000000000000000000000F4
:100EFE0000000000007F030C300C037F000038540C
:100F0E00545800007C04047800003C40407C0000F3
:100F1E0000000000000000000000000000000000C3
:100F2E0000000000000000000000000000000000B3
:100F3E00FFAAAAAA280800FF000000000000000077
:100F4E000000000000000000000000000000000093
:100F5E00000000000000000000000000007F030CF5
:100F6E00300C037F0000264949493200007F0204FD
:100F7E0008107F000003050911FF118905C300E069
:100F8E0000F000F8000000000000004428FF11AA45
:100F9E0044000000000000000000000000000000FF
:100FAE000000000000000000000000000000000033
:100FBE000000000000000000000000000000000023
:100FCE00000000000000000000000000000083018F
:100FDE003844829292740183000000000000007C6D
:100FEE0044FF017D7D7D7D017D7D7D7D017D7D7D4E
:100FFE007D01FF0000000000000100010001000162
:10100E0000010001000000000000000000010100CE
:10101E0000000000000000000000000000000000C2
:10102E0000000000000000000000000000000000B2
:10103E0000000000000000000000000000000000A2
:10104E000000000000000000000000000000010190
:10105E000000000000000101000000000000000080
:10106E000001010101010101010101010101010163
:10107E00010101000000000000000000000000005F
:10108E000000000000000000000000000000000052
:10109E00000000F80808080808080800F818608022
:1010AE00000000806018F80000002020F80000000A
:1010BE00000000E0100808080810E00000002020E2
:1010CE00F800000000000000000000000008080802
:1010DE0008088868180000000000000000000000EA
:1010EE0000000000000000000000000000000000F2
:1010FE0000000000000000000000000000000000E2
:10110E0000000000000000000000000000000000D1
:10111E000000007F01010101010100007F000001BC
:10112E000618060100007F00000040407F4040008E
:10113E000000001F2040404040201F0000004040A3
:10114E007F404000000000006000000000000060D2
:10115E001806010000000000000000000000000062
:10116E000000000000000000000000000000000071
:10117E000000000000000000000000000000000061
:10118E000000000000000000000000000000000051
:10119E0000000000000000000040202020C00000E1
:1011AE00E0202020E000000040E000000000602071
:1011BE002020E00000000000E0202020E0000000E1
:1011CE00000040202020C0000040202020C0000051
:1011DE000000000000000000000000000000000001
:1011EE0000000000000000000000000000000000F1
:1011FE0000000000000000000000000000000000E1
:10120E0000000000000000000000000000000000D0
:10121E000000000000000000000C0A0A090C00008B
:10122E000F0808080F000000080F080000000C0847
:10123E0009090E00000C00000F0909090F00000C2F
:10124E0000000C0A0A090C00000C0A0A090C000026
:10125E000000000000000000000000000000000080
:10126E000000000000000000000000000000000070
:10127E000000000000000000000000000000000060
:10128E000000000000000000000000000000000050
:10129E000000000000000000000000000000000040
:1012AE000000000000000000000000000000000030
:1012BE008080808080808080000000000000000020
:1012CE000000000000000000000000000000000010
:1012DE000000000000000000000000000000000000
:1012EE0000000000000000000000000000000000F0
:1012FE0000000000007F030C300C037F0000385408
:10130E00545800007C04047800003C40407C0000EF
:10131E0000000000000000000000000000000000BF
:10132E0000000000000000000000000000000000AF
:10133E00FFAAAAAA280800FF000000000000000073
:10134E00000000000000000000000000000000008F
:10135E00000000000000000000000000007F030CF1
:10136E00300C037F0000264949493200007F0204F9
:04137E0008107F00D4
:10257D00165C41542B434D47533D22313738353886
:10258D0033383132383122000F4D466F756E64206D
:0D259D00746865206669726500024B001EBF
:04287D007F607EEA10
:0B288100EF1FAC0670011E4C70F62229
:1021C300E4F52F752F08FBFDAF2F1222F8E52F241E
:1021D30012FF7B01E4FD1222F8E52F2424FF7B028A
:1021E300E4FD1222F8E52F2436FF7B03E4FD1222DF
:1021F300F8E52F2448FF7B04E4FD1222F8E52F24A1
:102203005AFF7B05E4FD1222F87B067D02E4FF12F0
:1022130022F87B077D027F121222F87B087D04E4FB
:10222300FF1222F87B097D047F121222F8753B10FE
:102233007B587D047F281220E87B0A7D047F3B12B4
:1022430022F87B0B7D047F4D1222F8753B107B58DF
:102253007D047F641220E87B067D06E4FF1222F8EA
:092263007B0C7D067F120222F8BB
:101E6C00E4F52AF529F528F527F52BF52CF52DF5B4
:101E7C002E4394084393084396804395801228463A
:101E8C001220081226551221C312287D1223F6ACFB
:101E9C0006AD07E412169EE4FBFA79207841121580
:101EAC00838F2A8E298D288C2712287D12287DACB1
:101EBC004BAD4CE412169EAB2AAA29A928A82712CE
:101ECC001620400AC282C286752D00752E01208311
:101EDC0018C282C286753B107B597D047F28122064
:101EEC00E8752D00752E01800C753B107B587D0418
:101EFC007F281220E820A718C282C286753B107B6F
:101F0C00597D047F641220E8752D00752E01800C1C
:101F1C00753B107B587D047F641220E8AC4BAD4CB4
:101F2C00E412169EAB2AAA29A928A827121620501B
:101F3C000F30830C30A709D282D286E4F52DF52E12
:101F4C00E52E6401452D703DE52C640A452B70226D
:101F5C00FB7A00795C7D151227687F0D1228BF1261
:101F6C00287D7B007A00794D7D0E1227687F1A122E
:101F7C0028BF052CE52C7002052BC394B0E52B94DF
:101F8C000440078000E4F52BF52C7532FF75330BFC
:101F9C0075347E852A388529378528368527357B03
:101FAC00007A007922121A59E4F526FB7A0079227C
:101FBC007534107D027F2412253975330375341066
:101FCC00AB4CAA4B7D067F2412237C20A51412282F
:101FDC007D30A503021E98054CE54C7002054B02A2
:101FEC001E9830A103021E9812287D30A103021EF8
:0C1FFC0098E54C154C7002154B021E9825
:100026000000000000000000002F00000000070094
:10003600070000147F147F1400242A7F2A1200620E
:1000460064081323003649552250000005030000BA
:1000560000001C224100000041221C000014083E42
:1000660008140008083E0808000000A06000000808
:10007600080808080000606000000020100804025C
:10008600003E5149453E0000427F4000004261511A
:100096004946002141454B31001814127F100027B4
:1000A60045454539003C4A49493000017109050377
:1000B60000364949493600064949291E00003636A8
:1000C600000000005636000000081422410000140B
:1000D60014141414000041221408000201510906E8
:1000E60000324959513E007C1211127C007F494969
:1000F6004936003E41414122007F4141221C007F9A
:1001060049494941007F09090901003E4149497AA7
:10011600007F0808087F0000417F41000020404121
:100126003F01007F08142241007F40404040007F8D
:10013600020C027F007F0408107F003E4141413ED1
:10014600007F09090906003E4151215E007F091919
:1001560029460046494949310001017F0101003F16
:100166004040403F001F2040201F003F4038403F96
:1001760000631408146300070870080700615149FA
:10018600454300007F41410000552A552A5500008D
:1001960041417F000004020102040040404040400B
:1001A600000001020400002054545478007F4844A3
:1001B600443800384444442000384444487F0038DA
:1001C6005454541800087E0901020018A4A4A47C03
:1001D600007F080404780000447D400000408084CD
:1001E6007D00007F102844000000417F4000007C15
:1001F60004180478007C0804047800384444443821
:1002060000FC242424180018242418FC007C08046C
:10021600040800485454542000043F444020003C45
:100226004040207C001C2040201C003C4030403CCC
:10023600004428102844001CA0A0A07C004464545C
:100246004C441414141414140000000000000000A0
:100256000000000000000000000000F800000000A0
:10026600000000333000000000100C06100C0600E1
:10027600000000000000000040C07840C078400048
:10028600043F04043F040400007088FC08300000AA
:10029600001820FF211E0000F008F000E018000002
:1002A60000211C031E211E0000F0088870000000BB
:1002B6001E2123241927211010160E00000000000D
:1002C6000000000000000000000000E0180402002A
:1002D600000000071820400000020418E00000009B
:1002E6000040201807000000404080F08040400099
:1002F6000202010F01020200000000F000000000EF
:100306000101011F010101000000000000000000C2
:1003160080B0700000000000000000000000000037
:1003260000010101010101010000000000000000C0
:10033600003030000000000000000000806018045B
:10034600006018060100000000E010080810E00038
:10035600000F102020100F00001010F80000000001
:100366000020203F20200000007008080888700048
:1003760000302824222130000030088888483000C8
:100386000018202020110E000000C02010F80000E8
:1003960000070424243F240000F808888808080081
:1003A6000019212020110E0000E010888818000096
:1003B600000F112020110E0000380808C838080068
:1003C6000000003F000000000070880808887000E8
:1003D600001C222121221C0000E010080810E00069
:1003E6000000312222110F00000000C0C0000000F2
:1003F6000000003030000000000000800000000017
:10040600000080600000000000008040201008000E
:1004160000010204081020004040404040404000D7
:1004260004040404040404000008102040800000B2
:100436000020100804020100007048080808F000B7
:100446000000003036010000C030C828E810E00087
:100456000718272423140B000000C038E000000012
:10046600203C23020227382008F88888887000007C
:10047600203F202020110E00C03008080808380050
:10048600071820202010080008F808080810E000C7
:10049600203F202020100F0008F88888E808100068
:1004A600203F20202320180008F88888E80810003C
:1004B600203F200003000000C03008080838000074
:1004C60007182020221E020008F808000008F80875
:1004D600203F210101213F20000808F808080000FC
:1004E6000020203F2020000000000808F80808002F
:1004F600C08080807F00000008F888C028180800A7
:10050600203F20012638200008F8080000000000DF
:10051600203F20202020300008F8F800F8F80800D6
:10052600203F003F003F200008F830C00008F808D0
:10053600203F200007183F00E01008080810E000E0
:100546000F10202020100F0008F808080808F000F7
:10055600203F210101010000E01008080810E0001A
:100566000F18242438504F0008F8888888887000AF
:10057600203F2000030C302000708808080838004F
:100586000038202121221C00180808F80808180045
:100596000000203F2000000008F808000008F808C6
:1005A600001F202020201F000878880000C8380877
:1005B600000007380E010000F80800F80008F800EF
:1005C600033C0700073C0300081868808068180889
:1005D60020302C03032C30200838C800C838080007
:1005E6000000203F2000000010080808C838080056
:1005F6002038262120201800000000FE02020200FA
:100606000000007F40404000000C30C000000000A9
:10061600000000010638C00000020202FE000000D1
:10062600004040407F000000000004020202040077
:1006360000000000000000000000000000000000B4
:10064600808080808080808000020204000000009C
:100656000000000000000000000080808080000094
:100666000019242222223F2008F800808000000082
:10067600003F112020110E00000000808080000045
:10068600000E112020201100000000808088F80054
:10069600000E112020103F20000080808080000086
:1006A600001F222222221300008080F088888818EA
:1006B6000020203F202000000000808080808000F5
:1006C600006B94949493600008F80080808000008A
:1006D600203F210000203F20008098980000000065
:1006E6000020203F20200000000000809898000095
:1006F60000C08080807F000008F8000080808000B5
:10070600203F24022D302000000808F800000000D9
:100716000020203F20200000808080808080800094
:10072600203F20003F20003F808000808080000026
:10073600203F210000203F200000808080800000B4
:10074600001F202020201F008080008080000000E5
:1007560080FFA12020110E00000000808080800014
:10076600000E112020A0FF80808080008080800005
:1007760020203F2120000100000080808080800032
:100786000033242424241900008080E080800000A7
:100796000000001F202000008080000000808000F4
:1007A600001F202020103F20808080000080808055
:1007B60000010E30080601008080008000808080E5
:1007C6000F300C030C300F0000808000808080000A
:1007D6000020312E0E312000808080000080808035
:1007E60080818E70180601000080808080808000E5
:1007F6000021302C2221300000000000807C020203
:1008060000000000003F404000000000FF00000024
:1008160000000000FF0000000002027C80000000D3
:100826000040403F000000000006010102020404EF
:1008360000000000000000000000C038000000FFBB
:10084600000040201800000000000000000000002A
:10085600000000000000000080814020100C030012
:10086600030C102040808000000000000000000003
:100876000000000000000000100C04C4040405F68B
:1008860004040404C4140C0000000000000000006E
:1008960000000000000000008080424120100C0390
:1008A6000C10224140808000000000000000000083
:1008B6000000000000000000101010FF109000FE65
:1008C60082828292A29E00000000000000000000CA
:1008D60000000000000000000444827F010000FFC9
:1008E60080432C102C438000000000000000000014
:1008F600000000000000000012EAAFAAEA0FFA02A8
:10090600888C5724548C84000000000000000000EE
:1009160000000000000000000202EAAAAAABAAAB8F
:10092600AAAAAAAAEA02020000000000000000002B
:100936000000000000000000000022322AA6A26289
:1009460021110981010000000000000000000000E4
:100956000000000000000000004222130B42827ECD
:1009660002020A12234600000000000000000000F8
:1009760000000000000000002030AC63300088C892
:10098600A8998E88A8C88800000000000000000012
:100996000000000000000000226722121280403092
:1009A6000F00003F40407100000000000000000002
:1009B60000000000000000001060028C0000FE92A3
:1009C60092929292FE0000000000000000000000DB
:1009D600000000000000000004047E01407E424248
:1009E6007E427E42427E4000000000000000000081
:1009F60000000000000000000000FC242424FC2568
:100A06002624FC242424040000000000000000002A
:100A1600000000000000000040308F80844C552507
:100A26002525554C80808000000000000000000055
:100A36000000000000000000807000FF1008FE4269
:100A46004242FA424242FE0000000000000000005E
:100A56000000000000000000806018070810FF502A
:100A6600484641424C40FF000000000000000000E4
:100A76000000000000000000100C055555D5057F4C
:100A86000555555505140C00000000000000000037
:100A960000000000000000001010108AA96B352528
:100AA60025ABE9081010100000000000000000004F
:100AB60000000000000000000000C038000000FF39
:100AC60000004020180000000000000000000000A8
:100AD600000000000000000080814020100C030090
:100AE600030C102040808000000000000000000081
:100AF6000000000000000000807000FF1008209039
:100B060088874404948C80000000000000000000E8
:100B1600000000000000000080601807083000FF99
:100B2600444440404444FF00000000000000000030
:100B3600000000000000000000F80122A0A2A2228E
:100B4600FE22AA3202FE00000000000000000000A3
:100B5600000000000000000000FF0010130A4B20F8
:100B6600170C133880FF0000000000000000000092
:080B7600000000000000000077
:1027C900EF4E60157D087C07ED1DAA0470011C4AB7
:0927D90070F6EF1F70EA1E80E7A4
:0127E20022D4
:0928CA00D281D280C280C28122B9
:07000300D281C280D28022ED
:0B286D0012268E122878AF0412268E6F
:05287800D281C28122A3
:07268700AC071228CA7F789E
:10268E00C281E4FEEEC3940874809480501BAD07A3
:10269E00530580ED64807004D2808002C280EF25E5
:0926AE00E0FFD281C2810E80DB45
:0126B7002200
:0E288C00122687122878E4FF12286D0200033E
:0E289A001226871228787F4012286D02000354
:1026E900EF24B0FFEE33FEE4FDFC122704E4FDFC09
:0B26F900FFFE1227047F10E4FDFCFE32
:10270400AB07AA06ED4C600302289AAF0312288C8B
:0127140022A2
:0225ED008F1746
:1025EF00E4F9E9FF7E00C3940874809480502312AD
:1025FF0026E9E4F518C3E518948074809480500F91
:10260F00AF177E007D017C00122704051880E609B4
:02261F0080D069
:012621002296
:1027AB00D3EF9400EE940040147D657C18ED1D7002
:0D27BB00011CED4C70F7EF1F70E61E80E36F
:0127C80022EE
:1027E300EF1FAA0670011E4A600FE4FDEDC3947B40
:0927F3007480948050EA0D80F31B
:0127FC0022BA
:10271500A907ED24B0FFE433FEE4FDFC122704E92C
:1027250054F0C4540F7E004410FFE4FDFC1227044E
:0C273500E9540FFF7E00E4FDFC022704C5
:10282F007F8D122700E4FDFC7F14FE122704E4FDC8
:07283F00FC7FAFFE0227043D
:10000E00E4FDFC7F8D1226FAE4FDFC7FAEFE022796
:01001E0004DD
:10265500E4F9E9FF7E00C394087480948050221247
:1026650026E9E4F52FC3E52F948074809480500EFD
:102675007D017C00E4FFFE122704052F80E7098019
:01268500D183
:012686002231
:10262200E4F9E9FF7E00C394087480948050231279
:1026320026E9E4F51BC3E51B948074809480500F57
:102642007D017C007F017E00122704051B80E609C4
:0226520080D036
:012654002263
:0420E8008F388D3967
:1020EC00E4F53CF9EB24E0F53CD3EF947F74809459
:1020FC00804007E4F53805390539E53B6410707A02
:10210C00AD39AF38122715E4F9E9C39408748094FB
:10211C0080502975F010E53CA429F582E435F0F5E2
:10212C0083E582244EF582E5833402F583E493FF44
:10213C007E007D017C001227040980CDE53904FD69
:10214C00AF38122715E4F9E9C394087480948050D1
:10215C006575F010E53CA429F582E435F0F583E5CE
:10216C00822456F582E5833402F583E493FF7E00E6
:10217C007D017C001227040980CDAD39AF381227C0
:10218C0015E4F9E9C3940674809480502975F0061F
:10219C00E53CA42426F582E5F03400F583E582299C
:1021AC00F582E43583F583E493FF7E007D017C00AA
:0621BC001227040980CD8A
:0121C20022FA
:042817008F38A90548
:10281B007F017E00AD0119ED6009AD387C00121906
:03282B005280F1E7
:01282E002287
:08237C008F2F8D308A318B3266
:10238400E4F537F535E535C395335065C3E5339545
:102394003514FD7F0A122817AC31AD32CFCDCFCE24
:1023A400CCCE1219647C007D0A1219648D36E5378F
:1023B4007023E53314FFE535C39F5019E5367012D9
:1023C400E534C3138535F0A4252FFF85343B7B20EA
:1023D4008016753701E534C3138535F0A4252FFF26
:1023E400E5362430FB85343BAD301220E8053580DA
:0123F4009454
:0123F50022C5
:0A2539008F2F8D308B318A328933E9
:10254300E4F535AB31AA32A93385358275830012A0
:102553001913FB602485343BAD30AF2F1220E87490
:1025630008252FF52FD39478748094804007E4F5E1
:092573002F05300530053580CA42
:01257C00223C
:0622F8008F308D318B32A6
:1022FE00E4F533122715E4F9E9C394107480948041
:10230E00502B75F040E532A4243EF582E5F03408FA
:10231E00F583E58229F582E43583F583E493FF7E28
:10232E00007D017C0012270405330980CBE53104C2
:10233E00FDAF30122715E4F9E9C394107480948030
:10234E00502B75F040E532A4245EF582E5F034089A
:10235E00F583E58229F582E43583F583E493FF7EE8
:0D236E00007D017C0012270405330980CB9F
:01237B00223F
:0424D0008F088B0ADC
:1024D400E4F50FF510E50B5407700BE50B1313131C
:1024E400541FF512800AE50B131313541F04F5123D
:1024F4008D12E512C3950B503BAD12AF0812271590
:10250400850811E511C3950A5026AB0CAA0DA90E36
:102514000510E510AE0F7002050F14F5828E8312BC
:102524001913FF7E007D017C00122704051180D35E
:04253400051280BE4E
:012538002280
:10200800E4FDFC7FAEFE1226F3E4FDFC7F40FE12E9
:102018002704E4FDFC7FB0FE122704E4FDFC7F8169
:10202800FE122704E4FDFC7FFFFE122704E4FDFCFA
:102038007FA1FE122704E4FDFC7FA6FE122704E41C
:10204800FDFC7FA8FE122704E4FDFC7F3FFE12275B
:1020580004E4FDFC7FC8FE122704E4FDFC7FD3FEE8
:10206800122704E4FDFCFFFE122704E4FDFC7FD5E3
:10207800FE122704E4FDFC7F80FE122704E4FDFC29
:102088007FD8FE122704E4FDFC7F05FE122704E436
:10209800FDFC7FD9FE122704E4FDFC7FF1FE122728
:1020A80004E4FDFC7FDAFE122704E4FDFC7F12FE47
:1020B800122704E4FDFC7FDBFE122704E4FDFC7F0D
:1020C80030FE122704E4FDFC7F8DFE122704E4FD98
:1020D800FC7F14FE122704E4FDFC7FAFFE022704F8
:1027FD003F065B4F666D7D077F6F777C395E797124
:0A280D00BF86DBCFE6EDFD87FFEF8D
:0625AA00011300011602FE
:10285C004389018F8C8D8AD2AFD2A9D28CE4F51327
:01286C002249
:03000B000228A820
:0C28A800758CFF758AEE751301C28C322E
:0328B4009516FD79
:0828B70012285CE51360FC220D
:10278B00D2A0C374EE7FFF1228B4C2A0C374AE7F75
:10279B00FB1228B4D2A0C374669516FD0F0228B79E
:1025B700E4FC7E08EED39400748094804025C2A08A
:1025C70000EC13FCD2A0C374EE9EFD7FFF1228B768
:1025D70030A003430480C374DB9EFD7FFF1228B73E
:0525E7001E80D1AF04CD
:0125EC0022CC
:0226B800AE076B
:1026BA007B08EBD39400748094804022C2A000EE81
:1026CA001392A0C374919BFD7FFF1228B7D2A0EE8C
:0E26DA00C313FEC374919BFD1228B71B80D45E
:0126E80022CF
:1023F60012278B7FCC1226B87F441226B812278B61
:102406007FCC1226B87FBE1226B81225B7AB0712AC
:1024160025B77514008F15E515751500F514AF036E
:10242600EF4215E4AC14AD1512169EE4FBFA798062
:10243600783D12147A8F328E318D308C2FE4FFFE68
:102446007D207C41AB32AA31A930A82F12147AE440
:0F245600FBFAF9783F1213891216D78E148F15DF
:012465002254
:0625B00002190000C189C0
:10284600438920759850758DFA858D8BE4F587D26E
:06285600AFD2ACD28E22CD
:0B28BF003009078F993099FDC2992263
:062768008B2F8A3089313D
:10276E00E4FEEEC39D5015AB2FAA30A9318E8275B3
:0C277E008300121913FF1228BF0E80E622
:01278A00222C
:030023000224664E
:0F246600C0E0C083C082C0D075D000C004C007E2
:1024750030984BC298AF99E51920E74230E60CEF4A
:10248500640A600280324319808033EF640D700561
:102495004319408029E519543FFC7400251AF5823B
:1024A50074003CF583EFF0051AE51A70020519D39F
:0E24B5009413E51994004006751900751A007D
:0D24C300D007D004D0D0D082D083D0E0323A
:10138200021743E86480F8E933E83360110460F03F
:10139200ED33EC337009E8FCE9FDEAFEEBFF2204D1
:1013A20060DED3EB9FEA9EE99DE8C2E78CF0C2F7CC
:1013B20095F0400CE8CCF8E9CDF9EACEFAEBCFFB98
:1013C20012170E85D0F05804700320D5B3E80470CC
:1013D200075002B2D502174D92D5EC0460F7E4CC67
:1013E200C0E0C398F8603B94186008400DD0E0FB61
:1013F200021725E4FBFAC9FC8028E830E406E4C9B8
:10140200FBE4CAFCE830E305E4C9CACBFCE85407B4
:101412006010F8C3E913F9EA13FAEB13FBEC13FCBF
:10142200D8F130F52FC3E49CFCEF9BFFEE9AFEED62
:1014320099FDD0E0FBEF4E4D4C701222DB030217F8
:101442004AEC2CFCEF33FFEE33FEED33FDED30E7DB
:10145200EB021725EF2BFFEE3AFEED39FDD0E0FB54
:1014620050130BBB000302174DED13FDEE13FEEFFD
:0814720013FFEC13FC02172527
:10147A00EC4D6011E8497017ED33EC3304600DE46C
:10148A00FCFFFEFD22E933E8330470F80217431229
:10149A00170E58046009E4CC24815006285009022A
:1014AA00174D28400302174AC0E0EB4A7044B9803E
:1014BA0006D0E0FB021739EF4E701CBD8008EBFF27
:1014CA00EAFEE9FD80EBE98DF0A4FEE5F002156382
:1014DA00E9CDF9EAFEEBFFEF89F0A4FCE5F0CE894D
:1014EA00F0A42EFFE435F0CD89F0A42DFEE435F00A
:1014FA008067EF4E7005BD80D780C3EF8BF0A4AC38
:10150A00F0EE8BF0A42CFCE435F0F8EF8AF0A42C72
:10151A00E5F038FCE433CB8DF0A42CFCE5F03BF885
:10152A00EE8AF0A42CFCE5F038F8E433CF89F0A475
:10153A002CFCE5F038CF3400CE89F0A42FFFE5F07B
:10154A003EFEE433C98DF0A42EFEE5F039CD8AF0D3
:10155A00A42FFFE5F03EFEE43DFD33D0E0FB50074B
:10156A000BBB000F02174DEC2CFCEF33FFEE33FEE2
:06157A00ED33FD02172510
:1015800002174DEC5D046005E8590470030217432F
:1015900012170E580460F6EC4860F2EC7004FDFE81
:1015A000FF22C860DB2481C85009C398600250063E
:1015B00002174A9850CAF582E9294B4A7005AB8256
:1015C00002173975F0007C1A7880C3EF9BEE9AED14
:1015D00099400DC3EF9BFFEE9AFEED99FDE842F0B6
:1015E000DC23ACF0D0E0FFD0E0FED0E0FDAB822009
:1015F000E7101BEB60BAEC2CFCEF33FFEE33FEED93
:1016000033FD021725E803F830E705C0F075F00058
:10161000EF2FFFEE33FEED33FD40B830E7C280AA76
:1016200074F8CC6480CCC86480C8F58204604FC371
:10163000EB9FF5F0EA9E42F0E99D42F0E89C45F010
:10164000603C501DE5825FFFE582D313CB5BCBF49A
:101650002B5582FB50280ABA002409B900200880C3
:101660001DE5825BFBE582D313CF5FCFF4C3132F5D
:101670005582FF50090EBE00050DBD00010CC3EBE5
:101680009FF5F0EA9E42F0E99D42F0E89C45F0604B
:0916900007CC4820E701B3EC226D
:1016990075F020800E75F010800575F0087D007ECC
:1016A900007F003392D530D5031219B9EC334010BD
:1016B900EF33FFEE33FEED33FDEC33FCD5F0ED22D5
:0E16C900E5F0247EA2D513CC92E7CDCEFF2211
:1016D700EDD2E7CD33EC3392D524814006E4FFFE0B
:1016E700FDFC22FCE4CFCECDCC24E0501174FF806A
:1016F700EDC3CC13CCCD13CDCE13CECF13CF047007
:07170700F030D5DE0219B934
:1019FD00E5462432F8E6054622782F300702783284
:101A0D00E475F0011219C70218FA2000EB7F2ED2EF
:101A1D00008018EF540F2490D43440D4FF30040BC1
:101A2D00EF24BFB41A0050032461FFE5476002158F
:101A3D0047054AE54A7002054930070D782FE475D0
:101A4D00F0011219C7EF0219400227417403D207A2
:101A5D008003E4C207F5468B2F8A308931E4F547C0
:101A6D00F549F54AE54760077F20121A3880F5756C
:101A7D0048FFC201C200C202C203C205C206C208AB
:101A8D00121A06FF700D3007057F00121A49AF4A72
:101A9D00AE4922B4255FC2D5C204121A06FF24D066
:101AAD00B40A00501A75F00A784730D50508B6FF0C
:101ABD000106C6A426F620D5047002D20380D924CF
:101ACD00CFB41A00EF5004C2E5D204021D36D20184
:101ADD0080C6D20080C0D20280BCD2D580BAD205D9
:101AED0080B47F20121A382002077401B5470040D8
:101AFD00F11219FDFF121A38021A71D208D206809E
:101B0D00951219FDFB1219FDFA1219FDF94A4B70C8
:101B1D0006792D7A1E7BFF20022EE547602A7E0076
:101B2D008E8275830012191360060EEE654870F0F3
:101B3D00C2D5EBC0E0EAC0E0E9C0E0EE121D96D0E0
:101B4D00E0F9D0E0FAD0E0FB1218FAFF60AAEBC082
:101B5D00E0EAC0E0E9C0E0121A38D0E02401F9D083
:101B6D00E03400FAD0E0FBE5480460DCD548D980CC
:101B7D0087D20280A2121D7960F7E5487001041228
:101B8D001758A948600DE548600914F548121E2044
:101B9D00EF60F3EA30E702F404C3995077EAF425D5
:101BAD00480430E701E404F548800D121D7960C149
:101BBD00EA05482548121758EA7845F630E701E45A
:101BCD00254804D5480420050114121D96E4C0E0F3
:101BDD00121E207845E6601320E70714F6121A202E
:101BED00802204F6D0E014C0E07F00121A20E548F0
:101BFD006007121A171548800B300503121A17D0FB
:101C0D00E0021A71D0E00480C5121D7960A0E5488C
:101C1D00041217587845EAF6E548200502600104DC
:051C2D002404121D96C5
:101C320074FF04C0E0121E20121A20E5482005029B
:101C42006003121A17D0E0B548E87F45121A2A78C5
:101C520045E67F2B30E7047F2DF404C0E0121A38EA
:101C6200D0E075F00A84C0F0121A21D0E0121A21D5
:101C7200021A71791080027908C206C2088008D25D
:101C8200D5790A8004790AC2D5E548047002F5487C
:101C9200E4FAFDFEFF1219FDFC7B08200113121964
:101CA200FDFD7B1030000A1219FDFE1219FDFF7BAB
:101CB20020EC3382D592D55013C3E43000069FFF47
:101CC200E49EFEE42001039DFDE49CFCE4CBF8C20B
:101CD20001EC700CCFCECDCCE824F8F870F380176D
:101CE200C3EF33FFEE33FEED33FDEC33FCEB33FB9E
:101CF200994002FB0FD8E9EB300105F8D0E0C44867
:101D0200B201C0E00AEC4D4E4F78207B0070C2EA6F
:101D1200B5480040BCC0E0121D98D0F0D0E02001D0
:101D220004C4C0E0C4B201C0F0121A21D0F0D5F050
:101D3200EB021A711219D71B0E531C75581ADF4C7D
:101D42001ADB421C794F1C81441C81491AF4431C42
:101D520087551BB8461C16451B82471E4D501AE379
:101D62002D1AE72E1B0A2B1AEB231B08201E362ADC
:101D72001AA34800001B02E548B4FF037548061287
:101D820019FDFC1219FDFD1219FDFE1219FDFF7855
:101D92003E021787790AA2D5200314300509B9102B
:101DA200020404B9080104A2D5200602500104204D
:101DB20002689202B547005034C0E07F2030031918
:101DC2007F30A20272067205500F121DEFC202C2CC
:101DD20006C205C2087F30800F300503E9C0E01259
:101DE2001A38300503D0E0F9D0E0B547CC300517FA
:101DF2007F30B9100C121A387F583004077F788070
:101E020003B90803121A383002057F2D021A387FEF
:101E1200202008F87F2B2006F322920280CF7F0039
:101E2200B407005005243EF8E6FF22286E756C6C5C
:101E32002900D2011219FD3001F8C201784730D5CC
:101E42000108F6021AA32D504349581219FD240322
:101E5200B405004001E4901E4893121A29743A1204
:0A1E62001A29D203754704021C750B
:10170E00E9D2E7C933E833F892D5EDD2E7CD33EC21
:07171E0033FC5002B2D5229A
:10172500EC30E7100FBF000C0EBE00080DBD000425
:101735000BEB6014A2D5EB13FCED92E7FD2274FFD1
:10174500FCFDFEFF22E480F8A2D574FF13FC7D802A
:03175500E480EF3E
:10175800F920E72824F950037907E4F42402FB1858
:10176800DBFDE624FB5014E9600DE4F618E604F608
:0F177800B40A08E4F6D9F57401F60A22C2D522A4
:10178700ED33EC3392D5FA602AB4FF33EDC2E77B31
:10179700FF60067A1779ACE4227A1779B520D50469
:1017A7007A1779B0224E614E002B494E46002D49DB
:1017B7004E4600E47A08F608DAFC7B00740722E854
:1017C700C0E0ECC0E0EDC0E0EEC0E0EFC0E0EA75DD
:1017D700F010A4CAABF075F04DA42BFBE435F0FC78
:1017E700EA2410FAEB34C5FBEC34D9FCEDC2E7FF71
:1017F70075F056A4F42411C5F0F434C58FF0A42A6B
:10180700E5F03BE43CF620E7141218BAD0E0FFD02D
:10181700E0FED0E0FDD0E0FC1215838014F4041242
:1018270018BAD0E0FFD0E0FED0E0FDD0E0FC121403
:101837007AD0E0F8E6FAEDD2E7CD33EC332482FB39
:10184700E4C3CF33CFCE33CECD33CD33DBF37B07FA
:1018570075F00A846004F6081B0AE5F0F6088FF0B5
:10186700740AA4FFACF08EF0740AA42CFEACF050FE
:10187700010C8DF0740AA42CFDE435F0F608DBDECC
:03188700740722C1
:10188A003F8000004120000042C80000447A000066
:10189A00461C400047C35000497424004B189680E8
:1018AA004CBEBC205A0E1BCA6753C21C749DC5AEDF
:1018BA00FB60065407601C23231218E8EB543860B7
:1018CA00091218D41218E312147AECF8EDF9EEFAA8
:1018DA00EFCB22EB1218E380F1543803241C901842
:1018EA008AFE93FC0EEE93FD0EEE930ECE93FF222C
:0300000002226C6D
:0C226C00787FE4F6D8FD7581710222B382
:1018FA00BB010689828A83E0225002E722BBFE02EC
:09190A00E32289828A83E493221E
:10191300BB010CE58229F582E5833AF583E0225089
:1019230006E92582F8E622BBFE06E92582F8E222D3
:0D193300E58229F582E5833AF583E49322ED
:10194000BB010689828A83F0225002F722BBFE0186
:02195000F32280
:10195200EF8DF0A4A8F0CF8CF0A428CE8DF0A42EA9
:02196200FE2263
:10196400BC000BBE0029EF8DF084FFADF022E4CC67
:10197400F875F008EF2FFFEE33FEEC33FCEE9DEC30
:10198400984005FCEE9DFE0FD5F0E9E4CEFD22ED76
:10199400F8F5F0EE8420D21CFEADF075F008EF2FC0
:1019A400FFED33FD4007985006D5F0F222C398FDB1
:0519B4000FD5F0EA224E
:0E19B900C3E49FFFE49EFEE49DFDE49CFC223F
:1019C700FAE6FB0808E6F925F0F618E6CA3AF62221
:1019D700D083D082F8E4937012740193700DA3A39F
:1019E70093F8740193F5828883E4737402936860B3
:0619F700EFA3A3A380DFB3
:10274100EFB40A07740D12274C740A309811A89936
:10275100B8130CC2983098FDA899C298B811F630F8
:0727610099FDC299F59922D0
:10227800021E6CE493A3F8E493A34003F68001F2F2
:1022880008DFF48029E493A3F85407240CC8C33367
:10229800C4540F4420C8834004F456800146F6DF36
:1022A800E4800B010204081020408090257DE47E24
:1022B800019360BCA3FF543F30E509541FFEE4932B
:1022C800A360010ECF54C025E060A840B8E493A3F2
:1022D800FAE493A3F8E493A3C8C582C8CAC583CA1D
:1022E800F0A3C8C582C8CAC583CADFE9DEE780BED5
:0125B6000024
:00000001FF
