:020000040800F2
:10000000680B002091010008F5080008910800081D
:10001000F108000849040008C711000800000000AA
:100020000000000000000000000000002D0E00088D
:100030007107000800000000350D0008410F00089E
:10004000AB010008AB010008AB010008AB010008E0
:10005000AB010008AB010008AB010008AB010008D0
:10006000AB010008AB010008AB010008AB010008C0
:10007000AB010008AB010008AB010008AB010008B0
:10008000AB010008AB010008AB010008AB010008A0
:10009000AB010008AB010008AB010008AB01000890
:1000A000AB010008AB010008AB010008AB01000880
:1000B000AB010008AB010008AB010008AB01000870
:1000C000AB010008AB010008AB010008AB01000860
:1000D000AB010008A50F0008AB010008AB01000848
:1000E000AB010008AB010008AB01000800F002F80A
:1000F00000F03FF80AA090E8000C82448344AAF183
:100100000107DA4501D100F034F8AFF2090EBAE880
:100110000F0013F0010F18BFFB1A43F0010318473B
:10012000342B0000542B0000103A24BF78C878C14B
:10013000FAD8520724BF30C830C144BF04680C60ED
:10014000704700000023002400250026103A28BF35
:1001500078C1FBD8520728BF30C148BF0B60704739
:10016000642900F07780002070471FB51FBD10B5CF
:1001700010BD00F037F91146FFF7F7FF01F0A4F8C2
:1001800000F055F903B4FFF7F2FF03BC01F01DF8CE
:100190000948804709480047FEE7FEE7FEE7FEE71B
:1001A000FEE7FEE7FEE7FEE7FEE7FEE70448054957
:1001B000054A064B70470000450F0008ED00000897
:1001C00068050020680B00206807002068070020F1
:1001D000704700000FB4044910B503AA029800F05C
:1001E000D3F810BC5DF814FB200000202DE9F0418D
:1001F0000E460446002020622046E168884730B35E
:10020000252805D0D4E901219047206A401CF2E757
:10021000E168204600278847050018D0A5F1410075
:10022000192802D820354FF4006732462946204667
:100230002760FFF795FF40B1012804D0F61D26F096
:1002400007060836D8E7361DD6E72846DAE7206ADB
:10025000BDE8F0812DE9F0410646002410687529BB
:10026000314616A510D0AFF30080002802DA4042D4
:1002700013A507E031688A0701D512A502E04907F6
:1002800004D511A5012401E0AFF3008000210A226A
:1002900006F1240709E0B0FBF2FCB0FBF2F302FB2D
:1002A0001C00303078541846491C0028F3D12346EE
:1002B0002A463046BDE8F04100F00CB800000000CE
:1002C0002D0000002B000000200000007047704748
:1002D000704770472DE9F0470D469946924604460F
:1002E00000F124080168880604D5E06921F01001B6
:1002F000216000E00120A84201DD471B00E000274B
:10030000A1697A1902EB0900081AA0612078C006D9
:1003100002D42046AFF30080002608E0D4E9012192
:100320001AF806009047206A401C761C20624E4551
:10033000F4DB2078C0060AD52046AFF3008006E043
:10034000D4E9012130209047206A401C2062381EE9
:10035000A7F10107F4DC07E0D4E9012118F8050052
:100360009047206A401C2062281EA5F10105F3DC9D
:100370002046AFF300802078000602D50220BDE8B9
:10038000F0870120FBE70000074B70B50D467B446A
:1003900000F011F80446284600F020F810B14FF0A4
:1003A000FF3070BD204670BD1B0F000001694A1C64
:1003B00002610878704700B58FB0CDE901310021A6
:1003C000059105497944CDE9031011466846FFF7C8
:1003D0000DFF0FB000BD0000E5FFFFFF007B00F048
:1003E00080007047754600F02BF8AE460500694660
:1003F000534620F00700854618B020B5FFF7D6FE1B
:10040000BDE820404FF000064FF000074FF0000815
:100410004FF0000B21F00701AC46ACE8C009ACE896
:10042000C009ACE8C009ACE8C0098D46704710B5FA
:100430000446AFF300802046BDE81040FFF7A2BE9F
:10044000004870470405002000BFFEE710B50446D1
:1004500000F0D0F822480078001120702048007881
:1004600000F00F0060701E4840780011A0701C481A
:10047000407800F00F00E07019488078001120717A
:100480001748807800F00F0060711548C07800119F
:10049000A0711348C07800F00F00E0711048C079D7
:1004A00000F0070020720E480079001160720C48BD
:1004B000007900F00F00A072094840790011E07245
:1004C0000748407900F00F0020730548807900113B
:1004D00060730348807900F00F00A07310BD000026
:1004E0001400002008B50121082000F025FC40F28E
:1004F0000340ADF8000010208DF8030003208DF8B4
:1005000002006946064800F034F90221044800F070
:10051000BDF940F20141024800F0B6F908BD000003
:10052000000C014070B5044600202F4908600A20E5
:1005300000F096FE01202D49C1F8A80144F0010405
:100540002B48006820F0F000294908600846006840
:1005500040F030000860002619E004F0010020B1EE
:10056000012021492439086003E000201E49243974
:10057000086001201C49283908600A2000F070FE3C
:1005800000201A49C1F880016410701CC6B2082E00
:10059000E3DB1748006820F0F000154908600846C2
:1005A000006840F080000860002616E06D100E48DC
:1005B000A438006810B145F0800501E005F07F0522
:1005C00001200949283908600A2000F049FE00206E
:1005D0000649C1F88001701CC6B2082EE6DB002077
:1005E00001490860284670BDA8812142008021424F
:1005F000000C014010B58C20FFF794FF11494870A2
:100600008820FFF78FFF0F4988708620FFF78AFF49
:100610000C49C8708420FFF785FF0A4908718220C1
:10062000FFF780FF074948718020FFF77BFF00F04C
:100630007F00044988718A20FFF774FF0149C8715F
:1006400010BD00001400002070B504460E460020C6
:100650002A4908600A2000F003FE01202849C1F859
:10066000A80104F0FE042748006820F0F0002549A6
:1006700008600846006840F030000860002519E076
:1006800004F0010020B101201C492439086003E076
:1006900000201A49243908600120184928390860C7
:1006A0000A2000F0DDFD00201549C1F8800164102A
:1006B000681CC5B2082DE3DB002519E006F0010037
:1006C00020B101200D492439086003E000200B49C6
:1006D0002439086001200949283908600A2000F0FF
:1006E000BFFD00200649C1F880017610681CC5B224
:1006F000082DE3DB00200149086070BDA88121427C
:1007000000802142000C014010B500218E20FFF72F
:100710009BFF80210846FFF797FF144841788C2003
:10072000FFF792FF114881788820FFF78DFF0F486F
:10073000C1788620FFF788FF0C4801798420FFF7F5
:1007400083FF0A4841798220FFF77EFF07488179BD
:100750008020FFF779FF0548C1798A20FFF774FFF1
:1007600080218E20FFF770FF10BD000014000020D4
:1007700070472DE9F04102460025002600200023A5
:100780000024002791F803C00CF00F0591F803C076
:100790000CF0100CBCF1000F03D091F802C04CEA31
:1007A000050591F800C0BCF1000F31D0146800209D
:1007B0002BE04FF0010C0CFA00F3B1F800C00CEA8A
:1007C00003069E4220D183004FF00F0C0CFA03F772
:1007D000BC4305FA03FC4CEA040491F803C0BCF1E5
:1007E000280F06D14FF0010C0CFA00FCC2F814C01F
:1007F0000AE091F803C0BCF1480F05D14FF0010C9D
:100800000CFA00FCC2F810C0401C0828D1D31460B8
:10081000B1F800C0BCF1FF0F34DD546800202EE0B9
:1008200000F1080C4FF0010808FA0CF3B1F800C011
:100830000CEA03069E4221D183004FF00F0C0CFA04
:1008400003F7BC4305FA03FC4CEA040491F803C027
:10085000BCF1280F05D100F1080C08FA0CF8C2F819
:10086000148091F803C0BCF1480F07D100F1080CC7
:100870004FF0010808FA0CF8C2F81080401C082854
:10088000CED35460BDE8F08141617047016170478B
:1008900000BFFEE708B50121042000F04DFA4FF437
:1008A000C850ADF8000048208DF8030069460248A2
:1008B000FFF75FFF08BD00000008014008B50121F7
:1008C000042000F039FA0820ADF8000010208DF85F
:1008D000030003208DF8020069460448FFF749FF32
:1008E00008210248FFF7D2FF08BD000000080140C0
:1008F00000BFFEE77047000070B5002100230F2203
:10090000C47804B3154C246804F4E064C4F5E064CE
:10091000210AC1F10403CA40447804FA03F184783F
:100920001440214309010E4C0678A155047804F0C7
:100930001F050124AC4005786D11AD0005F1E025DF
:10094000C5F8004109E0047804F01F050124AC401B
:10095000044D0678761145F8264070BD0CED00E098
:1009600000E400E080E100E002490143024A116036
:10097000704700000000FA050CED00E030B50024DF
:100980000CE0002506E00020074901EBC5010855F1
:10099000681CC5B2802DF6DB601CC4B2082CF0DBED
:1009A00000F0C6F830BD00003C000020F0B5144651
:1009B00000267F2801DC3F2900DDF0BD0B46CF1764
:1009C00001EB5777FF10C7F10707FAB2CF1701EB1A
:1009D0005777FF10A1EBC707FDB2C5F10707012349
:1009E000BB40DEB24CB10A4B03EBC0039B5C33430C
:1009F000074F07EBC007BB5408E0054B03EBC003F0
:100A00009B5CB343024F07EBC007BB5400BFD4E766
:100A10003C00002008B50121082000F08DF94FF4BA
:100A20007040ADF8000010208DF8030003208DF811
:100A3000020069463B48FFF79CFE01203A490860E6
:100A400000203A49C1F8B001642000F0E3FB012026
:100A50003549091F08600021AE2000F045F900214A
:100A6000D52000F041F90021502000F03DF900218F
:100A7000A82000F039F900213F2000F035F90021CD
:100A8000D32000F031F90021084600F02DF90021B3
:100A9000402000F029F900218D2000F025F90021E7
:100AA000142000F021F90021202000F01DF9002180
:100AB000022000F019F90021A12000F015F9002111
:100AC000C02000F011F90021DA2000F00DF900211A
:100AD000122000F009F90021812000F005F9002121
:100AE000EF2000F001F90021D92000F0FDF80021ED
:100AF000F12000F0F9F80021DB2000F0F5F80021EA
:100B0000302000F0F1F80021A42000F0EDF80021E1
:100B1000A62000F0E9F80021AF2000F0E5F8FFF78B
:100B20002DFF08BD000C0140B4812142008021420C
:100B300030B500241CE004F1B001C8B2002100F07F
:100B4000D3F80021084600F0CFF80021102000F073
:100B5000CBF8002508E0084901EBC501085D01213B
:100B600000F0C2F8681CC5B2802DF4DB601CC4B272
:100B7000082CE0DB30BD00003C0000202DE9F84FE0
:100B800080460F4616461C46BA462046E31704EB3D
:100B90005373DB1021464FEAE47C04EB5C7C4FEAA4
:100BA000EC0CA4EBCC0CBCF1000F02D04FF0010C0C
:100BB00001E04FF0000C6344224604EBD27C4FEA84
:100BC0006C0C03FB0CF303F0FF0BA6F12000C6B284
:100BD00000254EE00C2C07D106EB4600274901EB1F
:100BE0008000405D009013E0102C05D1244800EBFC
:100BF0000610405D00900BE0182C07D106EBC600F4
:100C0000204901EB8000405D009001E0BDE8F88FD5
:100C10004FF0000927E0009800F0800028B1394625
:100C200040460A9AFFF7C2FE09E00A9808B9012077
:100C300000E00020024639464046FFF7B7FE009824
:100C40004006000E0090781CC7B2A7EB0A00A04235
:100C500005D1574608F1010000F0FF0806E009F150
:100C6000010000F0FF09B9F1080FD4DB00BF681CD8
:100C7000C5B25D45AEDB00BFC8E7000094140008B4
:100C800008190008F81E0008F8B506460F46154674
:100C90001C4621E004EBD4714910C1F18001B1423E
:100CA00002DA00263819C7B2C4F14000B84204DAAB
:100CB000002006460746FFF761FE012000902A78D3
:100CC000234639463046FFF759FF204604EBD071E2
:100CD00006EB6101CEB26D1C28787E2802DC2878F4
:100CE0002028D7DAF8BD000010B5114B196000229A
:100CF00017E000230E4C241F236000F0800323B173
:100D000001230B4C241D236003E00023084C241D09
:100D100023600123064C241F23604306180E531C36
:100D2000DAB2082AE5DB0123014C236010BD000084
:100D3000B88121427047000029B1064A92690243F6
:100D4000044B9A6104E0034A92698243014B9A6121
:100D5000704700000010024030B50021002200243E
:100D600000232D4D6D6805F00C0121B1042905D03B
:100D7000082923D105E0294D056022E0274D0560B3
:100D80001FE0254D6D6805F47012234D6D6805F464
:100D90008034022505EB92421CB9214D5543056074
:100DA0000BE01D4D6D6805F400351DB11C4D55431C
:100DB000056002E0194D5543056002E0174D0560DE
:100DC00000BF00BF144D6D6805F0F0010909154D15
:100DD0006B5C0568DD4045600F4D6D6805F4E061B2
:100DE000090A104D6B5C4568DD4085600A4D6D68F1
:100DF00005F46051C90A0B4D6B5C4568DD40C56068
:100E0000054D6D6805F44041890B074D6B5CC56865
:100E1000B5FBF3F5056130BD0010024000127A0009
:100E200000093D002600002036000020704710B564
:100E300000F002F810BD00000CB5002001900090F9
:100E40003348006840F480303149086000BF3048C2
:100E5000006800F4003000900198401C0190009858
:100E600018B90198B0F5A06FF1D12948006800F4D5
:100E7000003010B10120009001E0002000900098A7
:100E8000012843D12348006840F010002149086040
:100E90000846006820F0030008600846006840F03B
:100EA000020008601A4840681949486008464068CE
:100EB00048600846406840F48060486008464068E2
:100EC00020F47C1048600846406840F4E810486010
:100ED0000846006840F08070086000BF0C48006859
:100EE00000F000700028F9D00948406820F00300A5
:100EF000074948600846406840F00200486000BF6B
:100F00000348406800F00C000828F9D10CBD00002F
:100F10000010024000200240042808D14FF0E021D8
:100F2000096941F004014FF0E022116107E04FF040
:100F3000E021096921F004014FF0E02211617047BE
:100F40007047000010B51348006840F001001149D7
:100F5000086008464068104908400E494860084645
:100F600000680E4908400B4908600846006820F4F4
:100F7000802008600846406820F4FE0048604FF476
:100F80001F008860FFF753FF4FF0006004490860BE
:100F900010BD0000001002400000FFF8FFFFF6FE49
:100FA00008ED00E010B540F225511D4800F04AF868
:100FB00010B31B4800F002F9C4B21A48008800F4CC
:100FC0000040C8B91748008800F4804060B10A2C7E
:100FD00003D000201349088020E01248008840F424
:100FE00000401049088019E00D2C06D10D480088FA
:100FF00040F480400B49088010E00A480088C0F3A4
:101000000D0009490C5407480088401C0549088018
:1010100008460088C72801DD0020088010BD0000B8
:1010200000380140240000203C04002021B18289C6
:1010300042F40052828104E082894DF6FF731A4027
:101040008281704770B502460024002300250020ED
:1010500040F66A16B14200D100BFC1F3421501F05B
:101060001F03012606FA03F3012D02D196893340AE
:1010700006E0022D02D1168A334001E0968A334001
:101080000C12012606FA04F41688344013B10CB190
:10109000012000E0002070BDF0B5034600240026CA
:1010A0000025002040F66A17B94200D100BF18465B
:1010B000C1F3421401F01F06012707FA06F5012CBF
:1010C00001D10C3004E0022C01D1103000E01430CA
:1010D0001AB107682F43076002E00768AF43076053
:1010E000F0BD00002DE9F04786B005460E4600240D
:1010F000A24600BFA1460027B08900B100BF2F461D
:101100002C8A4CF6FF700440F08804432C82AC8992
:101110004EF6F3100440B0883189084371890843C2
:101120000443AC81AC8A4FF6FF400440B0890443CD
:10113000AC8201A8FFF710FE1F48874202D1DDF8FC
:1011400010A001E0DDF80CA0A88900F4004040B137
:101150000AEBCA0000EB0A1031684900B0FBF1F855
:1011600007E00AEBCA0000EB0A1031688900B0FB07
:10117000F1F86420B8FBF0F004012009642101FBC0
:101180001089A88900F4004040B1322000EBC9006A
:10119000B0FBF1F000F00700044308E0322000EB60
:1011A00009106421B0FBF1F000F00F0004432C8122
:1011B00006B0BDE8F087000000380140014688888D
:1011C000C0F30800704700BFFEE7014600BF70474C
:1011D00010B56FF00400FFF79FFE0A4800680A4947
:1011E000B0FBF1F0094908700846007800EB4001B7
:1011F000C1EBC0104FF6FF7101EAC000044908803E
:1012000010BD00000000002000127A001C00002029
:101210001E0000200146114A12884A434FF0E02385
:101220005A6100229A611A46126942F001021A615B
:1012300000BF4FF0E022106900F001021AB100F483
:101240008032002AF5D04FF0E022126922F001022C
:101250004FF0E0231A6100229A6170471E000020BF
:101260000146114A12784A434FF0E0235A610022A6
:101270009A611A46126942F001021A6100BF4FF0EA
:10128000E022106900F001021AB100F48032002A55
:10129000F5D04FF0E022126922F001024FF0E02376
:1012A0001A6100229A6170471C00002000BF054AA5
:1012B000128802F04002002AF9D0C2B2014B1B1D75
:1012C0001A807047003801408AB0FFF781FF4FF461
:1012D000A060FFF749FB4FF4165000F08BF8FFF7C2
:1012E000EDFAFFF7D7FAFFF795FBFFF7FBF80A20B7
:1012F000FFF790FFFFF708FA27A0FEF76BFF102318
:1013000029A200212420FFF7BFFC102328A21946A0
:101310001420FFF7B9FCFFF70BFC3BE006A8FFF732
:1013200095F89DF81F009DF81E109DF81D209DF852
:101330001C30CDE90132CDE903109DF81B0000906F
:101340009DF81A309DF819209DF818101BA0FEF783
:1013500041FF9DF820109DF826009DF825209DF85E
:101360002430CDE90032CDE902019DF823309DF80B
:1013700022209DF8211017A0FEF72CFF4FF47A7061
:10138000FFF748FF1A48006808B9012000E0002074
:1013900017490860C2E7000044533133303220540B
:1013A0004553542C0D0A00005A2D53544D3332002E
:1013B000445331333032205445535400256425645E
:1013C00025642564C4EA25642564D4C225642564A3
:1013D000C8D5200025642564CAB125642564B7D624
:1013E00025642564C3EB20D0C7C6DA25640A000053
:1013F0008C01214210B586B00446012144F204005C
:10140000FFF79AFC4FF40070ADF8140003208DF83C
:10141000160018208DF8170005A91C48FFF7A9F938
:101420004FF48060ADF8140004208DF8170005A972
:101430001648FFF79EF925208DF8000003208DF84F
:1014400001008DF8020001208DF803006846FFF7C7
:1014500053FA01940020ADF80800ADF80A00ADF889
:101460000C00ADF810000C20ADF80E0001A90848E2
:10147000FFF738FE012240F225510548FFF70CFE28
:1014800001210348FFF7D2FD06B010BD000801405E
:1014900000380140000000000000000000000000D3
:1014A000000000003F40000000000000000030008D
:1014B000400030004000000009000BC03D000BC0A0
:1014C0003D00090018C024407FE022403180000028
:1014D000180024C01B000D803240018003801C4096
:1014E00027401C8007400040100060000000000002
:1014F000000000000000000000001F80204040208D
:101500000000402020401F8000000000090006006D
:101510001F80060009000000040004003F80040052
:101520000400000000100060000000000000000047
:101530000400040004000400040000000000004057
:101540000000000000000000002001C0060038007C
:10155000400000001F802040204020401F800000ED
:10156000000010403FC000400000000018C02140B3
:101570002240244018400000108020402440244095
:101580001B80000002000D0011003FC00140000060
:101590003C80244024402440238000001F802440BD
:1015A00024403440038000003000200027C0380071
:1015B000200000001B802440244024401B800000A9
:1015C0001C0022C0224022401F80000000000000BA
:1015D000084000000000000000000000046000005F
:1015E00000000000000004000A00110020804040BC
:1015F000090009000900090009000000000040403E
:10160000208011000A00040018002000234024005C
:10161000180000001F802040274029401F40000084
:10162000004007C039000F0001C0004020403FC00B
:10163000244024401B8000001F8020402040204088
:101640003080000020403FC0204020401F8000002C
:1016500020403FC024402E4030C0000020403FC00A
:1016600024402E00300000000F0010802040224057
:101670003380020020403FC0040004003FC02040EF
:10168000204020403FC0204020400000006020203B
:1016900020203FC02000200020403FC024400B00FD
:1016A00030C0204020403FC020400040004000C0EB
:1016B0003FC03C0003C03C003FC0000020403FC092
:1016C0000C4023003FC020001F80204020402040CD
:1016D0001F80000020403FC024402400180000006C
:1016E0001F802140214020E01FA0000020403FC07B
:1016F0002440260019C0004018C024402440224045
:1017000031800000300020403FC020403000000009
:1017100020003F80004000403F80200020003E002D
:1017200001C0070038002000380007C03C0007C097
:1017300038000000204039C0060039C020400000B9
:101740002000384007C0384020000000304021C051
:101750002640384020C00000000000007FE040200C
:1017600040200000000070000C00038000400000DA
:101770000000402040207FE000000000000020002A
:1017800040002000000000000010001000100010B9
:1017900000100010000000004000000000000000E9
:1017A000000002800540054003C0004020003FC00B
:1017B0000440044003800000000003800440044013
:1017C0000640000000000380044024403FC0004069
:1017D0000000038005400540034000000000044075
:1017E0001FC0244024402000000002E005500550A6
:1017F0000650042020403FC00440040003C00040C5
:101800000000044027C0004000000000001000104D
:10181000041027E00000000020403FC00140070006
:1018200004C00440204020403FC000400040000071
:1018300007C0040007C0040003C00000044007C044
:101840000440040003C00040000003800440044042
:1018500003800000041007F00450044003800000DF
:10186000000003800440045007F00010044007C04B
:10187000024004000400000000000640054005404E
:1018800004C00000000004001F800440004000006D
:10189000040007800040044007C000400400070027
:1018A00004C0018006000400060001C0070001C05A
:1018B00006000000044006C0010006C0044000000D
:1018C0000410071004E0018006000400000004403A
:1018D00005C00640044000000000000004007BE05A
:1018E00040200000000000000000FFF000000000A9
:1018F000000040207BE00400000000004000800069
:101900004000200020004000000000000000000017
:1019100000000000000000000000000000001FCCDC
:10192000000C000000000000000008003000600013
:101930000800300060000000022003FC1E2002208E
:1019400003FC1E200220000000000E1811043FFFBF
:1019500010840C78000000000F0010840F3800C0C5
:10196000077818840078000000780F8410C41124D0
:101970000E9800E400840008080068007000000071
:10198000000000000000000000000000000007E070
:10199000181820044002000000004002200418181B
:1019A00007E00000000000000240024001800FF04C
:1019B00001800240024000000080008000800FF89B
:1019C00000800080008000000001000D000E00007B
:1019D0000000000000000000000000800080008087
:1019E00000800080008000800000000C000C0000DF
:1019F0000000000000000000000000060018006069
:101A00000180060018002000000007F008081004FC
:101A10001004080807F000000000080408041FFC78
:101A2000000400040000000000000E0C101410243C
:101A3000104411840E0C000000000C181004110456
:101A4000110412880C700000000000E00320042440
:101A500008241FFC0024000000001F9810841104BB
:101A60001104108810700000000007F008881104AD
:101A7000110418880070000000001C00100010FC09
:101A800013001C001000000000000E3811441084E8
:101A9000108411440E38000000000700088C104428
:101AA0001044088807F00000000000000000030C4C
:101AB000030C00000000000000000000000101060F
:101AC0000000000000000000000000800140022033
:101AD0000410080810040000022002200220022046
:101AE0000220022002200000000010040808041058
:101AF000022001400080000000000E001200100CC7
:101B0000106C10800F00000003E00C1813E4142484
:101B100017C4082807D000000004003C03C41C4080
:101B2000074000E4001C000410041FFC1104110411
:101B300011040E880070000003E00C18100410045B
:101B4000100410081C10000010041FFC10041004E6
:101B50001004080807F0000010041FFC1104110411
:101B600017C410040818000010041FFC1104110011
:101B700017C010000800000003E00C181004100447
:101B800010441C780040000010041FFC10840080EA
:101B9000008010841FFC10040000100410041FFCBF
:101BA00010041004000000000003000110011001E7
:101BB0001FFE10001000000010041FFC1104038021
:101BC0001464181C1004000010041FFC100400040E
:101BD00000040004000C000010041FFC1F0000FCA7
:101BE0001F001FFC1004000010041FFC0C04030065
:101BF00000E010181FFC100007F008081004100483
:101C00001004080807F0000010041FFC1084108066
:101C1000108010800F00000007F008181024102416
:101C2000101C080A07F2000010041FFC1104110028
:101C300011C011300E0C000400000E1C11041084A1
:101C4000108410441C3800001800100010041FFC01
:101C5000100410001800000010001FF81004000409
:101C6000000410041FF8100010001E0011E0001CFA
:101C7000007013801C0010001FC0103C00E01F000B
:101C800000E0103C1FC000001004180C163401C006
:101C900001C01634180C100410001C00130400FCC2
:101CA00013041C00100000000804101C10641084B1
:101CB00013041C04101800000000000000007FFE48
:101CC0004002400240020000000030000C0003808F
:101CD0000060001C000300000000400240024002BF
:101CE0007FFE000000000000000000002000400017
:101CF0004000400020000000000100010001000140
:101D0000000100010001000100004000400020002F
:101D100000000000000000000000009801240144C1
:101D20000144014400FC000410001FFC0088010471
:101D300001040088007000000000007000880104A9
:101D40000104010400880000000000700088010404
:101D5000010411081FFC0004000000F801440144C4
:101D60000144014400C800000000010401040FFC0C
:101D70001104110411001800000000D601290129E6
:101D8000012901C90106000010041FFC00840100A4
:101D90000100010400FC000400000104190419FC06
:101DA0000004000400000000000000030001010125
:101DB000190119FE0000000010041FFC002400405F
:101DC00001B4010C010400000000100410041FFC09
:101DD0000004000400000000010401FC01040100F3
:101DE00001FC0104010000FC010401FC008401006D
:101DF0000100010400FC0004000000F801040104DB
:101E00000104010400F80000010101FF0085010444
:101E100001040088007000000000007000880104C8
:101E20000104010501FF00010104010401FC00841B
:101E30000104010001800000000000CC0124012405
:101E4000012401240198000000000100010007F8AE
:101E50000104010400000000010001F80004000476
:101E60000004010801FC0004010001800170000C65
:101E7000001001600180010001F0010C003001C080
:101E80000030010C01F0010000000104018C00741D
:101E90000170018C01040000010101810171000E3B
:101EA000001801600180010000000184010C013470
:101EB00001440184010C000000000000000000004B
:101EC00001003EFC40024002000000000000000053
:101ED000FFFF0000000000000000400240023EFC46
:101EE0000100000000000000000060008000800091
:101EF0004000400020002000000000000000000022
:101F000000000000000000000000000000000000D1
:101F100000000000000000000000000000000000C1
:101F200000000000000000000000000F80380FFEDD
:101F3000380F8038000000000000000000000000A2
:101F40000000000000000100000600000C00003846
:101F500000003100000600000C00003800003000D6
:101F6000000000000000000061800067F807F980B1
:101F70000061800061800061800061800067F80777
:101F8000F98000618000000000000000000001C036
:101F9000E003E0F00630080418081FFFFE040E08F6
:101FA0000787F00381E000000000000001F0000658
:101FB0000C00040408060C7001F9C0000E00003B80
:101FC000E000EC18070808040C180003E00000000B
:101FD0000001E00007F003F818041C0804170807C4
:101FE000E1D003C0E00023B0003C0800200800005E
:101FF000100000000000000100003100003200006D
:102000001C000000000000000000000000000000B4
:1020100000000000000000000000000000000000C0
:1020200000000000000000007F0001FFC00780F0FA
:102030000C00181000042000020000000000002026
:1020400000021000040C00180780F001FFC0007FA0
:102050000000000000000000000000000000000080
:10206000000000004200006600006600003C000026
:10207000180003FFC0001800003C00006600006666
:1020800000004200000000000800000800000800F6
:1020900000080000080001FFC00008000008000060
:1020A0000800000800000800000000000001000017
:1020B0003100003200001C000000000000000000A1
:1020C0000000000000000000000000000000000010
:1020D00008000008000008000008000008000008D0
:1020E00000000800000800000800000800000000D0
:1020F0000000000000000000380000380000380038
:1021000000000000000000000000000000000000CF
:102110000000000000000000000600001C0000702D
:10212000000180000E0000380000C0000700001C05
:102130000000300000000000000000007F8001FF70
:10214000E003807006001804000804000806001868
:1021500003807001FFE0007F8000000000000000AD
:10216000000001000801000801000803FFF807FF54
:10217000F80000080000080000080000000000004F
:1021800000000001C03802C058040098040118047F
:102190000218040418061C1803F81801E0F80000DF
:1021A0000000000000000001C0E003C0F0040008CF
:1021B00004080804080806180803F41801E7F000EA
:1021C00001E0000000000000000000000300000D1E
:1021D0000000110000610000810803010807FFF8FA
:1021E0000FFFF800010800010800000000000000D7
:1021F00000E007FCD00608080610080610080610C4
:1022000008061838060FF00607C00000000000009E
:10221000000000003F8001FFE00384300208180442
:102220001008041008041008071810030FF0000726
:10223000C000000000000000000003C00007000014
:102240000600000600F80607F806180006E000077A
:10225000000006000000000000000001E1E003F7BC
:10226000F0063410041808041808040C08040C08BC
:1022700006161803F3F001C1E000000000000000A2
:10228000F80003FC300306380402080402080402C4
:10229000080404100308F001FFC0007F00000000E4
:1022A000000000000000000000000000000000002E
:1022B0007038007038007038000000000000000026
:1022C000000000000000000000000000000000000E
:1022D00000000000301A00301C0000000000000068
:1022E00000000000000000000000000000000008E6
:1022F0000000140000220000410000808001004026
:102300000200200400100800080000000000000087
:1023100021000021000021000021000021000021F7
:102320000000210000210000210000210000000029
:102330000000000000000800080400100200200156
:1023400000400080800041000022000014000008CE
:102350000000000000000003C00004C000040000F2
:10236000080038080F380808380810000C3000073B
:10237000E00003C000000000000000003F8000FFFC
:10238000E0038070020F1006708804C08804830880
:10239000047F8802C09003012000FE400000080076
:1023A00000180001F8003E0801C20007020007E221
:1023B0000000FE00001FC80001F8000038000008FF
:1023C00004000807FFF807FFF804080804080804D9
:1023D000080804080806180803F41801E7F00001CB
:1023E000E0000000000000003F8001FFE00380707B
:1023F0000200180400080400080400080400100685
:1024000000200780C000000004000807FFF807FF55
:10241000F804000804000804000804001802001072
:1024200003807001FFE0007F8000000004000807C7
:10243000FFF807FFF804080804080804080804085F
:1024400008043E08040008060018010060000000AF
:1024500004000807FFF807FFF80408080408000450
:102460000800040800043E00060000060000018089
:1024700000000000000000003F8001FFE0038070CA
:102480000600180400080402080402080203F0070A
:1024900083F000020000020004000807FFF807FFB5
:1024A000F804080800080000080000080000080000
:1024B00004080807FFF807FFF80400080000000000
:1024C000000004000804000804000807FFF807FFE4
:1024D000F8040008040008040008000000000000E0
:1024E00000000000000600000700000104000104D5
:1024F000000104000307FFFE07FFFC0400000400C6
:102500000004000004000807FFF807FFF8040C08A7
:10251000001800003E0004C7800503C80600F80448
:10252000003804001800000804000807FFF807FF3F
:10253000F804000800000800000800000800000877
:1025400000000800001800006000000004000807F8
:10255000FFF807800807FC00007FC00003F80007B1
:10256000C000780007800807FFF807FFF80400089C
:1025700004000807FFF807000803C00000E000009F
:102580003800001E000007000001C00400F007FF33
:10259000F8040000000000007F8001FFE00380706D
:1025A00006001804000804000806001803003001A3
:1025B000FFE0007F8000000004000807FFF807FF2D
:1025C000F8040408040400040400040400040400E3
:1025D000060C0003F80001F00000000000000000FD
:1025E0007F8001FFE00380700600880400880400FB
:1025F000C806003C03003E01FFE6007F84000000A7
:1026000004000807FFF807FFF8040808040800049E
:102610000C00040F00040BC00610F003F03801E0BA
:102620000800000800000001E0F803F03006301058
:10263000041808041808040C08040C080206180200
:1026400007F00781E00000000180000600000400A0
:102650000004000004000807FFF807FFF804000862
:1026600004000004000006000001800004000007D0
:10267000FFE007FFF0040018000008000008000059
:102680000800000800000804001007FFE004000034
:1026900004000006000007E00007FE00041FE00041
:1026A00001F80000380001E0043E0007C000060009
:1026B0000004000004000007E00007FFC0041FF84A
:1026C0000007C007F80007FF80043FF80007C004B8
:1026D000F8000700000400000000000400080600E5
:1026E0001807C07805F1C8003E00001F800463E8A9
:1026F0000780F80600180400080000000400000627
:10270000000007800007E008047C08001FF80007AD
:10271000F800180804E008070000060000040000A4
:102720000000000100080600380400F80403E80473
:102730000F08047C0805F00807C00807001804000B
:102740006000000000000000000000000000000029
:102750000000003FFFFE20000220000220000220B7
:10276000000220000200000000000000000008003D
:102770000007000000C0000038000006000001C093
:1027800000003000000E000001000000000000000A
:102790000000200002200002200002200002200091
:1027A000023FFFFE000000000000000000000000EB
:1027B00000000000000000000008000010000030D1
:1027C00000002000003000001000000800000000A1
:1027D00000000000000001000001000001000001F5
:1027E00000000100000100000100000100000100E4
:1027F00000010000010000010000000000000000D6
:102800000020000020000010000010000000000068
:1028100000000000000000000000000000000000B8
:1028200000F00019F8001B180022080026080024F8
:1028300008002410003FF8001FF8000008000018EE
:1028400000000004000007FFF80FFFF00018180058
:102850001008002008002008003018001FF0000FAA
:10286000C00000000000000007C0001FF00018308A
:10287000002008002008002008003C08001C100070
:1028800000600000000000000000000007C0001F02
:10289000F00038180020080020080020080410105C
:1028A00007FFF80FFFF0000010000000000000001C
:1028B00000000007C0001FF00012300022180022A4
:1028C00008002208003208001E10000E2000000040
:1028D00000000000200000200800200801FFF8038D
:1028E000FFF8062008042008042008072000030041
:1028F0000000000000000000000E000E6E001FF33C
:102900000031B10020B10020B1003191001F13004F
:102910002E1E00200E00300000000004000807FFFB
:10292000F80FFFF800100800200000200000200829
:10293000003FF8001FF80000080000000000000041
:102940000000002008002008002008063FF8063F8D
:10295000F800000800000800000800000000000067
:102960000000000000000000030000030020010040
:102970002001002003063FFE063FFC00000000008F
:102980000000000000000004000807FFF80FFFF837
:10299000000188000300002FC00038F80020380034
:1029A00020080000080000000000000000000400F3
:1029B0000804000804000807FFF80FFFF8000008EB
:1029C00000000800000800000000000000200800CF
:1029D0003FF8003FF8001008002000003FF8003FDB
:1029E000F8001008002000003FF8003FF800000841
:1029F000000000002008003FF8003FF80010080029
:102A00001000002000002008003FF8001FF8000020
:102A1000080000000000000007C0000FF0001830A0
:102A2000003008002008002008003008001830009E
:102A30000FF00007C0000000000000002001003F70
:102A4000FF003FFF001011002009002008002008AF
:102A5000003038001FF0000FC00000000000000030
:102A600007C0001FF00038180020080020080020D0
:102A700009001011001FFF003FFF000001000000CF
:102A8000002008002008002008003FF8003FF80060
:102A90000808001008002008002000003000003066
:102AA00000000000000000000000000C78001E186C
:102AB0000033080023080021080021880021980025
:102AC00030F000386000000000000000200000200E
:102AD0000000200000FFF003FFF80020080020089D
:102AE000002008000030000000000000000000008E
:102AF0002000003FF0007FF80000180000080000F0
:102B000008002010003FF8007FF0000010000000D7
:102B1000000000002000003000003C00003F80006A
:102B200023F0000078000070002380003C0000309B
:102B300000002000002000003C00003FE00023F8DF
:102B40000000E0002700003E00003FE00021F80008
:102B500001E0003E000020000000000020080020EE
:102B600008003838003E680027800003C8002CF8B1
:102B70000038380020180020080000000000000085
:102B80002000003003003C01003F830023EC0000E4
:102B900070002380003C00002000002000000000A6
:102BA0000000000000000038080020380020F80075
:102BB00023E8002F88003E08003808002018000095
:102BC0007000000000000000000000000000000095
:102BD0000000000008000014001FF7FC3000062071
:102BE00000020000000000000000000000000000E3
:102BF00000000000000000000000FFFFFF000000D8
:102C000000000000000000000000000000000000C4
:102C100000002000023000061FF7FC00140000082E
:102C200000000000000000000000000000000000A4
:102C3000000000180000600000400000400000207C
:102C400000001000000800000400000400000C0058
:102C500000100000742C0008000000203C00000060
:102C600028010008B02C00083C0000202C0B0000BC
:102C70004401000800A24A04000000000000000017
:102C8000010203040607080920190101235955020E
:102C90000000000000000000000000000000010231
:102CA00003040102030406070809020406080000E1
:04000005080000ED02
:00000001FF
