:1012CA00636172206C696768742073797374656DE1
:1012DA000073706565643A000D0A00202020200022
:0312EA00303000A1
:0B13C600EF1FAC0670011E4C70F622F9
:100C4800E4F509F50A780B7C00FD7BFF7A1279EA56
:100C5800FE7F03120B8E121373120D4B12120F7BB1
:100C6800FF7A1279CA751310E4FDFF1211637BFF36
:100C78007A1279DB7513107D02E4FF121163050AFD
:100C8800E50A70020509C39420E509944E4073E40F
:100C9800F509F50A20A6217F64FE1213C620A64C8A
:100CA800208305750B308023208505750B30802641
:100CB800208739750B30802920A02B7F647E001295
:100CC80013C620A027208308750B31750C31801CB2
:100CD800208508750B31750C32801120870E750B35
:100CE80031750C338006750B30750C307B007A003B
:100CF800790B7D021212ED7BFF7A1279E27D0212E6
:100D080012EDE51E20E703020C86E51FF5087400C6
:100D18002508F582E43400F583E4F07BFF7A127944
:100D2800E57513107D047F2D1211637B017A00791C
:100D3800007513107D047F2D121163E4F51EF51F55
:030D4800020C8614
:0613E500021E0000C180A1
:10137300758920759850758DFA858D8BE4F587D224
:06138300AFD2ACD28E22B5
:0B13D1003000078F993099FDC299226F
:0612ED008B0E8A0F891030
:1012F300E4FEEEC39D5015AB0EAA0FA9108E8275A6
:0C1303008300120BB4FF1213D10E80E621
:01130F0022BB
:0300230002109038
:0F109000C0E0C083C082C0D075D000C004C007CC
:10109F0030984BC298AF99E51E20E74230E60CEF2F
:1010AF00640A60028032431E808033EF640D700546
:1010BF00431E408029E51E543FFC7400251FF58216
:1010CF0074003CF583EFF0051FE51F7002051ED37A
:0E10DF009413E51E94004006751E00751F0058
:0D10ED00D007D004D0D0D082D083D0E03224
:100026000000000000000000002F00000000070094
:10003600070000147F147F1400242A7F2A1200620E
:1000460064081323003649552250000005030000BA
:1000560000001C224100000041221C000014083E42
:1000660008140008083E0808000000A06000000808
:10007600080808080000606000000020100804025C
:10008600003E5149453E0000427F4000004261511A
:100096004946002141454B31001814127F100027B4
:1000A60045454539003C4A49493000017109050377
:1000B60000364949493600064949291E00003636A8
:1000C600000000005636000000081422410000140B
:1000D60014141414000041221408000201510906E8
:1000E60000324959513E007C1211127C007F494969
:1000F6004936003E41414122007F4141221C007F9A
:1001060049494941007F09090901003E4149497AA7
:10011600007F0808087F0000417F41000020404121
:100126003F01007F08142241007F40404040007F8D
:10013600020C027F007F0408107F003E4141413ED1
:10014600007F09090906003E4151215E007F091919
:1001560029460046494949310001017F0101003F16
:100166004040403F001F2040201F003F4038403F96
:1001760000631408146300070870080700615149FA
:10018600454300007F41410000552A552A5500008D
:1001960041417F000004020102040040404040400B
:1001A600000001020400002054545478007F4844A3
:1001B600443800384444442000384444487F0038DA
:1001C6005454541800087E0901020018A4A4A47C03
:1001D600007F080404780000447D400000408084CD
:1001E6007D00007F102844000000417F4000007C15
:1001F60004180478007C0804047800384444443821
:1002060000FC242424180018242418FC007C08046C
:10021600040800485454542000043F444020003C45
:100226004040207C001C2040201C003C4030403CCC
:10023600004428102844001CA0A0A07C004464545C
:100246004C441414141414140000000000000000A0
:100256000000000000000000000000F800000000A0
:10026600000000333000000000100C06100C0600E1
:10027600000000000000000040C07840C078400048
:10028600043F04043F040400007088FC08300000AA
:10029600001820FF211E0000F008F000E018000002
:1002A60000211C031E211E0000F0088870000000BB
:1002B6001E2123241927211010160E00000000000D
:1002C6000000000000000000000000E0180402002A
:1002D600000000071820400000020418E00000009B
:1002E6000040201807000000404080F08040400099
:1002F6000202010F01020200000000F000000000EF
:100306000101011F010101000000000000000000C2
:1003160080B0700000000000000000000000000037
:1003260000010101010101010000000000000000C0
:10033600003030000000000000000000806018045B
:10034600006018060100000000E010080810E00038
:10035600000F102020100F00001010F80000000001
:100366000020203F20200000007008080888700048
:1003760000302824222130000030088888483000C8
:100386000018202020110E000000C02010F80000E8
:1003960000070424243F240000F808888808080081
:1003A6000019212020110E0000E010888818000096
:1003B600000F112020110E0000380808C838080068
:1003C6000000003F000000000070880808887000E8
:1003D600001C222121221C0000E010080810E00069
:1003E6000000312222110F00000000C0C0000000F2
:1003F6000000003030000000000000800000000017
:10040600000080600000000000008040201008000E
:1004160000010204081020004040404040404000D7
:1004260004040404040404000008102040800000B2
:100436000020100804020100007048080808F000B7
:100446000000003036010000C030C828E810E00087
:100456000718272423140B000000C038E000000012
:10046600203C23020227382008F88888887000007C
:10047600203F202020110E00C03008080808380050
:10048600071820202010080008F808080810E000C7
:10049600203F202020100F0008F88888E808100068
:1004A600203F20202320180008F88888E80810003C
:1004B600203F200003000000C03008080838000074
:1004C60007182020221E020008F808000008F80875
:1004D600203F210101213F20000808F808080000FC
:1004E6000020203F2020000000000808F80808002F
:1004F600C08080807F00000008F888C028180800A7
:10050600203F20012638200008F8080000000000DF
:10051600203F20202020300008F8F800F8F80800D6
:10052600203F003F003F200008F830C00008F808D0
:10053600203F200007183F00E01008080810E000E0
:100546000F10202020100F0008F808080808F000F7
:10055600203F210101010000E01008080810E0001A
:100566000F18242438504F0008F8888888887000AF
:10057600203F2000030C302000708808080838004F
:100586000038202121221C00180808F80808180045
:100596000000203F2000000008F808000008F808C6
:1005A600001F202020201F000878880000C8380877
:1005B600000007380E010000F80800F80008F800EF
:1005C600033C0700073C0300081868808068180889
:1005D60020302C03032C30200838C800C838080007
:1005E6000000203F2000000010080808C838080056
:1005F6002038262120201800000000FE02020200FA
:100606000000007F40404000000C30C000000000A9
:10061600000000010638C00000020202FE000000D1
:10062600004040407F000000000004020202040077
:1006360000000000000000000000000000000000B4
:10064600808080808080808000020204000000009C
:100656000000000000000000000080808080000094
:100666000019242222223F2008F800808000000082
:10067600003F112020110E00000000808080000045
:10068600000E112020201100000000808088F80054
:10069600000E112020103F20000080808080000086
:1006A600001F222222221300008080F088888818EA
:1006B6000020203F202000000000808080808000F5
:1006C600006B94949493600008F80080808000008A
:1006D600203F210000203F20008098980000000065
:1006E6000020203F20200000000000809898000095
:1006F60000C08080807F000008F8000080808000B5
:10070600203F24022D302000000808F800000000D9
:100716000020203F20200000808080808080800094
:10072600203F20003F20003F808000808080000026
:10073600203F210000203F200000808080800000B4
:10074600001F202020201F008080008080000000E5
:1007560080FFA12020110E00000000808080800014
:10076600000E112020A0FF80808080008080800005
:1007760020203F2120000100000080808080800032
:100786000033242424241900008080E080800000A7
:100796000000001F202000008080000000808000F4
:1007A600001F202020103F20808080000080808055
:1007B60000010E30080601008080008000808080E5
:1007C6000F300C030C300F0000808000808080000A
:1007D6000020312E0E312000808080000080808035
:1007E60080818E70180601000080808080808000E5
:1007F6000021302C2221300000000000807C020203
:1008060000000000003F404000000000FF00000024
:1008160000000000FF0000000002027C80000000D3
:100826000040403F000000000006010102020404EF
:100836000000000000000000109453321E325210D7
:10084600007E4242427E00000000000000000000E0
:100856000000000000000000000000FF494949496F
:10086600494949FF000000000000000000000000A8
:10087600000000000000000008CC4A49484ACC1895
:10088600007F88888482E0000000000000000000ED
:10089600000000000000000000FF121252927F00CC
:1008A600007E88888482E0000000000000000000CE
:1008B6000000000000000000202020FF20201090F3
:1008C60011161010D01000000000000000000000FB
:1008D60000000000000000001030100F08484041E2
:1008E6005E40704E414040000000000000000000E5
:1008F6000000000000000000202020FF202202FE51
:100906000202625A46C0000000000000000000001B
:1009160000000000000000000818080744348E811B
:1009260046281028468180000000000000000000D4
:1009360000000000000000001090FF9010E2222A44
:100946002AF22A2622E00000000000000000000033
:1009560000000000000000000601FF0001FF090979
:10096600097F0949897F000000000000000000009F
:1009760000000000000000001060028C0000FE92E3
:1009860092929292FE00000000000000000000001B
:10099600000000000000000004047E01407E424288
:1009A6007E427E42427E40000000000000000000C1
:1009B60000000000000000000000FC242424FC25A8
:1009C6002624FC242424040000000000000000006B
:1009D600000000000000000040308F80844C552548
:1009E6002525554C80808000000000000000000096
:1009F6000000000000000000100C4424148445266A
:100A06004484142444140C0000000000000000007C
:100A16000000000000000000040402FE45444444B7
:100A2600444445FE020404000000000000000000EB
:100A36000000000000000000202020BEAAAAAAAAEA
:100A4600AAAAAABE20202000000000000000000084
:100A56000000000000000000008080AFAAAAAAFFE4
:100A6600AAAAAAAF808000000000000000000000D3
:100A7600000000000000000000F80122A0A2A2224F
:100A8600FE22AA3202FE0000000000000000000064
:100A9600000000000000000000FF0010130A4B20B9
:100AA600170C133880FF0000000000000000000053
:080AB600000000000000000038
:10131000EF4E60157D087C07ED1DAA0470011C4A84
:0913200070F6EF1F70EA1E80E771
:0113290022A1
:0913DC00D281D280C280C28122BC
:0713EC00D281C280D28022F1
:0B139A001212481213A5AF04121248F3
:0513A500D281C281228B
:07124100AC071213DC7F78FB
:10124800C281E4FEEEC3940874809480501BAD07FD
:10125800530580ED64807004D2808002C280EF253F
:09126800E0FFD281C2810E80DB9F
:01127100225A
:0E13AA001212411213A5E4FF12139A0213EC63
:0E13B8001212411213A57F4012139A0213EC79
:10127200EF24B0FFEE33FEE4FDFC12128DE4FDFC20
:0B128200FFFE12128D7F10E4FDFCFE49
:10128D00AB07AA06ED4C60030213B8AF031213AA05
:01129D00222E
:0211A7008F3582
:1011A900E4F9E9FF7E00C394087480948050231207
:1011B9001272E4F536C3E536948074809480500F3A
:1011C900AF357E007D017C0012128D053680E6095F
:0211D90080D0C4
:0111DB0022F1
:10000300D3EF9400EE940040147D657C18ED1D70D1
:0D001300011CED4C70F7EF1F70E61E80E33E
:0100200022BD
:10132A00EF1FAA0670011E4A600FE4FDEDC3947B0D
:09133A007480948050EA0D80F3E8
:011343002287
:10129E00A907ED24B0FFE433FEE4FDFC12128DE944
:1012AE0054F0C4540F7E004410FFE4FDFC12128D66
:0C12BE00E9540FFF7E00E4FDFC02128DDD
:10135C007F8D121289E4FDFC7F14FE12128DE4FDC8
:07136C00FC7FAFFE02128DB1
:10138900E4FDFC7F8D121283E4FDFC7FAEFE0212A8
:011399008DC6
:10120F00E4F9E9FF7E00C3940874809480502212A1
:10121F001272E4F50EC3E50E948074809480500E24
:10122F007D017C00E4FFFE12128D050E80E7098020
:01123F00D1DD
:01124000228B
:1011DC00E4F9E9FF7E00C3940874809480502312D4
:1011EC001272E4F537C3E537948074809480500F05
:1011FC007D017C007F017E0012128D053780E6098F
:02120C0080D090
:01120E0022BD
:040E2B008F158D167C
:100E2F00E4F519F9EB24E0F519D3EF947F7480946E
:100E3F00804007E4F51505160516E5186410707A5D
:100E4F00AD16AF1512129EE4F9E9C394087480949D
:100E5F0080502975F010E519A429F582E435F0F5D5
:100E6F0083E582244EF582E5833402F583E493FF14
:100E7F007E007D017C0012128D0980CDE51604FDE8
:100E8F00AF1512129EE4F9E9C39408748094805050
:100E9F006575F010E519A429F582E435F0F583E5C1
:100EAF00822456F582E5833402F583E493FF7E00B6
:100EBF007D017C0012128D0980CDAD16AF15121277
:100ECF009EE4F9E9C3940674809480502975F00666
:100EDF00E519A42426F582E5F03400F583E582298F
:100EEF00F582E43583F583E493FF7E007D017C007A
:060EFF0012128D0980CDE6
:010F050022C9
:041344008F38A90530
:101348007F017E00AD0119ED6009AD387C00120BFC
:03135800E180F140
:01135B00226F
:081016008F2C8D2D8A2E8B2FEB
:10101E00E4F534F532E532C395305065C3E53095CD
:10102E003214FD7F0A121344AC2EAD2FCFCDCFCE8E
:10103E00CCCE120BF37C007D0A120BF38D33E5340C
:10104E007023E53014FFE532C39F5019E53370125B
:10105E00E531C3138532F0A4252CFF8531187B2092
:10106E008016753401E531C3138532F0A4252CFFAB
:10107E00E5332430FB853118AD2D120E2B05328051
:01108E0094CD
:01108F00223E
:0A1163008F0E8D0F8B108A11891278
:10116D00E4F514AB10AA11A912851482758300122F
:10117D000BB4FB6024851318AD0FAF0E120E2B743C
:10118D0008250EF50ED39478748094804007E4F50D
:09119D000E050F050F051480CAB0
:0111A6002226
:060F92008F1A8D1B8B1C61
:100F9800E4F51D12129EE4F9E9C39410748094805C
:100FA800502B75F040E51CA4243EF582E5F034088A
:100FB800F583E58229F582E43583F583E493FF7EA2
:100FC800007D017C0012128D051D0980CBE51B04F4
:100FD800FDAF1A12129EE4F9E9C39410748094804C
:100FE800502B75F040E51CA4245EF582E5F034082A
:100FF800F583E58229F582E43583F583E493FF7E62
:0D100800007D017C0012128D051D0980CBBA
:0110150022B8
:0410FA008F218B2394
:1010FE00E4F528F529E5245407700BE524131313A2
:10110E00541FF52B800AE524131313541F04F52BDB
:10111E008D2BE52BC39524503BAD2BAF2112129E88
:10112E0085212AE52AC395235026AB25AA26A92771
:10113E000529E529AE287002052814F5828E831242
:10114E000BB4FF7E007D017C0012128D052A80D328
:04115E00052B80BE1F
:01116200226A
:100D4B00E4FDFC7FAEFE12127CE4FDFC7F40FE1244
:100D5B00128DE4FDFC7FB0FE12128DE4FDFC7F8151
:100D6B00FE12128DE4FDFC7FFFFE12128DE4FDFCE2
:100D7B007FA1FE12128DE4FDFC7FA6FE12128DE404
:100D8B00FDFC7FA8FE12128DE4FDFC7F3FFE1212CC
:100D9B008DE4FDFC7FC8FE12128DE4FDFC7FD3FEBB
:100DAB0012128DE4FDFCFFFE12128DE4FDFC7FD5CB
:100DBB00FE12128DE4FDFC7F80FE12128DE4FDFC11
:100DCB007FD8FE12128DE4FDFC7F05FE12128DE41E
:100DDB00FDFC7FD9FE12128DE4FDFC7FF1FE121299
:100DEB008DE4FDFC7FDAFE12128DE4FDFC7F12FE1A
:100DFB0012128DE4FDFC7FDBFE12128DE4FDFC7FF5
:100E0B0030FE12128DE4FDFC7F8DFE12128DE4FD7F
:100E1B00FC7F14FE12128DE4FDFC7FAFFE02128DDF
:03000000020F06E6
:0C0F0600787FE4F6D8FD758138020F4DAD
:100ABE00E709F608DFFA8046E709F208DFFA803E1A
:100ACE0088828C83E709F0A3DFFA8032E309F60807
:100ADE00DFFA8078E309F208DFFA807088828C836F
:100AEE00E309F0A3DFFA806489828A83E0A3F60823
:100AFE00DFFA805889828A83E0A3F208DFFA804CFD
:100B0E0080D280FA80C680D4806980F280338010D3
:100B1E0080A680EA809A80A880DA80E280CA80333C
:100B2E0089828A83ECFAE493A3C8C582C8CCC583B4
:100B3E00CCF0A3C8C582C8CCC583CCDFE9DEE78084
:100B4E000D89828A83E493A3F608DFF9ECFAA9F003
:100B5E00EDFB2289828A83ECFAE0A3C8C582C8CC59
:100B6E00C583CCF0A3C8C582C8CCC583CCDFEADE72
:100B7E00E880DB89828A83E493A3F208DFF980CCD4
:100B8E0088F0EF60010E4E60C388F0ED2402B404CD
:100B9E000050B9F582EB2402B4040050AF23234574
:060BAE008223900B0E7380
:100BB400BB010CE58229F582E5833AF583E02250F6
:100BC40006E92582F8E622BBFE06E92582F8E22240
:0D0BD400E58229F582E5833AF583E493225A
:100BE100EF8DF0A4A8F0CF8CF0A428CE8DF0A42E28
:020BF100FE22E2
:100BF300BC000BBE0029EF8DF084FFADF022E4CCE6
:100C0300F875F008EF2FFFEE33FEEC33FCEE9DECAE
:100C1300984005FCEE9DFE0FD5F0E9E4CEFD22EDF4
:100C2300F8F5F0EE8420D21CFEADF075F008EF2F3E
:100C3300FFED33FD4007985006D5F0F222C398FD2F
:050C43000FD5F0EA22CC
:100F1200020C48E493A3F8E493A34003F68001F2A1
:100F220008DFF48029E493A3F85407240CC8C333E0
:100F3200C4540F4420C8834004F456800146F6DFAF
:100F4200E4800B01020408102040809013E5E47E47
:100F5200019360BCA3FF543F30E509541FFEE493A4
:100F6200A360010ECF54C025E060A840B8E493A36B
:100F7200FAE493A3F8E493A3C8C582C8CAC583CA96
:100F8200F0A3C8C582C8CAC583CADFE9DEE780BE4E
:0113EB000001
:00000001FF
