:0316A9000D0A0027
:09164300023600000333303000D0
:041663007F107E274F
:0B166700EF1FAC0670011E4C70F62255
:100CFE0075100AE4F511FBAD11AF101211A9E51034
:100D0E002412FF7B01AD111211A9E5102424FF7BE3
:100D1E0002AD111211A9E5102436FF7B03AD11129D
:100D2E0011A9E5102448FF7B04AD111211A9E5109D
:100D3E00245AFF7B05AD111211A9E4F510751102AD
:100D4E00E510240AFF7B0DAD111211A9E510241C2C
:100D5E00FF7B0EAD111211A9E4F510751102E5100D
:100D6E002436FF7B07AD111211A9E5102448FF7B35
:100D7E0008AD111211A9E4F510751102E5102460E9
:100D8E00FF7B02AD111211A9E5102470FF7B03AD9C
:100D9E00111211A9751104E4F510751601751710CD
:100DAE007B01FAAD11AF1012122DE5102412FF7B4C
:100DBE000BAD111211A9E5102424FF7B0CAD1112FD
:100DCE0011A9751106E4F5107516017517107B0241
:100DDE00FAAD11AF1012122DE5102412FF7B0BADE0
:100DEE00111211A9E5102424FF7B0CAD110211A9DB
:021502008F094F
:10150400750A3EE4F50BEF64017005750B04800960
:10151400E5096402700C750B067B0FAD0BAF0A1264
:0215240011A90B
:0115260022A2
:021527008F1023
:1015290075113EE4F512EF64017005751204800926
:10153900E5106402700C7512067B10AD12AF111222
:0215490011A9E6
:01154B00227D
:02154C008F0905
:10154E00750A68E4F50BEF64017005750B048009EC
:10155E00E5096402700C750B067B11AD0BAF0A1218
:02156E0011A9C1
:011570002258
:021571008F10D9
:10157300751168E4F512EF640170057512048009B2
:10158300E5106402700C7512067B12AD12AF1112D6
:0215930011A99C
:011595002233
:101310008F08EF641070097F0112150275333122B6
:10132000E508642070097F0212150275343122E548
:10133000086411700C7F011215027533317F018032
:1013400010E508642170117F021215027534317F97
:091350000212154CC282C2872270
:100FB90012161C120DFE121447120CFE7F01121597
:100FC900277F021215270537E53770020536AE3639
:100FD900FFE4FCFD7B507AC3F9F8C3121107701EB8
:100FE900F536F537E533B430057F01121527E534B9
:100FF900B430057F0212152775333075343020A6B9
:10100900C57F647E0012166720A657D282D2877FD9
:10101900011215717F021215717FF012168E7BFF76
:101029007A1679A97D021215961216637FF01216A7
:101039008E7BFF7A1679A97D021215961216637FA7
:10104900F012168E7BFF7A1679A97D021215961277
:1010590016637FF012168E7BFF7A1679A97D02122C
:0A106900159630A603020FCF80F8A1
:100026000000000000000000002F00000000070094
:10003600070000147F147F1400242A7F2A1200620E
:1000460064081323003649552250000005030000BA
:1000560000001C224100000041221C000014083E42
:1000660008140008083E0808000000A06000000808
:10007600080808080000606000000020100804025C
:10008600003E5149453E0000427F4000004261511A
:100096004946002141454B31001814127F100027B4
:1000A60045454539003C4A49493000017109050377
:1000B60000364949493600064949291E00003636A8
:1000C600000000005636000000081422410000140B
:1000D60014141414000041221408000201510906E8
:1000E60000324959513E007C1211127C007F494969
:1000F6004936003E41414122007F4141221C007F9A
:1001060049494941007F09090901003E4149497AA7
:10011600007F0808087F0000417F41000020404121
:100126003F01007F08142241007F40404040007F8D
:10013600020C027F007F0408107F003E4141413ED1
:10014600007F09090906003E4151215E007F091919
:1001560029460046494949310001017F0101003F16
:100166004040403F001F2040201F003F4038403F96
:1001760000631408146300070870080700615149FA
:10018600454300007F41410000552A552A5500008D
:1001960041417F000004020102040040404040400B
:1001A600000001020400002054545478007F4844A3
:1001B600443800384444442000384444487F0038DA
:1001C6005454541800087E0901020018A4A4A47C03
:1001D600007F080404780000447D400000408084CD
:1001E6007D00007F102844000000417F4000007C15
:1001F60004180478007C0804047800384444443821
:1002060000FC242424180018242418FC007C08046C
:10021600040800485454542000043F444020003C45
:100226004040207C001C2040201C003C4030403CCC
:10023600004428102844001CA0A0A07C004464545C
:100246004C441414141414140000000000000000A0
:100256000000000000000000000000F800000000A0
:10026600000000333000000000100C06100C0600E1
:10027600000000000000000040C07840C078400048
:10028600043F04043F040400007088FC08300000AA
:10029600001820FF211E0000F008F000E018000002
:1002A60000211C031E211E0000F0088870000000BB
:1002B6001E2123241927211010160E00000000000D
:1002C6000000000000000000000000E0180402002A
:1002D600000000071820400000020418E00000009B
:1002E6000040201807000000404080F08040400099
:1002F6000202010F01020200000000F000000000EF
:100306000101011F010101000000000000000000C2
:1003160080B0700000000000000000000000000037
:1003260000010101010101010000000000000000C0
:10033600003030000000000000000000806018045B
:10034600006018060100000000E010080810E00038
:10035600000F102020100F00001010F80000000001
:100366000020203F20200000007008080888700048
:1003760000302824222130000030088888483000C8
:100386000018202020110E000000C02010F80000E8
:1003960000070424243F240000F808888808080081
:1003A6000019212020110E0000E010888818000096
:1003B600000F112020110E0000380808C838080068
:1003C6000000003F000000000070880808887000E8
:1003D600001C222121221C0000E010080810E00069
:1003E6000000312222110F00000000C0C0000000F2
:1003F6000000003030000000000000800000000017
:10040600000080600000000000008040201008000E
:1004160000010204081020004040404040404000D7
:1004260004040404040404000008102040800000B2
:100436000020100804020100007048080808F000B7
:100446000000003036010000C030C828E810E00087
:100456000718272423140B000000C038E000000012
:10046600203C23020227382008F88888887000007C
:10047600203F202020110E00C03008080808380050
:10048600071820202010080008F808080810E000C7
:10049600203F202020100F0008F88888E808100068
:1004A600203F20202320180008F88888E80810003C
:1004B600203F200003000000C03008080838000074
:1004C60007182020221E020008F808000008F80875
:1004D600203F210101213F20000808F808080000FC
:1004E6000020203F2020000000000808F80808002F
:1004F600C08080807F00000008F888C028180800A7
:10050600203F20012638200008F8080000000000DF
:10051600203F20202020300008F8F800F8F80800D6
:10052600203F003F003F200008F830C00008F808D0
:10053600203F200007183F00E01008080810E000E0
:100546000F10202020100F0008F808080808F000F7
:10055600203F210101010000E01008080810E0001A
:100566000F18242438504F0008F8888888887000AF
:10057600203F2000030C302000708808080838004F
:100586000038202121221C00180808F80808180045
:100596000000203F2000000008F808000008F808C6
:1005A600001F202020201F000878880000C8380877
:1005B600000007380E010000F80800F80008F800EF
:1005C600033C0700073C0300081868808068180889
:1005D60020302C03032C30200838C800C838080007
:1005E6000000203F2000000010080808C838080056
:1005F6002038262120201800000000FE02020200FA
:100606000000007F40404000000C30C000000000A9
:10061600000000010638C00000020202FE000000D1
:10062600004040407F000000000004020202040077
:1006360000000000000000000000000000000000B4
:10064600808080808080808000020204000000009C
:100656000000000000000000000080808080000094
:100666000019242222223F2008F800808000000082
:10067600003F112020110E00000000808080000045
:10068600000E112020201100000000808088F80054
:10069600000E112020103F20000080808080000086
:1006A600001F222222221300008080F088888818EA
:1006B6000020203F202000000000808080808000F5
:1006C600006B94949493600008F80080808000008A
:1006D600203F210000203F20008098980000000065
:1006E6000020203F20200000000000809898000095
:1006F60000C08080807F000008F8000080808000B5
:10070600203F24022D302000000808F800000000D9
:100716000020203F20200000808080808080800094
:10072600203F20003F20003F808000808080000026
:10073600203F210000203F200000808080800000B4
:10074600001F202020201F008080008080000000E5
:1007560080FFA12020110E00000000808080800014
:10076600000E112020A0FF80808080008080800005
:1007760020203F2120000100000080808080800032
:100786000033242424241900008080E080800000A7
:100796000000001F202000008080000000808000F4
:1007A600001F202020103F20808080000080808055
:1007B60000010E30080601008080008000808080E5
:1007C6000F300C030C300F0000808000808080000A
:1007D6000020312E0E312000808080000080808035
:1007E60080818E70180601000080808080808000E5
:1007F6000021302C2221300000000000807C020203
:1008060000000000003F404000000000FF00000024
:1008160000000000FF0000000002027C80000000D3
:100826000040403F000000000006010102020404EF
:100836000000000000000000106000FC04242424D6
:1008460025E6242424240400000000000000000003
:1008560000000000000000008442310F00FF110973
:1008660005030559817F000000000000000000001C
:1008760000000000000000000000FC24242425667F
:10088600A4242424243C00000000000000000000F2
:10089600000000000000000040300F8141310F09C8
:1008A60009094989790100000000000000000000E4
:1008B600000000000000000000FC0404FC0004141A
:1008C6006404FE0243320000000000000000000045
:1008D6000000000000000000000F04040F000101EA
:1008E60041817F01010101000000000000000000BD
:1008F600000000000000000000FC040404FC0000EE
:10090600FC00000000FF00000000000000000000E6
:100916000000000000000000000F0404040F0000A7
:100926000F04020201FF00000000000000000000AA
:100936000000000000000000000022322AA6A26289
:1009460021110981010000000000000000000000E4
:100956000000000000000000004222130B42827ECD
:1009660002020A12234600000000000000000000F8
:1009760000000000000000002030AC63300088C892
:10098600A8998E88A8C88800000000000000000012
:100996000000000000000000226722121280403092
:1009A6000F00003F40407100000000000000000002
:1009B60000000000000000000000E28282828282C5
:1009C600828282FE0000000000000000000000009D
:1009D600000000000000000000003F404040404092
:1009E6004040404040780000000000000000000049
:1009F6000000000000000000404042CC00044464B7
:100A06005C47F44444440400000000000000000079
:100A160000000000000000000040201F2044444465
:100A260044447F44444444000000000000000000A9
:100A36000000000000000000101010FF1050445489
:100A460065C64464544440000000000000000000F5
:100A560000000000000000000444827F0182824AF8
:100A6600562322524E8202000000000000000000C1
:100A76000000000000000000004042445840407F53
:100A860040405048C6000000000000000000000082
:100A96000000000000000000004044444444444478
:100AA60044444444FF000000000000000000000031
:100AB60000000000000000000808E8292E28E808C9
:100AC60008C80C0BE8080800000000000000000041
:100AD60000000000000000000000FF0949897F00B7
:100AE600000F40807F0000000000000000000000B2
:100AF6000000000000000000808080BEA2A2A2A22A
:100B0600A2A2A2BE808080000000000000000000BB
:100B160000000000000000000000000605040404B8
:100B26004484443C00000000000000000000000077
:100B360000000000000000000000FC04444444459E
:100B4600F644444444440400000000000000000051
:100B5600000000000000000040300F2010080601D1
:100B6600FF01060810202000000000000000000021
:100B76000000000000000000002020100814678418
:100B86004424140C000000000000000000000000D7
:100B9600000000000000000004040402FE4343427B
:100BA60042424242FE000000000000000000000039
:100BB60000000000000000002424A4FE2322403090
:100BC6000F08C808082818000000000000000000F0
:100BD6000000000000000000080601FF0102100CE2
:100BE60043807F000106180000000000000000009E
:100BF60000000000000000000000000000000000EF
:100C0600000000C0300C03000000000000000000DF
:100C1600000000000000000000000010080418207A
:100C2600100C03000000000000000000000000009F
:100C360000000000000000000000000810204080B6
:100C46004020100800000000000000000000000026
:100C5600000000000000000000000008040201007F
:100C6600010204080000000000000000000000006F
:100C76000000000000000000FFFFFFFFFFFFFFFF76
:100C8600FFFFFFFFFFFFFFFF000000000000000066
:100C96000000000000000000FFFFFFFFFFFFFFFF56
:100CA600FFFFFFFFFFFFFFFF000000000000000046
:100CB600000000000000000000000000000000002E
:100CC600000000000000000000000000000000001E
:100CD600000000000000000000000000000000000E
:100CE60000000000000000000000000000000000FE
:080CF6000000000000000000F6
:1015B900EF4E60157D087C07ED1DAA0470011C4AD9
:0915C90070F6EF1F70EA1E80E7C6
:0115D20022F6
:09169900D281D280C280C28122FC
:0716A200D281C280D2802238
:0B16530012148012165EAF0412148007
:05165E00D281C28122CF
:07147900AC071216997F7801
:10148000C281E4FEEEC3940874809480501BAD07C3
:10149000530580ED64807004D2808002C280EF2505
:0914A000E0FFD281C2810E80DB65
:0114A9002220
:0E16720012147912165EE4FF1216530216A22D
:0E16800012147912165E7F401216530216A243
:1014AA00EF24B0FFEE33FEE4FDFC1214C5E4FDFCAC
:0B14BA00FFFE1214C57F10E4FDFCFED5
:1014C500AB07AA06ED4C6003021680AF0312167235
:0114D50022F4
:0213DF008F3845
:1013E100E4F9E9FF7E00C3940874809480502312CD
:1013F10014AAE4F539C3E539948074809480500FC0
:10140100AF387E007D017C001214C5053980E609E4
:0214110080D089
:0114130022B6
:10000300D3EF9400EE940040147D657C18ED1D70D1
:0D001300011CED4C70F7EF1F70E61E80E33E
:0100200022BD
:1015D300EF1FAA0670011E4A600FE4FDEDC3947B62
:0915E3007480948050EA0D80F33D
:0115EC0022DC
:1014D600A907ED24B0FFE433FEE4FDFC1214C5E9D0
:1014E60054F0C4540F7E004410FFE4FDFC1214C5F2
:0C14F600E9540FFF7E00E4FDFC0214C569
:101605007F8D1214C1E4FDFC7F14FE1214C5E4FDA8
:07161500FC7FAFFE0214C5CB
:10163200E4FDFC7F8D1214BBE4FDFC7FAEFE0214C0
:01164200C5E2
:10144700E4F9E9FF7E00C394087480948050221267
:1014570014AAE4F510C3E510948074809480500EAC
:101467007D017C00E4FFFE1214C5051080E70980AA
:01147700D1A3
:011478002251
:10141400E4F9E9FF7E00C394087480948050231299
:1014240014AAE4F53CC3E53C948074809480500F86
:101434007D017C007F017E001214C5053C80E60915
:0214440080D056
:011446002283
:040EDE008F1B8D1CBD
:100EE200E4F51FF9EB24E0F51FD3EF947F748094AF
:100EF200804007E4F51B051C051CE51E6410707A92
:100F0200AD1CAF1B1214D6E4F9E9C39408748094A3
:100F120080502975F010E51FA429F582E435F0F51B
:100F220083E582244EF582E5833402F583E493FF60
:100F32007E007D017C001214C50980CDE51C04FDF4
:100F4200AF1B1214D6E4F9E9C3940874809480505C
:100F52006575F010E51FA429F582E435F0F583E507
:100F6200822456F582E5833402F583E493FF7E0002
:100F72007D017C001214C50980CDAD1CAF1B12147B
:100F8200D6E4F9E9C3940674809480502975F0067A
:100F9200E51FA42426F582E5F03400F583E58229D5
:100FA200F582E43583F583E493FF7E007D017C00C6
:060FB2001214C50980CDF8
:010FB8002216
:0415ED008F1BA905A2
:1015F1007F017E00AD0119ED6009AD1B7C00121069
:03160100A080F1D5
:0116040022C3
:08122D008F128D138A148B153A
:10123500E4F51AF518E518C395165065C3E5169536
:101245001814FD7F0A1215EDAC14AD15CFCDCFCE18
:10125500CCCE1210B27C007D0A1210B28D19E51A9F
:101265007023E51614FFE518C39F5019E519701290
:10127500E517C3138518F0A42512FF85171E7B20DB
:101285008016751A01E517C3138518F0A42512FFFA
:10129500E5192430FB85171EAD13120EDE051880E7
:0112A50094B4
:0112A6002225
:0A1359008F2C8D2D8B2E8A2F8930EA
:10136300E4F532AB2EAA2FA93085328275830012A1
:101373001073FB602485311EAD2DAF2C120EDE746D
:1013830008252CF52CD39478748094804007E4F5D9
:091393002C052D052D053280CA40
:01139C00222E
:0611A9008F138D148B155D
:1011AF00E4F5161214D6E4F9E9C394107480948010
:1011BF00502B75F040E515A4243EF582E5F0340878
:1011CF00F583E58229F582E43583F583E493FF7E89
:1011DF00007D017C001214C505160980CBE51404AF
:1011EF00FDAF131214D6E4F9E9C394107480948000
:1011FF00502B75F040E515A4245EF582E5F0340818
:10120F00F583E58229F582E43583F583E493FF7E48
:0D121F00007D017C001214C505160980CB6E
:01122C00229F
:0412A7008F218B23E5
:1012AB00E4F528F529E5245407700BE524131313F3
:1012BB00541FF52B800AE524131313541F04F52B2D
:1012CB008D2BE52BC39524503BAD2BAF211214D6A0
:1012DB0085212AE52AC395235026AB25AA26A927C3
:1012EB000529E529AE287002052814F5828E831294
:1012FB001073FF7E007D017C001214C5052A80D37C
:04130B00052B80BE70
:01130F0022BB
:100DFE00E4FDFC7FAEFE1214B4E4FDFC7F40FE1257
:100E0E0014C5E4FDFC7FB0FE1214C5E4FDFC7F8129
:100E1E00FE1214C5E4FDFC7FFFFE1214C5E4FDFCBA
:100E2E007FA1FE1214C5E4FDFC7FA6FE1214C5E4DC
:100E3E00FDFC7FA8FE1214C5E4FDFC7F3FFE1214DC
:100E4E00C5E4FDFC7FC8FE1214C5E4FDFC7FD3FE95
:100E5E001214C5E4FDFCFFFE1214C5E4FDFC7FD5A3
:100E6E00FE1214C5E4FDFC7F80FE1214C5E4FDFCE9
:100E7E007FD8FE1214C5E4FDFC7F05FE1214C5E4F6
:100E8E00FDFC7FD9FE1214C5E4FDFC7FF1FE1214A9
:100E9E00C5E4FDFC7FDAFE1214C5E4FDFC7F12FEF4
:100EAE001214C5E4FDFC7FDBFE1214C5E4FDFC7FCD
:100EBE0030FE1214C5E4FDFC7F8DFE1214C5E4FD58
:100ECE00FC7F14FE1214C5E4FDFC7FAFFE0214C5B8
:06164C00023A0000C1801B
:10161C00758920759850758DFD858D8BE4F587D275
:06162C00AFD2ACD28E2209
:0B168E003000078F993099FDC29922AF
:061596008B108A1189127E
:10159C00E4FEEEC39D5015AB10AA11A9128E8275F4
:0C15AC008300121073FF12168E0E80E6F2
:0115B8002210
:0300230002139D28
:10139D00C0E0C0F0C083C082C0D075D000C000C016
:1013AD0001C002C003C004C005C006C007309807C5
:1013BD00C298AF99121310D007D006D005D004D023
:1013CD0003D002D001D000D0D0D082D083D0F0D0C5
:0213DD00E032FC
:0300000002111DCD
:0C111D00787FE4F6D8FD75813C02116477
:10107300BB010CE58229F582E5833AF583E0225032
:1010830006E92582F8E622BBFE06E92582F8E2227C
:0D109300E58229F582E5833AF583E4932296
:1010A000EF8DF0A4A8F0CF8CF0A428CE8DF0A42E64
:0210B000FE221E
:1010B200BC000BBE0029EF8DF084FFADF022E4CC22
:1010C200F875F008EF2FFFEE33FEEC33FCEE9DECEB
:1010D200984005FCEE9DFE0FD5F0E9E4CEFD22ED31
:1010E200F8F5F0EE8420D21CFEADF075F008EF2F7B
:1010F200FFED33FD4007985006D5F0F222C398FD6C
:051102000FD5F0EA2208
:10110700EB9FF5F0EA9E42F0E99D42F0EC6480C85F
:0611170064809845F022FF
:10112900020FB9E493A3F8E493A34003F68001F214
:1011390008DFF48029E493A3F85407240CC8C333C7
:10114900C4540F4420C8834004F456800146F6DF96
:10115900E4800B0102040810204080901643E47ECD
:10116900019360BCA3FF543F30E509541FFEE4938B
:10117900A360010ECF54C025E060A840B8E493A352
:10118900FAE493A3F8E493A3C8C582C8CAC583CA7D
:10119900F0A3C8C582C8CAC583CADFE9DEE780BE35
:011652000097
:00000001FF
