:061EF800021C0000C1897C
:101EBE00758920759850758DFD858D8BE4F587D2CB
:061ECE00AFD2ACD28E225F
:0B1F2B003009078F993099FDC2992200
:061E34008B258A26892798
:101E3A00E4FEEEC39D5015AB25AA26A9278E82750E
:0C1E4A008300121076FF121F2B0E80E6A2
:011E56002269
:03002300021B8835
:0F1B8800C0E0C083C082C0D075D000C004C007C9
:101B970030984BC298AF99E51C20E74230E60CEF2E
:101BA700640A60028032431C808033EF640D700545
:101BB700431C408029E51C543FFC7400251DF58219
:101BC70074003CF583EFF0051DE51D7002051CD37D
:0E1BD7009463E51C94004006751C00751D000B
:0D1BE500D007D004D0D0D082D083D0E03221
:101EE600252E3266006D310D0A006D300D0A000D8B
:021EF6000A00E0
:0A1EFE000108000209000001111E96
:1018AC0075250FE4FBFDAF25121C54E5252412FF12
:1018BC007B01E4FD121C54E5252424FF7B02E4FD8E
:1018CC00121C54E5252436FF7B03E4FD121C54E561
:1018DC00252448FF7B04E4FD121C54E525245AFF03
:1018EC007B05E4FD121C54E4F5257B027D02AF253B
:1018FC00121C54E5252412FF7B037D02121C547B21
:10190C00237D027F5A121A98E4F5257B087D04AFDB
:10191C0025121C54E5252412FF7B097D04121C544E
:10192C00E5252428FF7B587D04121A98E4F5257BC5
:10193C000A7D06AF25121C54E5252412FF7B0B7D76
:10194C0006121C54E5252428FF7B587D06021A98A4
:041792008E258F26EB
:10179600C3E525648094805013750B40E526152615
:1017A600700215256326FF6325FF8003E4F50BAC65
:1017B60025AD26EC120D618F2A8E298D288C27E403
:1017C600FFFE7DC87C40AB2AAA29A928A827120CAF
:1017D60056E4FBFAF9783F120B65120D9A8E258FA7
:1017E60026AE25AF267C007D6412111CE51124016E
:1017F600FDE433FCD3EF9DEC6480F8EE6480984002
:1018060011750801E50A45097062C281D2807B59CB
:10181600804AAE25AF267C007D6412111CE511249A
:10182600FFFDE434FFFCC3EF9DEC6480F8EE6480BA
:1018360098501AE4F508E50A45097030D281C2804D
:101846007B587D047F28121A987B598018750803E7
:10185600E50A45097016D281D2807B587D047F281F
:10186600121A987B587D067F28121A98752EFF75D6
:101876002F1E7530E6AC25AD26EC120D617B0A7A7B
:10188600D77923783C120C568F348E338D328C31B7
:101896007B007A00790B1211F27B007A00790B7DBE
:0618A600027F24021D2D4B
:101ED400E511FB7A00752902752A107D027F6402E0
:021EE4001B14CD
:0B1F3600EF1FAC0670011E4C70F6227D
:10160500E4F524121EBE12195C1218AC7FFA7EFF97
:10161500121F367BFF7A1E79EB7D04121E34121ED3
:10162500A7121792121ED4E51C20E7030216CF90CD
:101635000000E0B4310E750900750A01C281D2803F
:101645007B598031900000E0B43217750900750AA6
:1016550001D281C2807B587D047F28121A987B595C
:10166500801C900000E0B4331E750900750A01D294
:1016750081D2807B587D047F28121A987B587D067D
:101685007F28121A98800C900000E0B43405E4F528
:1016950009F50A900001E0FFC39430400BEFD394A5
:1016A500395005EF24D0F511900002E0FFC39430C6
:1016B5004013EFD39439500DE51175F00AA4FFE0FE
:1016C5002F24D0F511E4F51CF51D20A2250523E5F1
:1016D5002370020522D39464E5229400401B7BFF0E
:1016E5007A1E79F07D04121E34E4F522F523D2B674
:1016F5008007E4F522F523C2B60524C3E524941436
:10170500748094805003021623E4F524A2813324C7
:1017150030FF121F2B7F2C121F2BA280E4332430A5
:10172500FF121F2B7F2C121F2BE5082430FF121FE1
:101735002B7F2C121F2B7B007A00790B7D05121E47
:10174500347F2C121F2BD3E511940A74809480E505
:1017550011401475F00A842430FF121F2BE5117512
:10176500F00A84E5F080002430FF121F2B7F2C1235
:101775001F2BE50A2430FF121F2B7F2C121F2B7BFA
:0D178500FF7A1E79F57D02121E3402162334
:101E5700D3EF9400EE940040147D6E7C00ED1D706E
:0D1E6700011CED4C70F7EF1F70E61E80E3CC
:011E7400224B
:101DE500C2A17B46AF031BEF70FAD2A1FB30A11550
:101DF5007F017E00121E570BEBD3940574809480EF
:071E050040EB7F00227F018A
:011E0C0022B3
:0C1CA900121DE57F017E00121E577FCC4B
:101CB500E4FBFAC2A10527E52770020526EF13927A
:101CC500A1752600752706E5271527AC2670021590
:101CD500264C70F3D2A1EFC313FF0BBB00010AEB37
:051CE50064084A70CE06
:011CEA0022D7
:101D6E007D087C00C2A10FBF0000D2A10FBF0000F2
:101D7E000FBF0000A2A1E433C43333335480FBE918
:101D8E00C3134BF97E007F04EF1FAA0670011E4A93
:0D1D9E0070F6ED1D70011CED4C70C9AF0119
:011DAB002215
:081F4100121CA97F44021CB52B
:081F4900121CA97FBE021CB5A9
:101EA700E4FFFE121F41121F49121D6E8F25121DDE
:061EB7006EEFFEE525FFC1
:011EBD002202
:100026000000000000000000002F00000000070094
:10003600070000147F147F1400242A7F2A1200620E
:1000460064081323003649552250000005030000BA
:1000560000001C224100000041221C000014083E42
:1000660008140008083E0808000000A06000000808
:10007600080808080000606000000020100804025C
:10008600003E5149453E0000427F4000004261511A
:100096004946002141454B31001814127F100027B4
:1000A60045454539003C4A49493000017109050377
:1000B60000364949493600064949291E00003636A8
:1000C600000000005636000000081422410000140B
:1000D60014141414000041221408000201510906E8
:1000E60000324959513E007C1211127C007F494969
:1000F6004936003E41414122007F4141221C007F9A
:1001060049494941007F09090901003E4149497AA7
:10011600007F0808087F0000417F41000020404121
:100126003F01007F08142241007F40404040007F8D
:10013600020C027F007F0408107F003E4141413ED1
:10014600007F09090906003E4151215E007F091919
:1001560029460046494949310001017F0101003F16
:100166004040403F001F2040201F003F4038403F96
:1001760000631408146300070870080700615149FA
:10018600454300007F41410000552A552A5500008D
:1001960041417F000004020102040040404040400B
:1001A600000001020400002054545478007F4844A3
:1001B600443800384444442000384444487F0038DA
:1001C6005454541800087E0901020018A4A4A47C03
:1001D600007F080404780000447D400000408084CD
:1001E6007D00007F102844000000417F4000007C15
:1001F60004180478007C0804047800384444443821
:1002060000FC242424180018242418FC007C08046C
:10021600040800485454542000043F444020003C45
:100226004040207C001C2040201C003C4030403CCC
:10023600004428102844001CA0A0A07C004464545C
:100246004C441414141414140000000000000000A0
:100256000000000000000000000000F800000000A0
:10026600000000333000000000100C06100C0600E1
:10027600000000000000000040C07840C078400048
:10028600043F04043F040400007088FC08300000AA
:10029600001820FF211E0000F008F000E018000002
:1002A60000211C031E211E0000F0088870000000BB
:1002B6001E2123241927211010160E00000000000D
:1002C6000000000000000000000000E0180402002A
:1002D600000000071820400000020418E00000009B
:1002E6000040201807000000404080F08040400099
:1002F6000202010F01020200000000F000000000EF
:100306000101011F010101000000000000000000C2
:1003160080B0700000000000000000000000000037
:1003260000010101010101010000000000000000C0
:10033600003030000000000000000000806018045B
:10034600006018060100000000E010080810E00038
:10035600000F102020100F00001010F80000000001
:100366000020203F20200000007008080888700048
:1003760000302824222130000030088888483000C8
:100386000018202020110E000000C02010F80000E8
:1003960000070424243F240000F808888808080081
:1003A6000019212020110E0000E010888818000096
:1003B600000F112020110E0000380808C838080068
:1003C6000000003F000000000070880808887000E8
:1003D600001C222121221C0000E010080810E00069
:1003E6000000312222110F00000000C0C0000000F2
:1003F6000000003030000000000000800000000017
:10040600000080600000000000008040201008000E
:1004160000010204081020004040404040404000D7
:1004260004040404040404000008102040800000B2
:100436000020100804020100007048080808F000B7
:100446000000003036010000C030C828E810E00087
:100456000718272423140B000000C038E000000012
:10046600203C23020227382008F88888887000007C
:10047600203F202020110E00C03008080808380050
:10048600071820202010080008F808080810E000C7
:10049600203F202020100F0008F88888E808100068
:1004A600203F20202320180008F88888E80810003C
:1004B600203F200003000000C03008080838000074
:1004C60007182020221E020008F808000008F80875
:1004D600203F210101213F20000808F808080000FC
:1004E6000020203F2020000000000808F80808002F
:1004F600C08080807F00000008F888C028180800A7
:10050600203F20012638200008F8080000000000DF
:10051600203F20202020300008F8F800F8F80800D6
:10052600203F003F003F200008F830C00008F808D0
:10053600203F200007183F00E01008080810E000E0
:100546000F10202020100F0008F808080808F000F7
:10055600203F210101010000E01008080810E0001A
:100566000F18242438504F0008F8888888887000AF
:10057600203F2000030C302000708808080838004F
:100586000038202121221C00180808F80808180045
:100596000000203F2000000008F808000008F808C6
:1005A600001F202020201F000878880000C8380877
:1005B600000007380E010000F80800F80008F800EF
:1005C600033C0700073C0300081868808068180889
:1005D60020302C03032C30200838C800C838080007
:1005E6000000203F2000000010080808C838080056
:1005F6002038262120201800000000FE02020200FA
:100606000000007F40404000000C30C000000000A9
:10061600000000010638C00000020202FE000000D1
:10062600004040407F000000000004020202040077
:1006360000000000000000000000000000000000B4
:10064600808080808080808000020204000000009C
:100656000000000000000000000080808080000094
:100666000019242222223F2008F800808000000082
:10067600003F112020110E00000000808080000045
:10068600000E112020201100000000808088F80054
:10069600000E112020103F20000080808080000086
:1006A600001F222222221300008080F088888818EA
:1006B6000020203F202000000000808080808000F5
:1006C600006B94949493600008F80080808000008A
:1006D600203F210000203F20008098980000000065
:1006E6000020203F20200000000000809898000095
:1006F60000C08080807F000008F8000080808000B5
:10070600203F24022D302000000808F800000000D9
:100716000020203F20200000808080808080800094
:10072600203F20003F20003F808000808080000026
:10073600203F210000203F200000808080800000B4
:10074600001F202020201F008080008080000000E5
:1007560080FFA12020110E00000000808080800014
:10076600000E112020A0FF80808080008080800005
:1007760020203F2120000100000080808080800032
:100786000033242424241900008080E080800000A7
:100796000000001F202000008080000000808000F4
:1007A600001F202020103F20808080000080808055
:1007B60000010E30080601008080008000808080E5
:1007C6000F300C030C300F0000808000808080000A
:1007D6000020312E0E312000808080000080808035
:1007E60080818E70180601000080808080808000E5
:1007F6000021302C2221300000000000807C020203
:1008060000000000003F404000000000FF00000024
:1008160000000000FF0000000002027C80000000D3
:100826000040403F000000000006010102020404EF
:10083600000000000000000020202020202020FFD3
:1008460020202020202020000000000000000000C2
:10085600000000000000000080804020100C030013
:10086600030C102040808000000000000000000003
:1008760000000000000000001010D0FF9010FE22C3
:1008860022FE00FE2222FE00000000000000000002
:100896000000000000000000040300FF80413F420A
:1008A600827F807F0282FF000000000000000000BF
:1008B60000000000000000001060028C0000FE92A4
:1008C60092929292FE0000000000000000000000DC
:1008D600000000000000000004047E01407E424249
:1008E6007E427E42427E4000000000000000000082
:1008F60000000000000000000000FC242424FC2569
:100906002624FC242424040000000000000000002B
:10091600000000000000000040308F80844C552508
:100926002525554C80808000000000000000000056
:10093600000000000000000000007E0000FF0040F4
:10094600300F0414640400000000000000000000E2
:10095600000000000000000040407E42427E42420D
:10096600427E42427E40400000000000000000003F
:100976000000000000000000101010FF90209848B2
:1009860028090E2848A818000000000000000000F2
:1009960000000000000000000242817F004040424B
:1009A60042427E4242424000000000000000000039
:1009B6000000000000000000000022322AA6A26209
:1009C6002111098101000000000000000000000064
:1009D6000000000000000000004222130B42827E4D
:1009E60002020A1223460000000000000000000078
:1009F60000000000000000002030AC63300088C812
:100A0600A8998E88A8C88800000000000000000091
:100A16000000000000000000226722121280403011
:100A26000F00003F40407100000000000000000081
:100A3600000000000000000040504E4848FF4848B3
:100A46004840F80000FF0000000000000000000021
:100A5600000000000000000000003E0202FF12221B
:100A66001E000F40807F0000000000000000000014
:100A7600000000000000000000020CC00040201032
:100A86000C23CC10204040000000000000000000B5
:100A9600000000000000000002027F0000000109C3
:100AA6001121D10D0300000000000000000000002D
:100AB6000000000000000000101010FF1010F000F1
:100AC60000F8080808F80000000000000000000018
:100AD60000000000000000008040300F40807F00D2
:100AE600007F2020207F00000000000000000000A2
:100AF6000000000000000000080888FF48480008C1
:100B060048FF0808F8000000000000000000000090
:100B160000000000000000008165080720C00804EE
:100B260023C0030023C40F000000000000000000E3
:100B360000000000000000000000000040301CFF24
:100B46001C3040000000000000000000000000FF14
:080B5600000000000000000097
:101E7500EF4E60157D087C07ED1DAA0470011C4A14
:091E850070F6EF1F70EA1E80E701
:011E8E002231
:101CEB00F583E5822CF582E43583F583E493FF7D60
:011CFB0001E7
:101CFC00ED6004D2938002C293C294E4FEEEC394CE
:101D0C0008748094805015C290EF30E704D2918013
:101D1C0002C291D290EF25E0FF0E80E1D294D293D3
:011D2C002294
:10000300AC07ED24B0FFE4FD121CFCEC54F0C45427
:100013000F4410FF121CFCEC540F4401FF021CFCA4
:101F0900E4FD7F8D121CFC7F14121CFC7FAF021CA8
:011F1900FCCB
:101F1A00E4FD7F8D121CFC7F10121CFC7FAE021C9C
:011F2A00FCBA
:101DAC00E4FCECC3940874809480502CEC24B0FFB9
:101DBC00E4FD121CFCE4FF121CFC7F10121CFCE462
:101DCC00FBEBC3948074809480500A7D01E4FF1275
:081DDC001CFC0B80EC0C80CA1A
:011DE40022DC
:061A9800AA07A905AF0337
:101A9E00E4FCEF24E0FBEAD3947F7480948040044E
:101AAE00E4FA0909AF02AD01120003E4FCECC394A1
:101ABE000874809480501D75F010EBA42CF582E410
:101ACE0035F0F583E582244EF582E5833402121C4F
:101ADE00F50C80D9AF02E904FD120003E4FCECC35F
:101AEE00940874809480501D75F010EBA42CF58230
:101AFE00E435F0F583E5822456F582E5833402124F
:051B0E001CF50C80D95C
:011B130022AF
:041E8F008F2EA905E4
:101E93007F017E00AD0119ED6009AD2E7C001210AB
:031EA300B580F116
:011EA6002219
:081B14008F258D268A278B28FE
:101B1C00E4F52DF52BE52BC39529505FC3E52995ED
:101B2C002B14FD7F0A121E8FAC27AD28CFCDCFCE44
:101B3C00CCCE1210C77C007D0A1210C78D2CE52D5F
:101B4C007020E52914FFE52BC39F5016E52C700F70
:101B5C00E52AC313852BF0A42525FF7B2080137564
:101B6C002D01E52AC313852BF0A42525FFE52C2494
:0B1B7C0030FBAD26121A98052B809A52
:011B8700223B
:0A1D2D008F2B8D2C8B2D8A2E892F11
:101D3700E4F530AB2DAA2EA92F85308275830012CA
:101D47001076FB6021AD2CAF2B121A987408252B47
:101D5700F52BD39478748094804007E4F52B052CF9
:061D6700052C053080CDC3
:011D6D002253
:041C5400AA07A9052D
:101C5800E4F526120003E4FCECC39410748094802D
:101C6800501575F040EBA4243EF582E5F0340812D7
:101C78001CEB05260C80E1AF02E904FD120003E429
:101C8800FCECC3941074809480501575F040EBA45C
:101C9800245EF582E5F03408121CEB05260C80E181
:011CA8002219
:041BF2008F128B14AF
:101BF600E4F519F51AE5155407700BE515131313DB
:101C0600541FF51B800AE515131313541F04F51B07
:101C16008D1BE51BC395155034AD1BAF1212000387
:101C2600AC12ECC395145021AB16AA17A918051AC5
:101C3600E51AAE197002051914F5828E8312107614
:0D1C4600FF7D01121CFC0C80D9051B80C520
:011C5300226E
:10195C00D2927F647E00121E75C2927F647E00124A
:10196C001E75D292E4FD7FAE121CFCE4FF121CFC2F
:10197C007F10121CFC7F40121CFC7F81121CFC7F10
:10198C00CF121CFC7FA1121CFC7FC8121CFC7FA672
:10199C00121CFC7FA8121CFC7F3F121CFC7FD31274
:1019AC001CFCE4FF121CFC7FD5121CFC7F80121C5B
:1019BC00FC7FD9121CFC7FF1121CFC7FDA121CFC80
:1019CC007F12121CFC7FDB121CFC7F40121CFC7F64
:1019DC0020121CFC7F02121CFC7F8D121CFC7F143D
:1019EC00121CFC7FA4121CFC7FA6121CFC7FAF12E5
:1019FC001CFC7FAF121CFC121DACE4FDFF020003AB
:100B5E00020E06E86480F8E933E83360110460F0B1
:100B6E00ED33EC337009E8FCE9FDEAFEEBFF2204FD
:100B7E0060DED3EB9FEA9EE99DE8C2E78CF0C2F7F8
:100B8E0095F0400CE8CCF8E9CDF9EACEFAEBCFFBC4
:100B9E00120DD185D0F05804700320D5B3E804703F
:100BAE00075002B2D5020E1092D5EC0460F7E4CCD9
:100BBE00C0E0C398F8603B94186008400DD0E0FB8D
:100BCE00020DE8E4FBFAC9FC8028E830E406E4C92B
:100BDE00FBE4CAFCE830E305E4C9CACBFCE85407E1
:100BEE006010F8C3E913F9EA13FAEB13FBEC13FCEC
:100BFE00D8F130F52FC3E49CFCEF9BFFEE9AFEED8F
:100C0E0099FDD0E0FBEF4E4D4C701222DB03020E2D
:100C1E000DEC2CFCEF33FFEE33FEED33FDED30E744
:100C2E00EB020DE8EF2BFFEE3AFEED39FDD0E0FBC7
:100C3E0050130BBB0003020E10ED13FDEE13FEEF6F
:080C4E0013FFEC13FC020DE89A
:100C5600EC4D6011E8497017ED33EC3304600DE498
:100C6600FCFFFEFD22E933E8330470F8020E06129B
:100C76000DD158046009E4CC24815006285009029D
:100C86000E10284003020E0DC0E0EB4A7044B980F6
:100C960006D0E0FB020DFCEF4E701CBD8008EBFF9A
:100CA600EAFEE9FD80EBE98DF0A4FEE5F0020D3FDA
:100CB600E9CDF9EAFEEBFFEF89F0A4FCE5F0CE8979
:100CC600F0A42EFFE435F0CD89F0A42DFEE435F036
:100CD6008067EF4E7005BD80D780C3EF8BF0A4AC64
:100CE600F0EE8BF0A42CFCE435F0F8EF8AF0A42C9F
:100CF600E5F038FCE433CB8DF0A42CFCE5F03BF8B2
:100D0600EE8AF0A42CFCE5F038F8E433CF89F0A4A1
:100D16002CFCE5F038CF3400CE89F0A42FFFE5F0A7
:100D26003EFEE433C98DF0A42EFEE5F039CD8AF0FF
:100D3600A42FFFE5F03EFEE43DFD33D0E0FB500777
:100D46000BBB000F020E10EC2CFCEF33FFEE33FE54
:060D5600ED33FD020DE883
:100D5C0075F020800E75F010800575F0087D007E12
:100D6C00007F003392D530D503121152EC33401072
:100D7C00EF33FFEE33FEED33FDEC33FCD5F0ED221B
:0E0D8C00E5F0247EA2D513CC92E7CDCEFF2257
:100D9A00EDD2E7CD33EC3392D524814006E4FFFE51
:100DAA00FDFC22FCE4CFCECDCC24E0501174FF80B0
:100DBA00EDC3CC13CCCD13CDCE13CECF13CF04704D
:070DCA00F030D5DE021152EA
:10119600E542242EF8E6054222782B300702782E07
:1011A600E475F00112116002105D2000EB7F2ED273
:1011B600008018EF540F2490D43440D4FF30040B31
:1011C600EF24BFB41A0050032461FFE54360021503
:1011D600430546E5467002054530070D782BE47554
:1011E600F001121160EF0210A3021E0D7403D20764
:1011F6008003E4C207F5428B2B8A2C892DE4F54344
:10120600F545F546E54360077F201211D180F57557
:1012160044FFC201C200C202C203C205C206C2081E
:1012260012119FFF700D3007057F001211E2AF46C5
:10123600AE4522B4255FC2D5C20412119FFF24D049
:10124600B40A00501A75F00A784330D50508B6FF7F
:101256000106C6A426F620D5047002D20380D9243E
:10126600CFB41A00EF5004C2E5D2040214CFD20163
:1012760080C6D20080C0D20280BCD2D580BAD20548
:1012860080B47F201211D12002077401B5430040BB
:10129600F1121196FF1211D102120AD208D206805B
:1012A60095121196FB121196FA121196F94A4B7085
:1012B6000679C67A157BFF20022EE543602A7E005A
:1012C6008E8275830012107660060EEE654470F00D
:1012D600C2D5EBC0E0EAC0E0E9C0E0EE12152FD0BF
:1012E600E0F9D0E0FAD0E0FB12105DFF60AAEBC097
:1012F600E0EAC0E0E9C0E01211D1D0E02401F9D063
:10130600E03400FAD0E0FBE5440460DCD544D98043
:1013160087D20280A212151260F7E544700104120A
:101326000E1BA944600DE544600914F5441215B975
:10133600EF60F3EA30E702F404C3995077EAF42544
:10134600440430E701E404F544800D12151260C12F
:10135600EA05442544120E1BEA7841F630E701E41B
:10136600254404D544042005011412152FE4C0E0D9
:101376001215B97841E6601320E70714F61211B981
:10138600802204F6D0E014C0E07F001211B9E544D3
:1013960060071211B01544800B3005031211B0D04E
:1013A600E002120AD0E00480C512151260A0E544DE
:1013B60004120E1B7841EAF6E5442005026001049A
:0513C600240412152FA4
:1013CB0074FF04C0E01215B91211B9E544200502EF
:1013DB0060031211B0D0E0B544E87F451211C37819
:1013EB0041E67F2B30E7047F2DF404C0E01211D1CE
:1013FB00D0E075F00A84C0F01211BAD0E01211BA25
:10140B0002120A791080027908C206C2088008D23B
:10141B00D5790A8004790AC2D5E544047002F544F3
:10142B00E4FAFDFEFF121196FC7B0820011312114A
:10143B0096FD7B1030000A121196FE121196FF7B5F
:10144B0020EC3382D592D55013C3E43000069FFFB6
:10145B00E49EFEE42001039DFDE49CFCE4CBF8C27A
:10146B0001EC700CCFCECDCCE824F8F870F38017DC
:10147B00C3EF33FFEE33FEED33FDEC33FCEB33FB0D
:10148B00994002FB0FD8E9EB300105F8D0E0C448D6
:10149B00B201C0E00AEC4D4E4F78207B0070C2EADF
:1014AB00B5440040BCC0E0121531D0F0D0E02001B3
:1014BB0004C4C0E0C4B201C0F01211BAD0F0D5F030
:1014CB00EB02120A12117012A753140E5812784C19
:1014DB0012744214124F141A44141A49128D4314E5
:1014EB00205513514613AF45131B4715E650127C7D
:1014FB002D12802E12A32B12842312A12015CF2A7A
:10150B00123C480000129BE544B4FF0375440612DD
:10151B001196FC121196FD121196FE121196FF7880
:10152B003A020E4A790AA2D5200314300509B910E4
:10153B00020404B9080104A2D520060250010420BC
:10154B0002689202B543005034C0E07F203003198B
:10155B007F30A20272067205500F121588C202C2AA
:10156B0006C205C2087F30800F300503E9C0E012C8
:10157B0011D1300503D0E0F9D0E0B543CC300517DD
:10158B007F30B9100C1211D17F583004077F78804F
:10159B0003B908031211D13002057F2D0211D17F3F
:1015AB00202008F87F2B2006F322920280CF7F00A9
:1015BB00B407005005243AF8E6FF22286E756C6CD0
:1015CB002900D2011211963001F8C201784330D5AF
:1015DB000108F602123C2D50434958121196240370
:1015EB00B405004001E49015E1931211C2743A1254
:0A15FB0011C2D20375430402140E5E
:100DD100E9D2E7C933E833F892D5EDD2E7CD33EC68
:070DE10033FC5002B2D522E1
:100DE800EC30E7100FBF000C0EBE00080DBD00046C
:100DF8000BEB6014A2D5EB13FCED92E7FD2274FF18
:100E0800FCFDFEFF22E480F8A2D574FF13FC7D8070
:030E1800E480EF84
:100E1B00F920E72824F950037907E4F42402FB189E
:100E2B00DBFDE624FB5014E9600DE4F618E604F64E
:0F0E3B00B40A08E4F6D9F57401F60A22C2D522EA
:100E4A00ED33EC3392D5FA602AB4FF33EDC2E77B77
:100E5A00FF60067A0E796FE4227A0E797820D5043B
:100E6A007A0E7973224E614E002B494E46002D4967
:100E7A004E4600E47A08F608DAFC7B00740722E89A
:100E8A00C0E0ECC0E0EDC0E0EEC0E0EFC0E0EA7523
:100E9A00F010A4CAABF075F04DA42BFBE435F0FCBE
:100EAA00EA2410FAEB34C5FBEC34D9FCEDC2E7FFB7
:100EBA0075F056A4F42411C5F0F434C58FF0A42AB1
:100ECA00E5F03BE43CF620E71412101DD0E0FFD019
:100EDA00E0FED0E0FDD0E0FC120F508014F40412C2
:100EEA00101DD0E0FFD0E0FED0E0FDD0E0FC120CF7
:100EFA0056D0E0F8E6FAEDD2E7CD33EC332482FBA4
:100F0A00E4C3CF33CFCE33CECD33CD33DBF37B0740
:100F1A0075F00A846004F6081B0AE5F0F6088FF0FB
:100F2A00740AA4FFACF08EF0740AA42CFEACF05044
:100F3A00010C8DF0740AA42CFDE435F0F608DBDE12
:030F4A0074072207
:100F4D00020E10EC5D046005E859047003020E06F4
:100F5D00120DD1580460F6EC4860F2EC7004FDFE01
:100F6D00FF22C860DB2481C85009C3986002500677
:100F7D00020E0D9850CAF582E9294B4A7005AB82D5
:100F8D00020DFC75F0007C1A7880C3EF9BEE9AED94
:100F9D0099400DC3EF9BFFEE9AFEED99FDE842F0EF
:100FAD00DC23ACF0D0E0FFD0E0FED0E0FDAB822042
:100FBD00E7101BEB60BAEC2CFCEF33FFEE33FEEDCC
:100FCD0033FD020DE8E803F830E705C0F075F000D9
:100FDD00EF2FFFEE33FEED33FD40B830E7C280AAB0
:100FED003F8000004120000042C80000447A00000C
:100FFD00461C400047C35000497424004B1896808E
:10100D004CBEBC205A0E1BCA6753C21C749DC5AE84
:10101D00FB60065407601C232312104BEB54386001
:10102D0009121037121046120C56ECF8EDF9EEFAC3
:10103D00EFCB22EB12104680F1543803241C900F95
:10104D00EDFE93FC0EEE93FD0EEE930ECE93FF226E
:03000000021A0CD5
:0C1A0C00787FE4F6D8FD758146021A537D
:10105D00BB010689828A83E0225002E722BBFE0291
:09106D00E32289828A83E49322C4
:10107600BB010CE58229F582E5833AF583E022502F
:1010860006E92582F8E622BBFE06E92582F8E22279
:0D109600E58229F582E5833AF583E4932293
:1010A300BB010689828A83F0225002F722BBFE012C
:0210B300F32226
:1010B500EF8DF0A4A8F0CF8CF0A428CE8DF0A42E4F
:0210C500FE2209
:1010C700BC000BBE0029EF8DF084FFADF022E4CC0D
:1010D700F875F008EF2FFFEE33FEEC33FCEE9DECD6
:1010E700984005FCEE9DFE0FD5F0E9E4CEFD22ED1C
:1010F700F8F5F0EE8420D21CFEADF075F008EF2F66
:10110700FFED33FD4007985006D5F0F222C398FD56
:051117000FD5F0EA22F3
:10111C00C2D5EC30E709B2D5E4C39DFDE49CFCEEEE
:10112C0030E715B2D5E4C39FFFE49EFE1210C7C38F
:10113C00E49DFDE49CFC80031210C730D507C3E48A
:06114C009FFFE49EFE225D
:0E115200C3E49FFFE49EFEE49DFDE49CFC22AE
:10116000FAE6FB0808E6F925F0F618E6CA3AF62290
:10117000D083D082F8E4937012740193700DA3A30E
:1011800093F8740193F5828883E473740293686022
:06119000EFA3A3A380DF22
:101E0D00EFB40A07740D121E18740A309811A899B0
:101E1D00B8130CC2983098FDA899C298B811F63035
:071E2D0099FDC299F599220D
:101A1800021605E493A3F8E493A34003F68001F2C9
:101A280008DFF48029E493A3F85407240CC8C333CF
:101A3800C4540F4420C8834004F456800146F6DF9E
:101A4800E4800B0102040810204080901EF8E47E18
:101A5800019360BCA3FF543F30E509541FFEE49393
:101A6800A360010ECF54C025E060A840B8E493A35A
:101A7800FAE493A3F8E493A3C8C582C8CAC583CA85
:101A8800F0A3C8C582C8CAC583CADFE9DEE780BE3D
:011F080000D8
:00000001FF
