:0301D0000D0A0015
:0701C0000209000001081014
:0B01B500EF1FAC0670011E4C70F6221C
:09001900EF64F070037508102279
:1000B200120003050AE50A70020509AE09FFE4FC15
:1000C200FD7B507AC3F9F8C312013A7029F509F59C
:1000D2000AAF081201C87BFF7A0179D07D021201B2
:1000E20092AF087E00EF64107004C2808008EF6453
:1000F200114E7002B28020A4BA7F647E001201B554
:0B01020075081120A4AD20A4AA80FB0A
:10000300758920759850758DFA858D8BE4F587D2A7
:06001300AFD2ACD28E2238
:0801C8008F993099FDC29922C4
:060192008B0B8A0C890DA5
:10019800E4FEEEC39D5015AB0BAA0CA90D8E82751B
:0C01A800830012010DFF1201C80E80E65A
:0101B4002228
:0300230002015087
:10015000C0E0C0F0C083C082C0D075D000C000C075
:1001600001C002C003C004C005C006C00730980724
:10017000C298AF99120019D007D006D005D004D08C
:1001800003D002D001D000D0D0D082D083D0F0D024
:02019000E0325B
:03000000020026D5
:0C002600787FE4F6D8FD75810D02006DB6
:10010D00BB010CE58229F582E5833AF583E02250A7
:10011D0006E92582F8E622BBFE06E92582F8E222F1
:0D012D00E58229F582E5833AF583E493220B
:10013A00EB9FF5F0EA9E42F0E99D42F0EC6480C83C
:06014A0064809845F022DC
:100032000200B2E493A3F8E493A34003F68001F232
:1000420008DFF48029E493A3F85407240CC8C333CF
:10005200C4540F4420C8834004F456800146F6DF9E
:10006200E4800B01020408102040809001C0E47E6D
:10007200019360BCA3FF543F30E509541FFEE49393
:10008200A360010ECF54C025E060A840B8E493A35A
:10009200FAE493A3F8E493A3C8C582C8CAC583CA85
:1000A200F0A3C8C582C8CAC583CADFE9DEE780BE3D
:0101C7000037
:00000001FF
