:06078B002564000D0A00C8
:1006D8000216000002180000021A000001140001AE
:0C06E800150001130102100000011200B7
:0B076700EF1FAC0670011E4C70F62264
:07077D00D288D2A8D2AF22FE
:07078400D28AD2AAD2AF22F3
:10074A00438901758CB8E4F58AD2AFD2A9D28C223A
:10071E00E4F5C9F5C875CCFF75CDA475CAFF75CBC8
:06072E00A4D2CAD2AD22E4
:10038A00E4F528F52912073412077D1207841207AB
:10039A004A12071E0529E5297002052864D070044F
:1003AA00E5286407705EF528F529D3E51B943CE53A
:1003BA001A94005008C280D281D2828019D3E51BD8
:1003CA00945DE51A94005008D280C281D2828006D8
:1003DA00D280D281C282752DFF752E07752F8B852B
:1003EA001A30851B317B007A00792312008A7B0040
:1003FA007A0079237D031206FB7BFF7A07798E7DCB
:10040A00021206FBE51C30E78BE51DF52290000081
:10041A00E0FF64307026751301C292C290A3E0FE19
:10042A00B43102802AEEB432028030EEB433028054
:10043A0036EE64307037F514F5158031EF6431709B
:10044A002CF513C293C291900001E0FFB4310875F4
:10045A0014C87515C88016EFB4320875147D751561
:10046A007D800AEFB4330675140A75150AE4F51C83
:05047A00F51D02039EC8
:03000300020016E2
:0D001600C0E00517E51770020516D0E032B6
:0300130002075A87
:0D075A00C0E00519E51970020518D0E03265
:03000B0002066585
:09066500C0E0C0D075D000C00750
:10066E00758CB8758A000511E51170020510C394DA
:10067E0064E510648094804023751000751100E5C8
:10068E00172519FFE5163518C313F51AEF13F51BC9
:0C069E007516007517007518007519001E
:0706AA00D007D0D0D0E032F0
:03002B00020603C7
:07060300C0E0C0D075D00873
:10060A000512AF137E00EF64017025C3E51294FF53
:10061A00748094804009751200C293C2918037E5B4
:10062A0012B51402D293E5126515702AD29180266A
:10063A00EF4E7022C3E51294FF74809480400975CE
:10064A001200C292C290800EE512B51402D292E54F
:06065A0012B51502D2905A
:05066000D0D0D0E03213
:0606F400021C0000C18998
:10073400438920759850758DFA858D8BE4F587D2A1
:06074400AFD2ACD28E2200
:0B0772003009078F993099FDC29922D1
:0606FB008B2A8A2B892CDA
:10070100E4FEEEC39D5015AB2AAA2BA92C8E82754F
:0C071100830012047FFF1207720E80E6C6
:01071D0022B9
:030023000205993A
:0F059900C0E0C083C082C0D075D000C004C007CE
:1005A80030984BC298AF99E51C20E74230E60CEF33
:1005B800640A60028032431C808033EF640D70054A
:1005C800431C408029E51C543FFC7400251DF5821E
:1005D80074003CF583EFF0051DE51D7002051CD382
:0E05E8009413E51C94004006751C00751D0060
:0D05F600D007D004D0D0D082D083D0E03226
:0300000002050DE9
:0C050D00787FE4F6D8FD75813D020554AE
:10047F00BB010CE58229F582E5833AF583E0225032
:10048F0006E92582F8E622BBFE06E92582F8E2227C
:0D049F00E58229F582E5833AF583E4932296
:10002E00E539242DF8E6053922782A300702782D95
:10003E00E475F0011204D70204AC2000EB7F2ED23F
:10004E00008018EF540F2490D43440D4FF30040BAA
:10005E00EF24BFB41A0050032461FFE53A60021585
:10006E003A053DE53D7002053C30070D782AE475F2
:10007E00F0011204D7EF0204C50206B17403D207D1
:10008E008003E4C207F5398B2A8A2B892CE4F53AD2
:10009E00F53CF53DE53A60077F2012006980F57565
:1000AE003BFFC201C200C202C203C205C206C208A1
:1000BE00120037FF700D3007057F0012007AAF3D3A
:1000CE00AE3C22B4255FC2D5C204120037FF24D045
:1000DE00B40A00501A75F00A783A30D50508B6FF02
:1000EE000106C6A426F620D5047002D20380D924B8
:1000FE00CFB41A00EF5004C2E5D20402027AD20144
:10010E0080C6D20080C0D20280BCD2D580BAD205C1
:10011E0080B47F201200692002077401B53A0040B6
:10012E00F112002EFF1200690200A2D208D2068040
:10013E009512002EFB12002EFA12002EF94A4B7069
:10014E0006794B7A037BFF20022EE53A602A7E0069
:10015E008E8275830012047F60060EEE653B70F092
:10016E00C2D5EBC0E0EAC0E0E9C0E0EE1202C1D0B9
:10017E00E0F9D0E0FAD0E0FB1204ACFF60AAEBC0CD
:10018E00E0EAC0E0E9C0E0120069D0E02401F9D055
:10019E00E03400FAD0E0FBE53B0460DCD53BD980CF
:1001AE00877BFF7A0279BDD202809C79108002791A
:1001BE0008C206C2088008D2D5790A8004790AC21C
:1001CE00D5E53B047002F53BE4FAFDFEFF12002E6E
:1001DE00FC7B0820011312002EFD7B1030000A124A
:1001EE00002EFE12002EFF7B20EC3382D592D550CE
:1001FE0013C3E43000069FFFE49EFEE42001039D3E
:10020E00FDE49CFCE4CBF8C201EC700CCFCECDCC5F
:10021E00E824F8F870F38017C3EF33FFEE33FEEDEA
:10022E0033FDEC33FCEB33FB994002FB0FD8E9EBCB
:10023E00300105F8D0E0C448B201C0E00AEC4D4EE2
:10024E004F78207B0070C2EAB53B0040BCC0E01284
:10025E0002C3D0F0D0E0200104C4C0E0C4B201C09B
:10026E00F0120052D0F0D5F0EB0200A21204E7011A
:10027E003F5301B95801104C010C4201BD4F01C54D
:0F028E004401C54901254301CB5501AF4601AFDE
:10029D004501AF47036B5001142D01182E013B2B67
:1002AD00011C2301392003542A00D44800000133D6
:1002BD003F3F3F00790AA2D5200314300509B9103C
:1002CD00020404B9080104A2D5200602500104203D
:1002DD0002689202B53A005034C0E07F2030031915
:1002ED007F30A20272067205500F12031AC202C2AB
:1002FD0006C205C2087F30800F300503E9C0E01249
:10030D000069300503D0E0F9D0E0B53ACC300517DF
:10031D007F30B9100C1200697F583004077F788048
:10032D0003B908031200693002057F2D0200697FB1
:10033D00202008F87F2B2006F322920280CF286E12
:10034D00756C6C2900D20112002E3001F8C20178B3
:10035D003A30D50108F60200D42D50434958120009
:10036D002E2403B405004001E49003669312005A55
:0D037D00743A12005AD203753A040201B915
:1005190002038AE493A3F8E493A34003F68001F26B
:1005290008DFF48029E493A3F85407240CC8C333E3
:10053900C4540F4420C8834004F456800146F6DFB2
:10054900E4800B01020408102040809006D8E47E64
:10055900019360BCA3FF543F30E509541FFEE493A7
:10056900A360010ECF54C025E060A840B8E493A36E
:10057900FAE493A3F8E493A3C8C582C8CAC583CA99
:10058900F0A3C8C582C8CAC583CADFE9DEE780BE51
:0106FA0000FF
:1004AC00BB010689828A83E0225002E722BBFE024E
:0904BC00E32289828A83E4932281
:1004C500BB010689828A83F0225002F722BBFE0116
:0204D500F32210
:1004D700FAE6FB0808E6F925F0F618E6CA3AF62226
:1004E700D083D082F8E4937012740193700DA3A3A4
:1004F70093F8740193F5828883E4737402936860B8
:06050700EFA3A3A380DFB7
:1006B100EFB40A07740D1206BC740A309811A89998
:1006C100B8130CC2983098FDA899C298B811F630A9
:0706D10099FDC299F5992281
:00000001FF
